:10000000D80C01208D4000000B1402007940000044
:1000100079400000794000007940000079400000FC
:10002000000000000000000000000000654100002A
:100030007940000000000000FD4000007940000011
:100040000943000009430000094300000943000080
:100050000943000009430000094300000943000070
:100060000943000009430000094300000943000060
:100070000943000009430000094300000943000050
:100080000943000009430000094300000943000040
:100090000943000009430000094300000943000030
:1000A0000943000009430000094300000943000020
:1000B0000943000009430000094300000943000010
:1000C0000943000009430000094300000943000000
:1000D00009430000094300000943000009430000F0
:1000E00009430000094300000943000009430000E0
:1000F00009430000094300000943000009430000D0
:1001000009430000094300000943000009430000BF
:1001100009430000094300000943000009430000AF
:10012000094300000943000009430000094300009F
:10013000094300000943000009430000094300008F
:10014000094300000943000009430000094300007F
:04015000094300005F
:100154007BB972B90029BEBF00204FF0004106E010
:1001640008BF00281CBF6FF000414FF0FF3000F0C3
:1001740057B8ADF1080C6DE904CE002909DB002B5A
:100184001ADB00F069F8DDF804E0DDE9022304B0CD
:100194007047404261EB4101002B1BDB00F05CF82F
:1001A400DDF804E0DDE9022304B0404261EB4101E3
:1001B400524263EB43037047524263EB430300F044
:1001C4004BF8DDF804E0DDE9022304B0404261EBC2
:1001D40041017047524263EB430300F03DF8DDF800
:1001E40004E0DDE9022304B0524263EB43037047A9
:1001F40053B94AB9002908BF00281CBF4FF0FF318A
:100204004FF0FF3000F00CB8ADF1080C6DE904CEEE
:1002140000F022F8DDF804E0DDE9022304B07047C1
:10022400704700BF10F8012B11F8013B012A28BFC9
:100234009A42F7D0D01A7047034611F8012B03F8FD
:10024400012B002AF9D17047034613F8012B002A29
:10025400FBD1181A013870472DE9F04786468C46C1
:100264000846089E154674461946002B40F0C18086
:100274008542B2FA82F245D94AB1C2F1200300FAAA
:1002840002FC954094402EFA03F343EA0C0C4FEA27
:10029400154EA8B2230CBCFBFEF80EFB18CC08FBD1
:1002A40000F943EA0C43994528D9EB1808F1FF37C4
:1002B40004D2994502D9A8F102072B44A3EB090300
:1002C400A4B2B3FBFEFC0EFB1C330CFB00F044EAAF
:1002D4000344A04214D92C190CF1FF3304D2A042D8
:1002E40002D9ACF102032C44241A43EA07401EB19C
:1002F400D440002334607360BDE8F0874746DDE7EF
:100304006346F1E792BB431B01214FEA154EAFB29E
:10031400200CB3FBFEFC0EFB1C330CFB07F840EA7D
:100324000343984561D9EB180CF1FF3004D298458A
:1003340002D9ACF102002B44A3EB0803A4B2B3FB33
:10034400FEFC0EFB1C330CFB07F744EA0344A742F4
:100354004DD92C190CF1FF3304D2A74202D9ACF1C8
:1003640002032C44E41B43EA0040C0E7C2F120032B
:100374009540944020FA03F12EFA03F34FEA154E08
:100384009040AFB20343B1FBFEFC0EFB1C10190CF2
:100394000CFB07F841EA0041884522D969180CF1A1
:1003A400FF3004D2884502D9ACF102002944A1EB04
:1003B40008019BB2B1FBFEFC0EFB1C110CFB07F702
:1003C40043EA01439F420ED9EB180CF1FF3104D2EA
:1003D4009F4202D9ACF102012B44DB1B41EA0041EC
:1003E40093E76046E3E76146F7E76046A4E76346C0
:1003F400B8E7834206D916B9002108467CE7C6E966
:1004040000E0F9E7B3FA83F78FB9834201D3724569
:1004140008D8BEEB020460EB030301209C461EB91E
:10042400002169E73846FAE7C6E9004CF8E7C7F166
:10043400200CBB400EFA07F522FA0CF42EFA0CF14C
:10044400BA401C4320FA0CF3B8404FEA1449014364
:100454001FFA84FEB3FBF9F809FB18300B0C08FBF8
:100464000EFA43EA00439A4540D9E31808F1FF30F5
:1004740004D29A4502D9A8F102002344A3EB0A034B
:1004840089B2B3FBF9F809FB183308FB0EFE41EA05
:1004940003418E452CD9611808F1FF3304D28E45EF
:1004A40002D9A8F10203214443EA0040A1EB0E0162
:1004B400A0FB02984145CE46434602D306D14D45A2
:1004C40004D20138B9EB020E68EB0403002EA7D066
:1004D400B5EB0E0261EB030101FA0CFC22FA07F3FF
:1004E400F9404CEA0303C6E9003199E74046C5E701
:1004F4004346D9E7064A136883EA433383EA5343FE
:1005040083EA43131360B3FBF0F202FB103070472D
:100514007C8D0020F0B54FF0180C00250A4FECB28A
:10052400A24201D80020F0BD63B90444E6B21C46DF
:100534000C44E4B21CFB04643C5D0135A407EED01A
:100544000120F0E70646F3E76EDC0020F0B5002555
:100554004FF0180E9DF814C00A4FECB2A24200D816
:10056400F0BD63B90444E6B21C460C44E4B21EFB7D
:1005740004643E5D01354CEA06063E55EDE7064649
:10058400F3E700BF6EDC002037B5134B134A1B782A
:100594001349013B51F8233011684B40136002208A
:1005A400FFF7A8FF051E4FF00C0018BF0125FFF749
:1005B400A1FFC4B20620FFF79DFF2B46C1B2012262
:1005C4002046FFF7A7FF0028E9D10220009020462B
:1005D400FFF7BCFF03B030BD780200207C8D002003
:1005E400ACA1030000231846064911F8012B01337E
:1005F40002F00902012A08BF0130B3F5107FF4D1DB
:10060400704700BF6EDC00200122024B02481A70C2
:100614001FF011BD6CDC0020F00E0600024B01211E
:10062400186822F040BE00BF9C8D002013B51E4BFD
:10063400186838F01CFA04461C4B186838F017FA8E
:10064400237880211A4CDBB10378CBB1206822F0E7
:1006540025FC4FF47F00246831F0DEFD00228DF884
:100664000000C0F30723C0F307408DF801308DF874
:1006740002000099204602B0BDE8104025F0D5BC28
:10068400206822F001FC0B48246831F0C5FD8DF888
:100694000400C0F30723C0F307408DF805308DF83C
:1006A400060000220199E5E7948D0020908D00203A
:1006B400888D002030303000024B08211B68024A2C
:1006C40020F0B2B9788D002039160600034B0821BA
:1006D4001B78034AC3F1100320F0A6B96DDC002097
:1006E4001D1206002DE9F84F04460821234A20F084
:1006F4009BF908212046224A20F096F90025214E34
:100704002B46324608212046013520F08DF9182D5C
:10071400F6D1082120461C4A20F086F90025DFF88E
:100724006C801B4F2B4642460821204620F07CF962
:1007340000264FF0180ADFF85CB005EB07090AFB46
:1007440006F319F803301A0716D413F0040F14BF74
:1007540030232E235A4608212046013620F064F91E
:10076400182EECD108212046074A013520F05CF907
:10077400182DD7D1BDE8F88F3123EBE7230F0600FE
:10078400480F06004D0F06008E100600520F06009B
:100794006EDC0020580F06002DE9F04FB7B0064676
:1007A40031F0ABFF0446002800F09E80304631F063
:1007B4009EFF1D2840F09880304623F096FB0546A6
:1007C400002800F09180304631F08FFF02A923F019
:1007D400DCFD02A831F02DFC064602A831F02EFC07
:1007E40018234FF0000AB4F80280B4F8009003FB19
:1007F40008F803FB09F9039FA0EB0800A6EB090323
:1008040000EBD070029E03EBD37307EB60070AA8DA
:1008140006EB630626F0AAFCE379B4F805208DF80C
:100824005630ADF85420237AB1448DF864302379DE
:10083400B84404F1050B1693238828460AFB036386
:100844000AA90AF1010ACDE91137CDE9133826F0D6
:10085400A7FCBAF1180FEFD14FF0000A63882846BD
:100864000AFB03730AA90AF1010ACDE91163CDE970
:10087400139326F095FCBAF1180FEFD1637ADBB12C
:100884001AA80CF01DFC00238DF888302379284623
:100894002B93237A06AA8DF8B030B4F805301AA940
:1008A400ADF8A6309BF80230CDE90667CDE908988B
:1008B4008DF8A83026F009FD4FF000084FF0000B2A
:1008C400264B08EB0309182202FB0BF219F802105D
:1008D400DA460BF1010B51B9BBF1180FF3D108F152
:1008E4000108B8F1180FE9D137B0BDE8F08F1AA8A4
:1008F40001910CF0E5FBFF228DF8882022880199F4
:100904000AFB026201320692628808FB027201321B
:10091400079222880BFB0262013A0892628808FB64
:1009240002223A44013A09920A0712D50C4831F0DE
:1009340073FCC0F307228DF88900C0F307408DF8DB
:100944008A208DF88B0006AA28461AA926F0BDFC39
:10095400C2E74B07C0D50348E9E700BF6EDC0020BF
:100964000023D1001CACFF00002100B589B0152282
:1009740002A8019138F0D5FF084B094A1B781921C8
:10098400C3F1100301A81EF0A7FC064B01A91868C7
:1009940035F0D2FE09B05DF804FB00BF6DDC002029
:1009A4005D0F0600988D002010B50446094B022106
:1009B400186822F073FA084B0221186822F06EFAC4
:1009C400064B0121186822F06EFC2046BDE8104059
:1009D40012F0B0BF948D0020908D00208C8D0020EB
:1009E40038B5044631F081FE0546204631F07FFEDD
:1009F400132801D00A2815D10F4C2946206835F058
:100A040099FD2068012122F003FA2468204625F08C
:100A14009CFB80B125F0CFFB411E2046BDE8384049
:100A240025F09BBC142806D1034B01211868BDE8AE
:100A3400384022F038BC38BD8C8D0020F8B507460C
:100A440031F055FE232847D1384631F04EFE064694
:100A540033F0EFFE4FF6FF73984201463CD0304628
:100A640016F01EFD0446002836D0304635F08CFDC5
:100A7400054688B320461949FFF7D4FB30B9284608
:100A840038F024F8BDE8F840FFF7D0BD20461449FB
:100A9400FFF7C8FB20B120461249FFF7C3FB20B97A
:100AA4000121304622F0FFFBECE72378002BE9D04C
:100AB4006378002BE6D1284637F0D9FF0028E1D02F
:100AC400FFF7C2FB0128DDD8284621781CF0A8F9DD
:100AD400384631F014FED5E7F8BD00BF660F0600B6
:100AE4006A0F06006E0F0600022910B5044604D0F2
:100AF4001149BDE810401FF0A4BF104B1B780BB97F
:100B04000F49F6E7526810461EF078FF30B11046E0
:100B140038F00FFF012804D002280AD020460949E2
:100B2400E7E7094B2046BDE810400821074A1FF0BB
:100B34007BBF074BF6E700BF720F0600AEDE002056
:100B4400940F0600AA0F0600D3130600A50F060093
:100B5400B71306007FB5244C064620680D46019263
:100B640018B125F054FB002323600AF091FF18F01C
:100B740049FC3146206035F0DFFD20680022CC219D
:100B840025F062FA01990022206825F04EFA2668C1
:100B940031F06AFBC0F307238DF80C00C0F3074063
:100BA4008DF80D308DF80E0000223046039925F0A3
:100BB40060FA206808211EF037FF20680022062111
:100BC40025F06DFA002320681A46092123F067FBFB
:100BD40029460022054812F087FE012104B0BDE831
:100BE400704032F084BF00BF9C8D002021060000BD
:100BF40003292DE9F7430446154605D0172302219E
:100C0400604A1FF011FF0CE0576838461EF0F6FEEC
:100C140018B190681EF0F2FE30B920465A491FF010
:100C240010FF6FF0150033E038F024FF4FF0000898
:100C3400DFF8589106460A22414640F809803846B2
:100C44001EF0ECFB0A224146C7B2A8681EF0E6FB80
:100C540056F80920C3B2222A03D0172F01D8172B24
:100C640004D9172302212046494ACAE7494D2A7864
:100C74000F2A00F28280182606FB0736464A915D49
:100C8400480708D53A46204644491FF0DAFE0020BA
:100C940003B0BDE8F08341F00403C807935527D59A
:100CA40041F00C019155FFF79DFC3D490246204659
:100CB4001FF0C7FEFFF796FC58B90122394B2046B6
:100CC40039491A701FF0BDFE2046384A38491FF0D2
:100CD400B8FE2A7820460132D2B22A703549C2F1D0
:100CE40010021FF0AEFE344B186823F0F3FCCEE77D
:100CF4008B0740D541F00C019155304E3378042BCD
:100D040011D12F4B1B7873B90222264B1A702D4830
:100D140038F034FD20462C491FF093FE20462B4A20
:100D240023491FF08EFE3378032BD2D8244A12783D
:100D3400012A04D1264920461FF083FEC9E7012B6E
:100D44000DD1204623491FF07CFE002200231D48BC
:100D5400CDE900234FF4203200231EF025FA0423AA
:100D6400204632781C491FF06CFE3378013333700F
:100D7400FFF70AFCADE71949DDE7204618491FF0E3
:100D840060FEB0E7C00F0600DD0F06000C00000097
:100D9400001006006DDC00206EDC00201C10060034
:100DA40033100600AEDE002053100600D3130600F5
:100DB4006E100600DB100600A08D002078020020D3
:100DC4006CDC0020D802002073100600B713060064
:100DD40090100600A7100600B2100600CB10060003
:100DE400F21006002DE9F041B94D07468EB028688F
:100DF40037F03DFEB74C0646206837F038FE804693
:100E0400384631F074FC0A28074640F05E81337896
:100E1400002B00F05A8198F80030002B00F0558127
:100E24000246002130461EF083FA3A460646002167
:100E340040461EF07DFAC3B2F0B2172801D8172B32
:100E440013D9A54831F0E8F940F2DC518DF83400AB
:100E5400C0F30723C0F307408DF836008DF8353012
:100E64000D9A9E48FFF776FEF3E09D4E32780F2AE6
:100E740000F21981182202FB00309A4A135C5907C8
:100E840011D5954831F0C8F98DF83000C0F3072327
:100E9400C0F307408DF832008DF8313040F2DC5158
:100EA4000C9A9148DEE743F00401DF07115444D55E
:100EB40043F00C0313548D4831F0AEF9C0F307230B
:100EC4008DF82C00C0F307408DF82D308DF82E00DE
:100ED40040F2DC510B9A8648FFF73CFEFFF782FB99
:100EE400002840F0B3800122824B80481A7031F010
:100EF40093F9C0F307238DF82800C0F307408DF859
:100F040029308DF82A0040F6B8310A9A7A48FFF75A
:100F140021FE764831F080F941F288318DF82400C1
:100F2400C0F30723C0F307408DF826008DF8253061
:100F3400099A7248FFF70EFE88E0990740F1A180F4
:100F44006F4F43F00C0313543B78042B2ED16D4B9D
:100F54001B785BBB0222674B1A706B4838F00EFC9F
:100F6400624831F059F9C0F307238DF82000C0F32B
:100F740007408DF821308DF8220040F6B831089AE8
:100F84006248FFF7E7FD594831F046F98DF81C0037
:100F9400C0F30723C0F307408DF81E008DF81D3001
:100FA40041F28831079A5A48FFF7D4FD3B78032B66
:100FB4004CD8544A1278012A11D1564831F02CF9F0
:100FC4008DF81800C0F30723C0F307408DF81A000A
:100FD4008DF8193040F2DC51069A4F48AAE7012BEC
:100FE4001CD14C4831F018F98DF81400C0F30723D4
:100FF400C0F307408DF816008DF8153040F2DC512F
:10100400059A4648FFF7A6FD002200233E48CDE995
:1010140000234FF4203200231EF0C6F83D4831F07F
:10102400FBF8C0F307238DF81000C0F307408DF8D8
:1010340011308DF8120040F2DC51049A3848FFF761
:1010440089FD3B7801333B70FFF79EFA3378013317
:101054003370286833491BF05BFF206831491BF06B
:1010640057FF314B0121186822F01DF9FFF77CFC72
:10107400FFF7DCFA2D4B18680EB0BDE8F04123F001
:1010840029BB154831F0C8F88DF80C00C0F30723CC
:10109400C0F307408DF80E008DF80D3040F2DC519E
:1010A400039A234846E71B4831F0B6F88DF8080048
:1010B400C0F30723C0F307408DF80A008DF8093008
:1010C40041F28831029A1B48CCE60EB0BDE8F081AB
:1010D400948D0020908D00201CACFF00151106009B
:1010E4006DDC00206EDC00202A1106000022FF00C7
:1010F4003B110600AEDE002043110600D3130600A8
:10110400780200206CDC0020D80200205D1106006B
:10111400B71306008800A800781106008E11060097
:10112400981106008F1006008C8D0020A08D0020E1
:10113400AB110600B911060038B507F03DFE0446B0
:101144000D4B0E4D196821F0DAFA0D4B2046196843
:1011540021F0D5FA0B4B2046196821F0D0FA0EF095
:101164006DFB022128602FF0CEFB21462868BDE8E4
:1011740038402FF0E8BB00BF948D0020808D002004
:10118400908D0020888D002038B50D4618F020F988
:101194000446042135F0DFF90B4B0C4A04212046A8
:1011A40018F022F90021204635F0DEF9002348F238
:1011B40023022046064922F087FE1DB12946204617
:1011C40035F0B8F9204638BD6AB40300B8000020F1
:1011D400410A00002DE9F04F9DB0184C204637F02D
:1011E40013FF38B916481EF026FF4FF0FF301DB02C
:1011F400BDE8F08F2669A56833684FF4202223F4F4
:10120400006333602B680B212046984733681B0525
:101214004FF4006154BFEB682B6920469847094896
:1012240037F0F2FE08B90848DDE7002001F022F8A3
:10123400014668B105481EF0FEFED6E7549B030044
:10124400DC110600949B0300F01106000A1206004C
:1012540004210FA803F0CCFBD24F0F9BD24A3B6072
:101264001360D24C204637F0CFFE0028BDD0A368CF
:101274005B680BB12046984711F0E0FC2122002363
:10128400CB48CDE900231DF08FFF0AF0F7FA0028C0
:10129400ABD00AF0FDFB17F095FC0446C54935F0C8
:1012A40095F8204623F070FB0022FF21204624F00D
:1012B400FDFE12F04FFB00214FF4004038F067F9B7
:1012C400204624F0A4FF0AF0E3FB054607F0BAFD2C
:1012D400B94C4FF49172F021206022F0B3FF002347
:1012E40002211A46206822F0DAFFB448266830F05A
:1012F40093FFC0F307238DF81530C0F307438DF82F
:1013040016308DF8140000223046059924F08DFE25
:1013140020680022FF2124F097FE00222068114655
:1013240024F0A0FE00222068114624F0B8FE2068B4
:1013340000211EF079FB2068102121F069FD20684E
:10134400022121F0B0FF1D229D4B9E49206822F00E
:10135400BBFD284623F0BEF90AF09AFB04469748E1
:1013640030F05AFFC0F307238DF81000C0F3074094
:101374008DF811308DF8120000222046049924F0D3
:1013840054FE204618F03EF80546012135F04BFA8C
:1013940028468D4935F0D0F9002302211A46284603
:1013A40022F07DFF204618F02DF80546012135F086
:1013B4003AFA3B68854A1E2107A81DF08DFF28468E
:1013C40007A935F0B9F90E2300220221284622F09C
:1013D40066FF204618F016F84FF0170805467C4EB5
:1013E40030237C4A3421CDF8048000960FA81DF0E8
:1013F40073FF28460FA935F09FF928461E230A22B9
:10140400012122F04CFF4346734A042106A81DF033
:1014140063FF204617F0F6FF054606A935F08CF960
:10142400E62305220121284622F039FF204615F043
:1014340019FD6A4D14225A21286022F003FF6FF02F
:10144400090300220521286822F029FF6448D5F801
:10145400008030F0E1FEC0F307238DF80C00C0F3E8
:1014640007408DF80D308DF80E0000224046039998
:1014740024F0DBFD00230A225A49286822F024FDC7
:10148400286817F0BFFF0546574935F055F9284637
:1014940023F07AFA204623F01DF90AF0F9FA17F03E
:1014A400B1FF524C3146206035F046F920680121E5
:1014B40035F0B9F90021206818F058FB4C4825682C
:1014C40030F0AAFEC0F307238DF81C00C0F30740D8
:1014D4008DF81D308DF81E0000222846079924F04F
:1014E400A4FD20680022CC2124F0AEFD0022206857
:1014F400062124F0D4FD206806211EF095FA206808
:101504000022022124F0C4FD002320681A46092188
:1015140022F0C5FE20680024012121F0C4FE15221A
:10152400214610A80F9438F0FCF90AF0B1FA15F02E
:1015340099FC304D20224621286022F083FE6FF072
:10154400270322460621286822F0A9FE286817F0FE
:1015540059FF294EDFF8A4803378294AC3F11003D8
:10156400C8F8000019210FA81DF0B6FED8F8000035
:101574000FA935F0E1F8D8F8000023F005FA234666
:101584000A222049286822F09FFC8021286821F043
:101594007BFC0AF07DFA80218046286821F074FCE7
:1015A40032E000BF788D00207C8D0020149C030065
:1015B400A002002018A10300A08D0020FF820400D7
:1015C40060B403009D0700002112060050120600BB
:1015D4008F100600691206006D120600848D00202B
:1015E4000022FF001BFA0100701206009C8D0020EF
:1015F4008800A800888D00206DDC0020988D0020D4
:101604005D0F0600E90D00007D482D6830F004FEF2
:10161400C0F307238DF83D30C0F307438DF83E3007
:101624008DF83C00224628460F9924F0FEFC4046E3
:101634001BF012FA734D7449286037F0B7F9286823
:10164400012137F0DAF92868022137F00EFA286808
:101654006E4937F008FA2868102121F0D9FB286870
:1016640020223C2122F0EEFD28686FF027030A2295
:10167400042122F014FE234613226549286822F02F
:1016840023FC23460A226249286822F01DFC4046B6
:101694001BF0E2F95F4D6049286037F087F928684C
:1016A400012137F0AAF92868022137F0DEF9286809
:1016B400564937F0D8F92868102121F0A9FB286889
:1016C40020223C2122F0BEFD28686FF02703224629
:1016D400052122F0E4FD234613224D49286822F017
:1016E400F3FB23460A224A49286822F0EDFB2146EF
:1016F4004046FFF749FD494D9622F021286022F02B
:10170400A1FD6FF04A0322460621286822F0C7FD96
:101714000121286821F0C7FDFEF788FF2246012138
:101724003F4812F0E1F8FFF707FD39683D481EF025
:1017340082FC3D4830F070FDC0F307238DF818009B
:10174400C0F307408DF819308DF81A004FF47A7100
:10175400069A3648FFF7FEF94FF4107221463448D2
:1017640038F0DFF8DFF8CC8018F801AB01345246CA
:10177400214631481EF05FFCCAF11807FFB202206F
:10178400FEF7B8FEB0F1000B81464FF0180018BF09
:101794004FF0010BFEF7AEFEC5B21820FEF7AAFE0D
:1017A400C1B2B9F1000F24D001EB0A03192BA8BF71
:1017B40039465B4652462846FEF7ACFE0028DED189
:1017C400012000902846FEF7C1FE052CCCD1FEF77F
:1017D400DBFE31781948C1F110011EF02CFC12F027
:1017E400B9F8FFF7C1F800214FF4A47037F0CFFE29
:1017F400F5E705EB0A03192BA8BF3D46D9E700BF5F
:1018040030303000948D00207612060078120600E5
:10181400E5090000908D0020831206008C8D0020C5
:10182400AD090000851206001CACFF00C0120600C2
:101834006EDC0020B2130600CE120600ED12060084
:10184400014B1B68184700BFFC000020014B1860C7
:10185400704700BFFC00002030B585B004460D463B
:1018640010220021684638F05CF802238DF802301B
:10187400044B2A462146684601931DF035FE05B007
:1018840030BD00BF4518000080B505460E4617461A
:1018940098461DF06BF9034638F0ECF80446DFF87F
:1018A4001890424649F8003039463046A84754F863
:1018B400090002F00BFC00BF08000000044608B554
:1018C400EFF31183202383F31288BFF36F8F05F0A6
:1018D400EFFF204603F07AF802481EF0ACFB1FF03D
:1018E400ACFDFCE7EF1306002DE9F047058B044639
:1018F4002807904611D4022905F0070540F0CC8052
:1019040020461EF0C0FB78B10138218B042811D881
:10191400DFE800F0C2106D85950001290CBF45F089
:10192400100545F02005258388F31188BFF36F8FD8
:10193400BDE8F08701F0070AAA4500F0A58000275A
:10194400B9463E46A368002B00F0BC8041F0080174
:10195400218388F31188BFF36F8FA168002900F0F9
:10196400BA800D68002900F0B680334652462046FE
:10197400D1F80480C047002D76D02B6829461D4637
:10198400F0E701F007035A1F012A1BD8002221F0B7
:101994000701062B276889B2C4E9002209D13B4616
:1019A40003E0628B013262831B68002BF9D141F0A2
:1019B4000201204621831EF066FB00287AD041F004
:1019C400200176E0042B0AD121F0070189B22046D8
:1019D40021831EF058FB10B141F020012183218B9B
:1019E40001F0070AAA454FD00027B946AAE72369A0
:1019F40021F0070141F00601062DD3F80090218360
:101A04002DD1B9F1000F3FD041F00801218388F3B3
:101A14001188BFF36F8F20463949C84729E021F068
:101A24000701236941F0040189B2042DD3F804901D
:101A34002183E6D000274FF0040A3E4682E721F0D6
:101A44000701236941F0050189B2052DD3F80890F7
:101A54002183D6D000274FF0050A3E4672E70027BF
:101A64004FF0060A3E466DE72B4687E7B9F1000FB3
:101A7400D1D1EFF31188202383F31288BFF36F8F42
:101A8400238B23F008032383258BEA062ED525F028
:101A94001003238305F007056669218B002EBFF62A
:101AA40070AF00232768C4E9003321F0070141F037
:101AB40001012183218B4FF0000901F0070AAA4597
:101AC4007FF440AF002F9CD041F00801218388F3BC
:101AD4001188BFF36F8F002FC8D03D683946334655
:101AE400524620461EF0FBFA2F46F4E7AB067FF57C
:101AF4001BAF25F02003238305F0070500E700BF93
:101B04000F010200014B036000207047BCA10300D9
:101B1400F0B40D4B0D4E5F6A0D4BB34203D36FF01F
:101B24008500F0BC70475C68BC420AD31D6945B1AE
:101B340094F802C08488E4B2A44502D12B46F0BCD8
:101B440018472433E9E700BFA48D00209004002047
:101B54006C0400202DE9F04705460E461746134C49
:101B6400DFF84C80DFF84C90444503D36FF08500D8
:101B7400BDE8F0876268D9F824309A4213D3A36988
:101B84008BB1A9889078C9B2884205D13A463146CA
:101B94002846BDE8F04718475279012A03D13A464E
:101BA4003146284698472434DEE700BF6C04002001
:101BB40090040020A48D00202DE9F04105460E4636
:101BC40017460A4CDFF82880444502D36FF085009D
:101BD40009E063690BB92434F6E73A4631462846EE
:101BE40098470028F7D1BDE8F08100BF6C040020BD
:101BF4009004002010B504461FF0BEFC10F1780FCD
:101C040000D050B920461EF0E6FB044AD2F8C43096
:101C140023EA00030020C2F8C43010BDA48D0020C4
:101C24000022024B1A605A60704700BF5F8E00208A
:101C340070B50B4B0B4CA34201D3002070BD0022A6
:101C4400196A1E7F0439D5B2AE4201D82433F2E7B3
:101C5400013211F832508542F5D10120EEE700BF80
:101C64006C0400209004002073B584880D46E4B20F
:101C740063068DF8074007D02046FFF7D9FF78B1F7
:101C84000D4B93F8BA0058B120460B4E55B103F0F2
:101C940013FBF3691BB108200DF1070198470120DC
:101CA40002B070BD03F030FBF369002BF7D00920BC
:101CB4000DF10701F2E700BFA48D002008B5094823
:101CC4000378C3F341130A3350F823303BB100F1D6
:101CD400080200F110019847C043C00F08BD184620
:101CE400FCE700BFA48D002004282DE9F14F044631
:101CF4000F46DFF8949016D001282DD1DFF88C80A0
:101D040098F8B93043B300F0D7FD214D4D4520D2AA
:101D14004FF0000AD5F820B02B7F5FFA8AF6B34261
:101D240004D82435F2E7FFF77BFFE7E70BEBC606A1
:101D340030791FF021FC024630791EF04CFBD8F8B4
:101D4400C430002A23EA0003C8F8C4300AF1010AA7
:101D5400E2DA002388F8B9300D4D4D4508D30B4B1A
:101D64001B6A6BB13946204601B0BDE8F04F1847F5
:101D7400EB681BB13A462146284698472435ECE7E0
:101D840001B0BDE8F08F00BF90040020A48D0020B6
:101D94006C04002073B586781E4C8DF800600379BE
:101DA400427943EA0223ADF80230C378304603F0A7
:101DB40003038DF804301EF00EFBD4F8C43005463E
:101DC40018420BD0304600F059FD3046FFF712FFA1
:101DD40037F025FB10B996201CF086FE684603F008
:101DE40047FA10F1780F03D010B1002002B070BD93
:101DF4009DF8000003F0C4FA10F1780F01D0002818
:101E0400F3D10120D4F8C43084F8B9002B43C4F8CA
:101E1400C430EBE7A48D00202DE9F047A84E04461A
:101E2400B3690F461546FBB9237803F01F03012B52
:101E340000F09E80022B00F0068133BB94F9000071
:101E44002A680028617834DA062912D008292BD0B0
:101E5400D9B901235170137096F8C3305B0043F075
:101E640001031370022328E198470028DCD10020E5
:101E74000DE06288100A011F0129844605D907284C
:101E840003D8716AD2B20C781CB96FF01500BDE8A2
:101E9400F0874E78664503D19A4200F009810133F8
:101EA4002144F0E70B7808E196F8BA301370012367
:101EB40003E101390829E8D801A353F821F000BF50
:101EC4005F1F00008F1E00006D1F00008F1E0000AA
:101ED400E91E00008F1E00008F1E00008F1E0000F0
:101EE400F71E00006088C0B203F0B0F90028BED02D
:101EF400CBE76388756A63BBFFF792FE638886F855
:101F0400BA30F369002BB2D003206E499847AEE78C
:101F14006B78042B10D0052B11D0022B04D16F79D0
:101F24006388BB4208BF01202B781D442B78002B0B
:101F3400EED10028A9D0DFE795F80380F4E76388A1
:101F4400BB42F1D1B8F1000FEED12846FFF722FFD2
:101F5400EAE7FF270020B846E8E76388012B94D11D
:101F6400002386F8C33082E76388012B8DD1F8E71C
:101F740096F8BA30D5F800C0002B86D0756AA388CD
:101F84002A465FFA83FE107800283FF47EAF51782A
:101F9400022904D192F80480F04500F295800244AD
:101FA400F1E78CF800208CF8012039605FE71544D4
:101FB40096E00B2A7FF469AF00274FF0FF08BA467A
:101FC400C14606E06B78042B0FD0052B21D02B786B
:101FD4001D442B78002BF5D1F36913B1514607202A
:101FE4009847002F7FF443AF4FE795F80280A3880A
:101FF40095F803909845EAD163889945E7D1B8F1FB
:10200400070F1DD806EB0803AA46012783F8BB90E7
:10201400DDE7A3884345DAD16388DBB24B450AD0B8
:10202400AF78384600F02AFC3846FFF7E3FDB0FAF3
:1020340080F77F09CBE72846FFF7ACFE0746C6E7E3
:10204400AA460027C3E794F900206378002A19DA26
:10205400002B7FF41AAFA3882D68DCB25B060AD08C
:102064002046FFF7E5FD00283FF40FAF96F8BA309D
:10207400002B3FF40AAF2946204603F065F90023FC
:102084006B70EFE6012B08D0032B7FF4FEAE638860
:10209400002B7FF4FAAE012103E0618800297FF46C
:1020A400F4AE2046FFF7E0FD00287FF4E0AEECE656
:1020B400022829607FF4F6AE4B883B60D7E600BF68
:1020C400A48D00205E8E002094F900006278002820
:1020D400BFF66FAF002A3FF464AF0A2A7FF4D5AE8F
:1020E4002A78002A3FF4D1AE697804297FF45FAFDF
:1020F400A9788B427FF45BAF072B8EBF00239B191B
:1021040093F8BB308CF80030D1E600BF13B5164C01
:10211400237DF3B9E26801AB8020A16801921EF02F
:1021240069F9019AA3681344A360E3689B1AE36006
:102134006BB962B12369E2889A4208DD94F8C82039
:1021440093FBF2F102FB11330BB90123237502B0A7
:1021540010BD002380201A461946237502B0BDE83D
:10216400104003F037B900BFA48D0020002330B520
:1021740085B002460D460193002858D1002935D177
:1021840008220B460DEB02011FF00FFA002804DAB7
:10219400802003F091F805B030BD2A4C029AC4E9BE
:1021A40003552260039ABDF80E30626004F13802D0
:1021B400A2609DF908202575002A0ADB802B04D92A
:1021C400802003F079F80020E3E713B1C4E9033376
:1021D400E1E7FFF773FD0028DAD0E28823699A4229
:1021E400D4BFE260E360FFF791FFD4E7154C01AB85
:1021F400D4E90215002D04DC1FF0D7F90028CADA4F
:10220400C6E72A461FF0D1F90028D9DB019AA36852
:102214001344A360E3689B1AE360002BBBD104F171
:102224003803A360FFF74AFD0028DCD1B0E780281B
:10223400B1D1044BDA68002AD5D11B7D002BD2D151
:10224400A9E700BFA48D0020054B064A58629A6294
:10225400054A0020DA62054A1A63054A9A61704702
:10226400A48D00201D1E0000151B0000BD1B0000D6
:10227400591B00002DE9F3410446474D4FF0FF334D
:102284004FF0FF3245481BF0CBFD95F8B830002BDA
:102294007BD16B6A83B142482C62E8616E6A03F0B9
:1022A400B3F902F0A1FF041E10DA3C481BF030FE23
:1022B400204602B0BDE8F08100F0BCF8FFF7C4FF8F
:1022C4006B6A002BE7D14FF0FF34EEE700F016FB0A
:1022D400041EEADB7378012B5AD1F379002B57D013
:1022E4000026684685F8C830ADF802308DF80460E1
:1022F4008DF8006002F0BCFF041ED6DB8027684620
:102304008DF8007002F0B4FF041ECEDB3046254980
:1023140003F066F9041EC8DB3846224903F060F96D
:10232400041EC2DB204CDFF8848044451AD300200D
:1023340003F026F8041EB8DBD5F8C430802043F03F
:102344000103C5F8C43003F01BF8041EADDBD5F857
:10235400C430002443F48033C5F8C430012385F825
:10236400B830A2E70026276A227FF3B29A4201D846
:102374002434DAE707EBC30257F83310107903F07B
:102384002FF901360028EFD09DE76FF077048CE732
:102394006FF0150489E700BFA48D002054030020CA
:1023A400ED1C0000712100006C040020900400204A
:1023B40030B51E4B8BB005AA03F1100514461868FE
:1023C4005968083303C4AB422246F7D100251B7871
:1023D40010222370164C002101A837F0A2FA2560C0
:1023E40065602581102101A81FF0F1FB002819DD8B
:1023F4000428B8BF042001AB05381A1812F8013FAD
:102404000AA901EB131103F00F0328336B4411F8ED
:10241400141C13F8143C0135042D2170637004F16D
:102424000204EBD102480BB030BD00BF1814060003
:10243400B0DE00202DE9F04F714B87B093F800B067
:10244400BBF1000F03D06F4807B0BDE8F08F6D4CAF
:1024540000264FF0011AB0463546B14623783BB901
:10246400694B02349C42F3D10123654A1370EAE7B5
:102474006378052B1BD8DFE803F08C03C18C1D396E
:10248400402304A88DF810B0ADF812308DF814B0C4
:102494001FF05DF840B1082304A8ADF812301FF016
:1024A40056F808B1ADF812B0BDF81230E3712378D4
:1024B4001C44D3E7E378002BF9D1A3786BB108F17E
:1024C40001085FFA88F8F2E76B689C4207D024356C
:1024D4004E4B9D42F8D30020B6E74D4DF8E7AB686C
:1024E400002BECD0414620469847E8E7002DF2D077
:1024F40000222B7F9A42EED2296AA07801EBC20116
:102504000B79984201D00132F3E70127E078FBB25E
:1025140000F003008DF81400207994F805C040EA17
:102524000C20ADF8120094F90200002826DA4FF0CE
:10253400010C07F110000CFA00F010EA0A0F24D184
:1025440043F080008DF8100004A8CDE90213019235
:102554001EF0FDFFDDE90121039BB0B99DF81020B9
:1025640012F0800FA2700A714FF001021DBF1033E8
:10257400DBB29A40BA404AEA020A98E70120B8401E
:1025840010EA0A0F01D11846DCE70137102FBDD13C
:10259400B9E7032E1AD1FFF70BFF074650B1FDF739
:1025A40053FE024630B10828A8BF08223946A01CB1
:1025B40037F090F96FF002012378091BE21804EB5D
:1025C4005303D14213D50136F6B270E7002EF1D190
:1025D400B9F1000F3FF47FAFA4EB090389F802308F
:1025E400C3F3072389F8033089F80480EBE702F882
:1025F40001BC13F8010902F8020DE2E7A14656E70F
:10260400AFDE0020D80300206B04002090040020DB
:102614006C040020094B00211A4610B51C78844232
:1026240004D15C6814B102EB811010BD013104299E
:1026340003F14003F2D10020F7E700BF708E0020C1
:102644002DE9F34150F8283C0446103310F82C6C63
:102654000AD1036950F8202C980736D5D2B9590706
:1026640015D5002344F8283C54F8283C10330BD0EB
:1026740054E9077554F8148C36F0D1FE00284FD075
:1026840021462E4836F0AFFE02B0BDE8F08143F09B
:1026940004032361304654F8241C01AB1DF0AAFE48
:1026A40010B16FF01503DDE7019A54F8243C13448C
:1026B40044F8243C54F8203C9B1A44F8203C54F839
:1026C4001C3C134444F81C3CCEE7304654F8241C0C
:1026D40001AB02F0FBFE0028E3D1019D54F8243C39
:1026E4002B4444F8243C54F8203C5B1B44F8203C25
:1026F40054F81C3C2B4444F81C3C002DB1D030460B
:1027040002F088FFB5FBF0F303FB1055002DA8D1B0
:1027140054F8203C002BA4D0304602F01FFFA3E75E
:1027240044F8180CA4F110001BF074FC002DABD07D
:10273400424639463046A847A6E700BF9004002029
:102744004B1E012B73B506460D460FD8FFF762FFEB
:10275400044668B9012D09D101AB012230460DF1BF
:10276400030102F0B3FE019B002BF5D102B070BD52
:1027740036F055FE04F12C0108B1012D05D10846AF
:1027840002B0BDE87040FFF75BBF034802B0BDE88C
:10279400704036F028BE00BF900400202DE9F74FAA
:1027A40006461546984601911DF06AFE0446002827
:1027B4005BD1EFF3118A202383F31288BFF36F8F69
:1027C400DFF8ACB00022002358461BF057FC70B968
:1027D400DFF8A090A70109EB8414636813F1100FCC
:1027E40014D1019358461BF015FC019B06E00134FB
:1027F400042C0BF1400BE5D16FF00B038AF3118825
:10280400BFF36F8F184603B0BDE8F08F019B2061C2
:10281400C4E902350C9B304663610D9B09F80760DF
:10282400A3616FF00F03C4F83C80636002F0F2FE12
:1028340058B1304602F0EEFEB5FBF0F303FB105541
:102844001DB1E36B43F00403E36318F0020F07D0F8
:1028540007F12C010848494436F0C5FD0023CDE7B3
:10286400304602F07BFE0346C8E76FF00F03C9E76A
:102874008C8E0020708E00209004002010B5EFF3A1
:102884001184202383F31288BFF36F8FFFF7C2FEF6
:1028940050B14368103307D16FF08B0300F12C0162
:1028A4004360044836F09FFD84F31188BFF36F8FB3
:1028B40010BD00BF90040020F8B5042520270D4C5E
:1028C400EFF3118687F31288BFF36F8F63681033B9
:1028D40007D16FF08B030848636004F12C0136F0D4
:1028E40082FD86F31188BFF36F8F013D04F140042C
:1028F400E6D1F8BD708E00209004002070B500254C
:10290400094C0A4E3146204636F051FD0122A4F10D
:1029140010001146013536F0FFFC042D04F140048B
:10292400F0D1002070BD00BF9C8E00204526000021
:102934000123016981F84B300B6833B191F84930B8
:102944001BB10248083136F04EBD70479004002098
:102954000123016981F84A300B6833B191F848309A
:102964001BB10248083136F03EBD70479004002088
:1029740070B50569EFF31186202383F31288BFF342
:102984006F8FD5F890001DF0E3FC044686F31188A0
:10299400BFF36F8F30B100220023034805F1180103
:1029A4001BF02AFD204670BD90040020012370B561
:1029B40082F8483013680D4614463BB192F84A3009
:1029C40023B10E4802F1080136F00DFDD4F8903021
:1029D4005A89DB889A4205D17DB904F1180140F681
:1029E400CD4204E004F11801002DF8D00022BDE826
:1029F4007040002301481BF0FFBC70BD9004002010
:102A040070B50E4681880446C9B2154815461DF0B6
:102A140014FD10B394F900206378002A16DB202BF0
:102A240004D0222B0ED06FF085000AE02B681A68C0
:102A340040F8102C9A8820F80C2C9B7900F80A3C5A
:102A4400002070BD638800F8093CF9E7212BEAD126
:102A54000723103828603360F2E76FF01200F0E7C4
:102A6400748F0020014608B503481DF0F3FC10B133
:102A7400012300F8073C08BD748F002000210346A1
:102A84000C4AA0F84810106883F89C10C3F894000E
:102A940090889279A3F8980083F89A2083F89B1081
:102AA4004022A3F89E1083F8A01003F14C0036F0E6
:102AB40038BF00BFE8A00300002310B50469C4F8C0
:102AC400A8300C4BC4F8A400596804F1A80269B9F1
:102AD400C3E9002204F10800074936F068FC04F158
:102AE4001800064936F08FFC002010BD0A605A60B9
:102AF400F0E700BF748F0020AF040200C52B000074
:102B040030B54FF400334268056942F2A10085B044
:102B1400CDE90103002385F89D30106AADF80C104F
:102B24000A22007901A91DF065FC054C95F89D3039
:102B340023B9012036F04CFA013CF7D105B030BD81
:102B4400A1860100002373B5202504698DF80710C0
:102B540084F84830EFF3118685F31288BFF36F8F42
:102B64000122D4F890000DF107011DF0F1FB86F36A
:102B74001188BFF36F8F01280FD036F050FC10B9C5
:102B840094F8A13093B901220B4BD3E8EF1F00292D
:102B940003D1C3E8E02F0028F7D12122002304F158
:102BA400180106481BF028FC02B070BD002121204A
:102BB40036F0EDFCCEE700BF708F002090040020BB
:102BC400F0B5D0F88C3005465B6885B01B6A1F7D74
:102BD40038461DF055FC064650BB95F886303BB38D
:102BE400A86F0146C38831F80A2F9B1A9BB2B3F52C
:102BF400806F28BF4FF4806303AA1DF05AFB04467C
:102C0400B0B18306A5F1180385F830600193094B30
:102C140008BF00F1FF34224603990093384602238B
:102C2400FFF7BCFDA86F224600F10A011DF077FBF7
:102C340005B0F0BDB129000037B514460A1E05469B
:102C440021DDD4F88C0004F14C011DF081FB01233B
:102C540084F8493023683BB194F84B3023B11148D0
:102C640004F1080136F0BFFBD4F88C2093889189D5
:102C740012695B1A9BB2D31A3F2B04D8012384F840
:102C8400A03003B030BD94F89E30002BF9D0064B31
:102C94004022009328460123019404F14C01FFF7DC
:102CA4007DFDEEE7900400203D2C0000F7B50D46B5
:102CB40001461D481DF0B6FB044610B3064656F8FF
:102CC400A439691E5F6805291BD8DFE801F01C1AC6
:102CD400031C222610F8061C99B9012300F8063CAF
:102CE4003B6A3246187BFFF7A7FF14F85C2C42B905
:102CF4003B6A1146187D0D4B019600930223FFF7A2
:102D04004DFD03B0F0BD304603B0BDE8F040FFF721
:102D1400B5BE012304F8053CF3E710F8053C002B8D
:102D2400EFD00023F6E700BF748F0020B129000024
:102D340037B50024084D4FF0FF334FF48062284626
:102D4400064900941BF018FB054928461BF0B2FB0A
:102D5400204603B030BD00BF9004002018DF0020DF
:102D64003714060013B5094836F04EF958B100245B
:102D7400074A0123126805490648009400F098FCAC
:102D8400204602B010BD6FF01200FAE7949B0300D6
:102D9400BCA1030064A0030010B54468C4E9001298
:102DA400A36042684021134653F8404B5163536279
:102DB400002302F13801C2E904130821C2E90A33ED
:102DC400C2E9063313631162C2F8B830A36823B1B1
:102DD4001B6C13B1204604499847A3681B6A0BB1C6
:102DE40020469847002010BD4707020038B5836885
:102DF4000446D3F86831DB071AD4406803685B687B
:102E04009847054620B9E0681EF0F6F9A3681D71DD
:102E1400A3685B6B13B1294620469847002236F01D
:102E240029FEA368C3F88821034B185801F04EF912
:102E34006FF00F05ECE700BF0800000001491DF02A
:102E440025BD00BF8E1006002DE9F04FA1B0044649
:102E5400542200210BA836F064FD00230593A368D7
:102E64002046463303931EF050F820461DF0D1FF50
:102E740010B96069FFF7E2FF0027A068142200215F
:102E8400083036F04EFD20461DF067FFA168E0686B
:102E9400B1F8402046311EF074F94FF0FF383D463A
:102EA400BB463E46B9460DF12C0A059B012B61D069
:102EB400142D5CD1022B5DD10121514B514A0FE0FD
:102EC40051460223039A05A81DF029FE5AF8042F3F
:102ED40005990346039231B101290AD148B14A4AFE
:102EE40020461EF08FF86FF00705284621B0BDE894
:102EF400F08FBBF1000F06D148465AF8041C06AA0D
:102F04001DF0DDFE064608F1FF38EEB1F36893B11B
:102F1400B446A768BCE80F0008370FC7DCF80030D8
:102F24003B60B36833B9737CFE2B04BF96F8108002
:102F340008F1FF382F46B146059BB8F1000F01D1C7
:102F4400022BB2D10135B0E715B14FF0010BF3E715
:102F5400A368DB6913B1DB68002BF6D12B4B01218D
:102F6400009320460B9B2A4A1EF04CF8EDE7B8F17B
:102F7400000FA5D1B9F1000F0AD099F81130FE2B3A
:102F840006D120AB03EB850353F8543C03B1013560
:102F9400A068ED1B43692BB9012120461D4A1EF090
:102FA40031F8A0E7037E9BB14FF6FF72417EFF2903
:102FB40018BF0A469D4202D313449D4208D9836830
:102FC40001212046144A1EF01DF86FF015058CE708
:102FD40001211DF074FCA0681DF065FCA3680BAA18
:102FE40029465B6902EB8702204698470546A0689C
:102FF4001DF05DFC0021A0681DF061FC75E700BFB9
:103004007B140600A60F06004D1406006714060084
:10301400611406009F140600BD140600F7B50446AB
:1030240080680D46D0F868315A0705D500211DF097
:1030340051FCE0681EF077F8E368DB6873B9002D93
:103044003BD0A66806F1460738461DF019FC002857
:1030540035D0394606F1C600FDF7EEF8A2682946D8
:10306400E0680DF1060346321EF060F858B9A06816
:1030740000F1C6014630FDF7DFF8A06846301DF0C8
:10308400FFFBADF8060020461DF038FFA368D3F817
:1030940064319B0603D50B4960691DF0F7FB20469C
:1030A40000F06EFCA268BDF806302046A2F842305B
:1030B400A268A2F840301DF0C4FE03B0F0BD86F84B
:1030C400C600CBE7EFA00300022210B583680446D4
:1030D4001A718268936BEBB982F846308268A2F861
:1030E40042308268A2F840308368D3F86831DB0448
:1030F4000BD50321084B094A1DF084FFA0686FF427
:10310400805100F5B4701DF0B0FB2046BDE81040BE
:1031140000F01EBD10BD00BFD8140600444E0600CA
:103124002DE9F04F044680680121B1B000F5B47078
:103134001DF090FBA3681B79022B20D10023099377
:10314400A36860689E6B03681D6909AB0EB3102207
:103154001BA9A847099B93B10121A0681DF0AFFBEF
:103164002046099A1BA9B0470021A0681DF0A7FBBF
:10317400A3689B6B002BE3D12046FFF7A5FF6FF0FC
:103184000101A06800F5B47031B0BDE8F04F1DF046
:103194006CBB01220DF12301A847099B002BEED043
:1031A4009DF923209DF82330002AA068C8DB4279CA
:1031B400032A00F2FF81DFE812F00400F701FF01A7
:1031C400FD010D2B47D00A2B23D0B0F86821092B21
:1031D4006FF3CA02A0F8682152D00AD8002B00F07D
:1031E400E180082BA06800F0C2810246D2F8643165
:1031F400D8E01B2BA06840D07F2B00F0C481203B7B
:103204005E2B0246F2D801211DF064FB9DF82310C9
:10321400B6E0D0F86821C2F3C7022AB1D0F8682119
:10322400C2F3C7020A2AE0D1B0F8682163F3CA02E4
:10323400A0F86821A568B5F84010C1B928461DF06A
:1032440049FBE0681DF06FFF6069FFF7F7FD20465A
:10325400FFF73AFF74E7D0F86821C2F3C702002AE7
:10326400E2D0D0F86821C2F3C7020D2ADBE720467A
:10327400FFF7EAFDC5F88C01E9E70123437191E00A
:10328400A068D0F864319B0740F18C8001211DF0C7
:1032940021FBA068B0F840307F2B00F0838000252C
:1032A400B0F8422000F14601C63036F013FBA368A3
:1032B4001BA9B3F842200BA8134483F8C650A26894
:1032C4001423C6321DF02BFC0B9914296AD830AB99
:1032D40003EB810343F8545CA368B3F84220002A4B
:1032E40052D0134493F84530202B02D0093B042BD1
:1032F4004AD800294BD100250A950A9B30AA02EB33
:10330400830353F854AC002650461DF0B9FAB34673
:103314008146B04637463946284616AA00F0B8FA20
:103324000346002842D1012E68D10A9B30AA02EB41
:10333400830353F8540C1DF0A3FAA26806464146D1
:103344002846083200F0A4FA056828461DF098FAC9
:10335400864205D0821B92B22046A9191DF09AFE1E
:10336400A068B0F84230034493F84630202B34D0A0
:10337400093B042B31D9D0F86431DF0732D4202142
:10338400204600F0ADFB0DE00129B4D9013900203D
:103394000CAB009301900AAB1BAA1DF0BBFC0546C5
:1033A4000028AAD160691DF05AFBC9E61B684A4689
:1033B40051461846039336F0D0FA60B9039B184679
:1033C400FCF742FF584538BF5846002E08BFB846A0
:1033D4001FFA80FB013601379DE7012120461DF0CD
:1033E40064FDDFE700211DF07FFA2021204600F074
:1033F40077FB0121A0681DF077FAD3E70490D1D9B7
:103404000A9A30AB03EB820252F8543CC146184688
:1034140003931DF035FA049BA26805901386049665
:10342400A26849462846083200F032FA039BD0F8D5
:1034340000A009F101094BB1BAF1000F06D01946F9
:103444005046059A36F089FA0028E9D1A168BAF104
:10345400000F4BD1A1F830A0049B013B0493DFD1B2
:103464006069FFF7EBFC204600F072FB0A9B30AA70
:1034740002EB830353F8540C1DF002FA414611AADF
:103484008146284600F004FA0746A06839687F227E
:10349400C63036F074FA3B684FF6FF7708F1010A3C
:1034A400B84603935146284616AA0AF1010B00F0C8
:1034B400EFF900284FD00022A1680368C53111F844
:1034C40001EF985C704503D110B101324245F6D149
:1034D400B9F1000F01D04A4506DBBA42A8BF3A460B
:1034E400013E012E97B236D0DA46DBE76D480691ED
:1034F4001DF0C6F9069900EB0B074A8DBFB2121AEC
:1035040092FBF7F2504692B2079106921DF0B8F979
:1035140007993F1A088E069A00F1010CA1F830C0F1
:10352400B0FBF2F102FB110080B2BFB260B9062118
:1035340020465C4B5C4ACDF800A01DF063FD394683
:10354400204600F007FA87E7534606212046574AEB
:103554001DF058FDF3E7002F3FF424AF0399A7EBC8
:103564000902204692B249441DF094FD1AE7D0F8AE
:1035740064319E077FF516AF01211DF0ABF920469B
:103584001DF0A9FD0EE7D0F864319D077FF50AAF61
:1035940001211DF09FF9A368D3F864311807EED414
:1035A40020461DF079FDFDE65B2B01D1022365E683
:1035B400D0F86431002361E600224271A268D2F897
:1035C400641189077FF5BCAD313B1B2B3FF6EAAE96
:1035D40001A151F823F000BF7736000083360000C4
:1035E400973600006B360000A9330000A9330000B1
:1035F400A9330000A9330000A9330000A933000057
:10360400A9330000A9330000A9330000A933000046
:10361400A9330000A93300004D36000057360000DE
:103624005B36000063360000A93300006F360000EB
:10363400A93300007B360000A9330000A933000041
:10364400A93300008736000001212046FFF7E6FC7D
:10365400A8E60021F9E720461DF069FCA2E6204611
:103664001DF05CFC9EE60323537120461DF04DFCC7
:1036740098E60323537120461DF040FC92E6032391
:103684005371A068D0F8641101F0010181F00101C7
:10369400B1E603235371A368D3F864319B077FF524
:1036A40081AE7DE74A0F06001C150600444E060055
:1036B4002DE9F041044680680F46D0F8881115467C
:1036C4001E4688B0002955D14FF4C87236F029F946
:1036D400A06800F5B67036F0CEF8A06800F5BC70AE
:1036E4000122114635F018FEA068022100F5B470DD
:1036F4001DF0B0F85022A3685A851822A3681A85D1
:10370400A36822681A60D4F80880D8F800001DF075
:10371400B7F888F82C00A36825F0140262F30705B3
:10372400C3F86451606839460368144A1D68234627
:10373400A8470546D0B90122A3681A71D4E9090142
:1037440000220023CDE906230E2303930E9B4FF49E
:103754000062CDE901630495094B00941AF022FF3D
:10376400A368C3F88801216A1AF0A4FE284608B0A9
:10377400BDE8F0816FF07705F8E700BF4309020068
:10378400893700002DE9F34104468068154600F5A9
:10379400B470002935D04FF480411DF05BF8A36864
:1037A4000021DD63606803689B68984770BB20460E
:1037B4001DF0D8F850BB4FF0FF364FF0FF37154DD2
:1037C400DFF85480A06800F5B67000220721CDE927
:1037D400006736F05CF8A0681DF069F82A460421F9
:1037E40020461DF090F82046424601211DF08BF83A
:1037F400606803685B6903B19847A0681DF053F8DB
:10380400E0E76FF480411DF030F8C8E702B0BDE88E
:10381400F08100BFF12D00002531000070B5044691
:103824000D491DF00EF920460C491DF00AF90C490A
:1038340020461DF006F900210A4E002210464D1CB8
:1038440000F026F8034600B970BD314620461A68D8
:103854001DF0F7F82946F0E722150600601506006A
:10386400BF150600D515060010B5044613460A46D2
:103874000146064800F062FF23691B7923B1204604
:10388400BDE810401DF0EBB810BD00BF7B0A02007C
:1038940038B50B46154648B91449154A521AB3EBC4
:1038A400920F05D251F82350284638BD84680CB9CC
:1038B4000025F9E70F4A94420AD30F4A944207D2EB
:1038C40018462946226890472B68002BECD1EFE775
:1038D4000A4A944202D30A4A944205D32468142221
:1038E4005343E518E358F0E70133F8E790A00300E9
:1038F400ACA00300C0A00300C0A00300ACA0030060
:10390400C0A003008368D3F864319B0603D5024941
:1039140040691DF05DBA7047F4A0030001491DF031
:1039240057BA00BF8E1006000A1E0DDC0ED04223CB
:103934008168D1F86411890608D5002A04494069D0
:10394400B8BF52421DF044BA4123F1E7704700BFAB
:10395400F91506000A1E0DDC0ED044238168D1F847
:103964006411890608D5002A04494069B8BF524247
:103974001DF02EBA4323F1E7704700BFF915060086
:103984002DE9F0478568044605F14600FCF75CFC28
:103994000023984695F82C70DFF8549086B2A268FC
:1039A400558DED1BB54209DB002E1FDD46336069E2
:1039B40010491A44BDE8F0471DF00ABA1D442A44D0
:1039C40092F846A082F84680A26846331A444946D3
:1039D40060691DF0FDF9A3682B4483F846A0A36831
:1039E4005B8DDB1BF61A00272B46D8E7BDE8F08772
:1039F400A60F0600444E06002DE9F84F05460F4673
:103A040090460AB1FFF77EFFD5F80890D9F86431E3
:103A1400B9F842605B0724D506F146004844FCF738
:103A240013FC04462B4EB4B9AB68B3F84020A3F89A
:103A34004220A8681DF0D9F930B1B8F1000F00D0C8
:103A440017B16869FFF76AFF79422846BDE8F84F65
:103A540009B21DF02ABA314668691DF0B9F9013C72
:103A6400E1E7D9F80000B9F840A010B1FCF7ECFB8D
:103A740080B2B9F82A3082448419B4FBF3F2BAFB59
:103A8400F3F39A42B3461CD0134E5445AB68CBDAD9
:103A94005A8D04F10109B4FBF2F302FB134313B989
:103AA4006869FFF73BFFAB680BF101045B443246E6
:103AB4000821284693F84630A3461DF0A3FA4C4645
:103AC400E3E7463608212846044A09EB06031DF0BD
:103AD40099FAA9E734540600FD150600444E060081
:103AE40013B583688DF80710D3F864210446D00712
:103AF40025D5B3F84210B3F840208A421FD0481CA1
:103B04009DF80720A3F842000B4483F84620A368DD
:103B1400D3F86411890710D5D3F86431606913F0C0
:103B2400040F18BF2A2209491DF052F920461DF03E
:103B340070F910B16069FFF7F1FE02B010BD012207
:103B440020460DF107011DF06BFAF6E7FD1506009E
:103B540010B50446836802211B68084A1DF052FA16
:103B6400A368D3F864319B0707D52046FFF708FF05
:103B74002046BDE810401DF073B910BD444E060048
:103B840008B50348034A0021121A1DF034FC08BD8D
:103B94009004002018DF0020074808B5074A0849A8
:103BA400121A1DF02AFCBDE808400648064A0749D7
:103BB400121A1DF022BC00BF000000209004002057
:103BC400385406000000002000000020385406008D
:103BD40038B505460C4699B1D1E901230F48096867
:103BE4001CF029FAD4E90423E1680D481CF023FAF7
:103BF400E1690C481CF01FFAA1690B481CF01BFA80
:103C0400012D05D1EFF30581084810391CF013FA92
:103C140021462846BDE8384019F0A2BE1116060018
:103C2400411606007116060081160600B01606003D
:103C340030BFFFF7FDBF00BF2DE9F04105460B4E35
:103C4400DFF82C80324606EB0807CC1B20460949D6
:103C540035F040FEA01942460021083C35F061FED3
:103C6400C5F8B44007F10800BDE8F0810000000089
:103C740008000000C0A00300054B5A699B689A42E3
:103C84001FBF044A536843F080535360704700BF1A
:103C940030DC002000ED00E010B5204C20481CF082
:103CA400CAF9A36A990137D51E481CF0C4F91E202D
:103CB400A36ADA0103D51C481CF0BDF91F20174C78
:103CC400A36ADB0203D519481CF0B5F90220A36AE4
:103CD4001C0303D516481CF0AEF921200F4CA36A2F
:103CE400590303D513481CF0A6F92220A36A9A03AA
:103CF40003D511481CF09FF92320084CA36ADB0369
:103D040003D50E481CF097F92420A36A6FEA0343F5
:103D14006FEA1343A36210BD1D20C9E700ED00E064
:103D2400C4160600DD160600F11606000C17060080
:103D340037170600561706007C170600971706006B
:103D440070B5244C064624480D461CF074F9A36A49
:103D5400D90435D521481CF06EF91720A36A1A0539
:103D640003D51F481CF067F918201A4CA36A9B0559
:103D74000FD51C481CF05FF9A16BA36A180407D582
:103D840019481CF058F91EB1A36A23F40043A36236
:103D94001920104CA36A590503D514481CF04BF99B
:103DA4001A20A36ADA050DD511481CF044F91B202A
:103DB400084A936A43F47F43936200232B7070BDD7
:103DC4001620CBE7A36A9B04F2D50A481CF033F90A
:103DD4001C20EDE700ED00E0C3170600DA1706002B
:103DE400EC170600001806001A1806003018060022
:103DF4004C1806006518060070B5264C0646264881
:103E04000D461CF018F9A36AD80640D523481CF0C7
:103E140012F91120A36A190703D521481CF00BF9E4
:103E240012201C4CA36A9A070FD51E481CF003F9F4
:103E3400616BA36A1B0607D51B481CF0FCF81EB176
:103E4400A36A23F08003A3621320124CA36ADE0743
:103E540003D516481CF0EFF81420A36A9C0603D57A
:103E640013481CF0E8F815200A4B9A6AD10658BF8B
:103E74009A6A9A6A920642BF5A6A22F400525A62B5
:103E84009A6A42F0FF029A6200232B7070BD1020E0
:103E9400C0E700BF00ED00E095180600AC1806006E
:103EA400EC170600E0180600F918060010190600C1
:103EB400651806002DE9F0415B4B04465F68002558
:103EC4008AB0C7F3080685F31188BFF36F8F02F039
:103ED4007F43B3F17F4F06D102F00C03082B13D1BB
:103EE40052481CF0A8F800252C464FF00008F31E99
:103EF4008DF80780092B00F28580DFE803F00A794A
:103F04007D7583838383838110074CBF0C46012511
:103F1400EBE74748444E1CF08EF88DF80780F36AAF
:103F24009A0704D543481CF086F800232FE0F36A6F
:103F3400002B01DA4048F6E7F36A5B00F5D53F4809
:103F44001CF079F87369A26943F480737361BFF359
:103F54004F8FBFF36F8F736932F8022C23F4807391
:103F64007361BFF34F8FBFF36F8F4DF602739A42A5
:103F740008D0B36ADBB24BB301200DF10701FFF7A0
:103F84003BFF33E021682E481CF055F823689DF868
:103F94000720C2B902AE04F12007324620686168E6
:103FA400083403C2BC421646F7D1099AB5B3C2F32A
:103FB400080121B96FEA52226FEA42220992184697
:103FC40002A9FFF705FE0AB0BDE8F081B36A13F455
:103FD4007F4F05D001200DF10701FFF7B1FE05E089
:103FE400B36AB3F5803FA0D3FFF756FE0346CEE78E
:103FF40000200DF10701C2E700200DF10701ECE7F5
:10400400104890E7104B17F4F87F1049104818BF78
:104014001946A6F110021CF00EF886E722F4FF728E
:1040240022F00102CAE700BF00ED00E05E190600BD
:104034008A190600A2190600C4190600D31906003D
:10404400F3190600101A0600451906003019060077
:10405400351A0600064B5A6942F010025A615A6931
:1040640042F480625A615A6922F008025A61704728
:1040740000ED00E0EFF30880EFF3098101B572462B
:10408400FFF718FF01BD00BF0D4880F3088800202A
:104094000C49087003F036FC202080F311880A488C
:1040A4004FF40061401880F30988EFF31480022173
:1040B400084380F31488BFF36F8F00F0B7F8000053
:1040C400D80C012014DF002098F30020084B9B68D3
:1040D40083420BD1EFF3058343B1064B5A6842F098
:1040E40080525A605A6A22F400425A621AF044BD5D
:1040F40030DC002000ED00E016498A684FF0300003
:104104001044EFF3098C80E8F01F202080F312881C
:10411400BFF36F8F104F4FF000664A698A603E60AC
:10412400D2F8B4000D4C2060D2F8B8000023C2F8D5
:10413400B83080F3118802F1300090E8F01F8CF35E
:10414400098802F1000004B51DF068F9BDE80440D7
:104154007047000030DC002004ED00E024910020D2
:104164001EF0040F0CBFEFF30880EFF309808169A0
:1041740011F8021C0229FFD001B572461DF03FF967
:1041840001BD00BF40B2002807DB01234109034AF7
:1041940000F01F00834042F82130704700E100E046
:1041A40040B200280CDB01220649430900F01F003D
:1041B4008240203341F82320BFF34F8FBFF36F8F2A
:1041C400704700BF00E100E0054B420953F822208C
:1041D400012300F01F0003FA00F01040704700BFF5
:1041E40000E100E040B2002801F10101ACBF00F1A0
:1041F4006040064B4FEA4111C9B2ABBF00F56140C4
:1042040000F00F0080F800131954704714ED00E01B
:10421400044B054A23F07F039360BFF34F8FBFF332
:104224006F8F70470000000000ED00E008B5FFF755
:10423400EFFF0B4AD2F8883023F47003C2F88830B9
:10424400EFF3148323F0040383F31488BFF36F8F15
:10425400FFF796FCFFF7A0FC00F048F819F04AFCC1
:1042640000ED00E042F8203C009B0B4942F81C3C66
:10427400019B21F0010142F8183C029B42F8081C02
:1042840042F8143C4FF0807342F8043C0023203A77
:104294000265C0F8B83070478D18000000B50E4BA9
:1042A40015469860D0F8B4200C4B0E461A60D0F82E
:1042B400A43083F30B882C4686F309880020044B32
:1042C40098472046002100220023024C204700008A
:1042D400311402008D18000030DC002024910020ED
:1042E4001022014B1A61704700ED00E000232021E9
:1042F4000348C2180133452B82F80013F9D17047E3
:1043040000E100E008B5EFF30583064A103B02EB39
:10431400C30152F8330049688847BDE80840FFF7F5
:10432400ABBC00BF949C03001FB5094C094A23464B
:104334000121094800F0FAF800230393074B0121F7
:10434400E41A01A80193029400F0FAF804B010BD35
:10435400000007200000002020A203009004002099
:1043640010B50C7A0B6804F01F0223F01F031A43E4
:10437400CB68640923F01F03054943EA440343F06F
:104384000103C1F89800C1F89C20C1F8A03010BD09
:1043940000ED00E010B5074BD3F89030C3F30723CA
:1043A400013B984202D8FFF7DBFF10BD6FF0150008
:1043B400FBE700BF00ED00E02DE9F04F0F46144687
:1043C40006464FF000084D4D85B0B84580F2928006
:1043D400D6F80490B9F1000F36D0B9F11F0F40F2AE
:1043E400878019F01F0F40F08380D6F800A01AF0E0
:1043F4001F0F7DD150461DF055F8834609EB0A0086
:1044040001381DF04FF8834572D11BF1160F6FD0A0
:104414005C456DDDC5F898B0D5F89C10C5F898B02A
:10442400D5F8A03021F01F0143F01F0AD6E900326D
:104434001A44994202F1FF391ED1CA4508D13146C6
:104444005FFA8BF01DF037F808F101080C36BCE771
:104454003146C5F898B0D5F89C3022F01F0203F01D
:104464001F031343C5F89C30E0B21DF024F810F18B
:10447400160F3DD0441CE7E7C5F898B0D5F8A02046
:10448400013B23F01F0302F01F021343CA453146C8
:10449400E0B2C5F8A030E8D01DF00DF810F1160F09
:1044A40026D0C5F898B0D5F89C209DF808300AF1BC
:1044B400FF3A62F304038DF80830D5F8A0309DF874
:1044C40008205B0863F347128DF80820D6E9003210
:1044D4001344009323F01F035344A3EB0903013057
:1044E40023F01F036946C0B20393FFF753FFBEE7EF
:1044F4006FF01504204605B0BDE8F08F00ED00E034
:104504000522044BC3F89420BFF34F8FBFF36F8F82
:10451400704700BF00ED00E0BFF35F8F0022024B45
:10452400C3F89420704700BF00ED00E010B5034CC1
:104534002278FFF741FF207010BD00BFD8DE0020B5
:104544002DE9F74F294D8A4606464FF00008AB4641
:10455400274FD0451BDAD6F80490B9F1000F3FD0AD
:104564003168084601911CF09DFF0199044609EB4E
:10457400010001381CF096FF84424FF014021D4BD9
:1045840008D002FB08F36FF015024BF8032003B0C8
:10459400BDE8F08F14F1160F2C60F8D01978A14201
:1045A400F5DD02FB08B0C7F89840C7F89840D7F883
:1045B4009C4000F10801007B64F304000871D7F803
:1045C400A0000C79400860F347140C71D7F89C10D4
:1045D40021F01F016960D7F8A01021F01F012961A3
:1045E40008F1010814350C36B3E700BF2891002008
:1045F40000ED00E0D8DE0020F0B54B494B4CD1F87B
:1046040090302568C3F307239D4287B000F2888069
:104614000020FFF781FF464BC1F8C030854216D118
:10462400444C01A82570FDF76DFA00250646424F5B
:10463400AE4213D1002023783B49D1F89020C2F335
:104644000722934266DBFFF75BFF002042E06168CC
:1046540001EB0011FFF784FE0130DFE70199280127
:1046640001EB0513DA683A40B2F5800F41D007D860
:10467400B2F5801F14D0B2F5001F2DD00135D7E755
:10468400B2F1006FFAD15A689B680958013B22F0D5
:104694001F0003444FF0030C012023F01F030AE022
:1046A4005A689B680958013B22F01F00034401200B
:1046B400844623F01F0340EA4C10CDE902218DF813
:1046C400100002A920780593FFF764FE00281DDA84
:1046D4006FF0150007B0F0BD5A689B680958013B9C
:1046E40022F01F0003444FF0020C012023F01F03AB
:1046F400E1E75A689B680958013B22F01F00034414
:104704004FF0000C062023F01F03D4E72378013375
:104714002370B3E7C1F89830C1F8A00001338CE7E7
:104724004FF0FF30D6E700BF00ED00E02CA20300FD
:10473400AAFF4400D8DE00200000F0FFF0B587B0E7
:1047440007460E4614460021102268461D4635F0E1
:10475400E8F802238DF80230054B2A4621466846C4
:10476400CDE9047601931AF0BFFE07B0F0BD00BF97
:10477400ED14020008B5024B1B689847002008BDE1
:104784003C910020034B044A1860937843F00203E1
:10479400937070473C9100206001002008B50649E1
:1047A400064821F00701C1F1005202F5E0221BF096
:1047B400E8FB002008BD00BF279E01204091002097
:1047C400054B03EB8000D0F8003223F0E04343F0C4
:1047D4004053C0F80032704700258450052370B55B
:1047E400144D154E2C780134B4FBF3F303EB83031F
:1047F400E41A1DF066FD114A137823B156F82430EB
:10480400C01A072814D94FF05023D3F8141141B11A
:104814000021C3F81411D3F814312C700CB90123FE
:1048240013702C781DF04DFD46F82400012070BD56
:104834000020FCE7DADE00204C910020D9DE0020C5
:10484400012208B50B4B0C49C3F8002502230020B4
:10485400C1F8D036FFF7B4FF1046FFF7B1FFC1F837
:104864000427C1F80429C1F8002BBDE8084000F072
:10487400A5B800BF001000500040005007B50DF16E
:10488400070003F063F90F4B984218D14FF480628C
:104894000D4B0E49C3F8B8254FF40062C3F83C250C
:1048A4009DF807001DF019FD9DF8070008491DF04B
:1048B4000FFD01209DF80730984003F041F903B043
:1048C4005DF804FB0000AD0B00A002502CA00250C8
:1048D40028A1025048B1054B054A1B68B3FBF2F30B
:1048E4005843044B43F0010318477047FC01002070
:1048F40040420F0010A10300002170B5104C114D6F
:10490400114E000714F8013B03F01F025B090FD09E
:10491400012B0FD1334603EB8203D3F8002201317C
:1049240022F0E04202430429C3F80022EAD170BD18
:104934002B46F0E70023803253F82230FFDE00BF1D
:104944005C1A060000258450002884502DE9F041AB
:10495400064601200D46FFF7CFFF4FF47F03D3F83F
:104964003021D3F83431072A20D1023B032B02D85B
:10497400114AD35CD3B14FF050244FF00108002703
:104984000520C4F81886C4F814761DF09FFC404630
:10499400C4F814861DF09AFCC4F81476C4F818768A
:1049A40030462B46BDE8F041002118474FF0502314
:1049B4000022C3F81426F3E7581A060001490248F6
:1049C4001BF0B0BB54A2030060910020BFF34F8FD3
:1049D4000549064BCA6802F4E0621343CB60BFF397
:1049E4004F8F00BFFDE700BF00ED00E00400FA05B3
:1049F4002DE9F74305460C461A4EDFF86C801B4F31
:104A040014B903B0BDE8F083EFF31189202383F3D5
:104A14001288BFF36F8F1DF054FC1549D1E90032A1
:104A2400C31842F1000008FB03F206FB0022A3FBBB
:104A34000630DB1942EB0002C1E9003289F3118828
:104A4400BFF36F8F042CA14628BF4FF004092846FA
:104A5400019201A94A4634F03DFF4D44A4EB0904F8
:104A6400CEE700BFFDB0B087E62EBB272DF304B51B
:104A7400B00000207FB50D4D0D4E4FF0FF324FF0CA
:104A8400FF33284601A919F067F90028F5D1094C2C
:104A9400B442F2D2236813B1019A934203D1D4E908
:104AA400013101A898470C34F2E700BF68030020E5
:104AB40064A0030058A00300F0B517461E4685B055
:104AC40001909DF82800DDE90C5423462C432A4626
:104AD4008DF808008DF80910ADF80A7003960AD015
:104AE40034F0C8FF0849D1F8C040084909588C423D
:104AF40004BF00221346064801A934F06BFB00EA08
:104B0400E07005B0F0BD00BFB88B002008000000C5
:104B140068030020020600F07F0312D5082B05D19C
:104B2400010700F00F0306D50E48704710F0780F08
:104B340012D100F00F034C2000EB43100A4B184431
:104B44007047082B05D1020700F00F0306D507486C
:104B5400704710F0780FF6D000207047044800EB3F
:104B640043107047C89200207C910020E8930020F5
:104B7400E89200200149024834F035BCA491002099
:104B8400B00700200146014834F0BBBBC803002035
:104B940000220023014819F00BBA00BFC80300200B
:104BA40013B5002201213720FFF71CFB114800F048
:104BB400EBFD114B98421AD10024104803F0FCFC81
:104BC4000F4804F0B7F84FF0FF334FF480620D49FB
:104BD4000D48009419F0D0FB0C490B4819F06AFCFD
:104BE4000B480C4934F0E3FB204602B010BD6FF0D3
:104BF4000400FAE7F94D00000000AD0B741A06003A
:104C040060A2030098EF0020B0070020661A060097
:104C1400A4910020154F0000002310B50B49D1E8E2
:104C2400EF2F012A03D1C1E8E03F0028F7D10CD1CE
:104C340051F8044C143920461BF002FB783004D19F
:104C44002046BDE810401BF0D7BA10BD9C9100204F
:104C540038B5002464F07F00C0B2FFF75BFF013475
:104C64001CF05EFC082CF5D100240E4DE0B2FFF7D9
:104C740051FF036903B9056101341CF051FC082C90
:104C840005F14005F2D108481CF04AFC074BD3F863
:104C94007C2212B9064AC3F87C2206481CF040FC68
:104CA400002038BD0C980020C89200207C91002080
:104CB4000C940020E893002010B5054CFFF768FF22
:104CC40020B14168204634F035FAF7E710BD00BF43
:104CD4001003002007B5002300220E4801A918F094
:104CE400A3FF90B1FFF7E8FF00220023094801A9C0
:104CF40018F09AFF38B90423019840600374FFF751
:104D040041FFFFF737FF002001E00198406003B046
:104D14005DF804FB10030020022810B511D8094BDC
:104D24001C5CFFF7D7FF60B1002204720274FFF726
:104D340029FF054B93F824301BB1BDE81040FFF761
:104D440019BF10BD711A06007C910020F8B5877850
:104D540006463846FFF7DEFE3B060446F57812D5D4
:104D6400002D43D1FFF7B6FF034600283ED00122B1
:104D7400A5770274032202739C60FFF703FFBDE86A
:104D8400F840FFF7F7BE4DB1012D2FD1FFF7A2FF79
:104D9400034658B3657705740573EDE7FFF79AFF8B
:104DA40020B3B278124B12F0800F02F0080111D038
:104DB40041B1D3F8A836E36001230374022384606D
:104DC4000373DAE7142102F00F0201FB0233D3F874
:104DD4000836F0E711B1D3F8A837ECE7142102F054
:104DE4000F0201FB0233D3F80837E4E7F8BD00BF34
:104DF40000600350F0B5064689B01422002103A8D0
:104E040034F08FFD3378013B052B21D8DFE803F024
:104E14007A0314146A16032300248DF81430FFF760
:104E240059FF0346A0B100F108020474DDE905014D
:104E340082E8030018461DE00423EDE7B7783846FE
:104E4400FFF768FE837A044623B1013B022B43D962
:104E540009B0F0BD3B06F57813D5002DF8D1FFF766
:104E640039FF03460028F3D00122A57702740322F8
:104E740002739C60FFF786FE09B0BDE8F040FFF7BF
:104E840079BE55B1012DE3D1FFF724FF0346002875
:104E9400DED0657705740573EBE7FFF71BFF074664
:104EA4000028D5D00123037402238460037304F122
:104EB4000C01B0781CF095FB134AE168B2F88C320F
:104EC4008B4206D95B1AA2F88C3200F0A9FF38464F
:104ED400D0E7A2F88C52FAE7304609B0BDE8F040BA
:104EE400FFF734BF01A800F079FF9DF80530052BCA
:104EF40004D19DF8043013F0600FA9D0034B0124B2
:104F040005938CE702248AE77C910020E892002034
:104F14002DE9F0438046AC4CDFF8B09285B0FFF742
:104F240037FE074610B905B0BDE8F08394F8253084
:104F34003A7C3BB9002A00F087807968A34834F0B2
:104F4400F9F8ECE7042A43D8DFE812F07E00050004
:104F5400FD0013012E013B7BBD68032B38D8DFE82D
:104F640003F0023E5B6000226E69994B326072600E
:104F7400D3F880143170D3F884147170D3F8881482
:104F8400D3F88C0441EA00217180D3F89014D3F84B
:104F9400940441EA0021B180D3F89814D3F89C34E6
:104FA40041EA0323F3800823EB6030687168894B7E
:104FB40003C311462B68687A984796F90030002B92
:104FC40009DBF3889AB232B1A4F88C3200F028FFDE
:104FD40048467968B3E70023A4F88C32F8E76B7F7E
:104FE400002BF5D02B7F002BF2D000264FF0FF32A0
:104FF4006E774FF0FF3378482E771CF0A4FA6B6974
:1050040001A901936B68CDE90236687A00F012FCBD
:1050140071481CF09AFADBE701212B68687A9847FB
:10502400D6E7AB7A6BB9EB7F5BB96B484FF0FF32D5
:105034004FF0FF331CF087FA00F0F8FE66481CF0CE
:1050440084FA02212B68E9E73A7A042AC0D8DFE817
:1050540002F055031F636F0000F056FB054600285D
:10506400B6D100F003FB01235C49D1E8EF2F002AFD
:1050740003D1C1E8E03F0028F7D1A9D141F8085C89
:1050840041F8105CE069143963611BF05EF89FE736
:10509400002565F07F00C0B2FFF73CFD037A13B131
:1050A400407A01F025F80135082DF2D194F85431F5
:1050B4001BB194F8550101F01BF80025E8B2FFF785
:1050C40029FD037A13B1407A01F012F80135082D55
:1050D400F4D194F874321BB194F8750201F008F815
:1050E400002000F0F5FA012384F825302368002B12
:1050F4003FF46EAF00210220984769E7002584F849
:10510400255000F05DFFFFF787FD2368002B3FF477
:105114005FAF29460420EFE7002B3FF459AF00F0BE
:10512400FDFA2368002B3FF453AF00210520E3E789
:105134002268002A3FF44CAF002B3FF449AF002112
:105144000620904744E708F110054FF0FF334FF075
:10515400FF3228461CF0F7F9FFF77AFD28461CF0C9
:10516400F4F958F8283C002B3FF432AF0021012019
:10517400C2E794F874327BB1012584F8895284F82B
:105184008852FFF7A7FD38B1154A0574057382608C
:10519400FFF7F8FCFFF7EEFC58F8283C002B3FF42F
:1051A40017AF00210A20A7E703F0ACFD00F008FFC9
:1051B40000F052FAFFF780FDFFF74AFD03F09AFD75
:1051C400084800F0E1FA03E77C9100201003002076
:1051D4000060035080910020B49100209C91002035
:1051E400E8930020F94D000038B5154D95F824409A
:1051F40024BB05F1380033F0FCFF022001F0DCF899
:1052040022460121E8613620FEF7ECFF03F072FD2F
:10521400FFF71EFD044610B9012385F82430094B1D
:105224001B680BB1FFF7A6FC074BD3F80034DB0770
:1052340002D50020FFF770FD204638BD0024FBE7AF
:105244007C910020C803002000700350074B93F8A2
:1052540024203AB193F82530002B14BF00206FF0BE
:10526400120070476FF01200704700BF7C9100205D
:1052740038B5104B044693F82430C3B1057828465A
:10528400FFF748FC10B96FF0150038BD457223795B
:105294008372638843602078618810F0080F02D11C
:1052A4004B1E0B42EFD11CF097F90020EDE76FF095
:1052B4001200EAE77C91002038B5124B054693F8BA
:1052C4002420CAB193F82530B3B1FFF723FC044678
:1052D400A8B1837A012B12D007D9023B012B07D93D
:1052E40000206369E060A36138BD00F0A5FDF7E725
:1052F400284600F047FDF3E76FF01200F4E76FF083
:105304001500F1E77C91002038B50E4B054693F863
:10531400242082B193F825306BB1FFF7FBFB68B111
:1053240015F008040AD1284600F04EFD284600F086
:1053340017FF204638BD6FF01200FBE76FF0150031
:10534400F8E700BF7C91002038B50C4B054693F874
:1053540024200C4662B193F825304BB1FFF7DAFBF9
:1053640048B144B1284600F015FD2070002038BD36
:105374006FF01200FBE76FF01500F8E77C91002056
:1053840070B5134E044696F82430C3B1FFF7C2FB40
:105394000546B8B1230705D4204600F015FD204684
:1053A40000F0DEFE2B7A83B901232B7296F82530A8
:1053B4000BB9002070BD204600F09AFEF9E76FF0AB
:1053C4001200F7E76FF01500F4E76FF07700F1E7EC
:1053D4007C9100202DE9F043DFF8E4801E4698F824
:1053E400243007468946154685B0002B61D098F8CD
:1053F4002530002B5DD003065ED5FFF78BFB0446FA
:10540400002859D0037A002B56D04FF0FF334FF0C9
:10541400FF3208F138001CF096F8A37F4BB108F175
:1054240038001CF092F86FF00A04204605B0BDE87D
:10543400F083A37AC5B13BB301234FF00008A377EF
:10544400384601A9CDE90195CDF80C8000F0F2F9B8
:105454001C4B984229D084F81E801EBB6FF00404B4
:1054640019481CF072F8E0E7E27F02B1E577002BFF
:10547400E2D100F0E7FC8742DED000F0D7FC12480E
:105484001CF063F80024D0E7B8F80A30AB42F0D936
:105494006268B5FBF2F302FB1353002BE9D101233D
:1054A400E377E6E7C6F80080D8E706B13560002464
:1054B400D6E76FF01204B8E76FF01504B5E700BF44
:1054C4007C9100200000AD0BB49100202DE9F04147
:1054D4001D46204B174693F824200E46002A33D04D
:1054E40093F8253083B3030631D401B97FBBFFF7AA
:1054F40011FB044658B3037A4BB34FF0FF334FF01C
:10550400FF3215481CF01FF8E368BB42984628BFD9
:10551400B84646B93FB905B12B600F481CF015F8E1
:105524000020BDE8F08142463046A16934F0D2F94A
:10553400A3694344A361E368A3EB0803E360002D7C
:10554400EBD0C5F80080E8E76FF01200E9E76FF0F0
:105554001500E6E77C910020B491002070B51E4D43
:10556400034695F8242082B395F825206AB31B06D8
:105574002ED4FFF7CFFA044650B3037A43B34FF067
:10558400FF334FF0FF3205F138001BF0DCFFE36816
:10559400B3B9012663692677A361637F83B1FFF7FB
:1055A40099FB30B905F138001BF0CFFF6FF00B0009
:1055B40070BD067484600673FFF7E4FAFFF7DAFA45
:1055C40006481BF0C2FF0020F2E76FF01200EFE77D
:1055D4006FF01500ECE700BF7C910020B49100202F
:1055E40010B5084B0C4693F824302BB1FFF792FA10
:1055F40028B10460002010BD6FF01200FBE76FF0CB
:105604001500F8E77C910020014B1860704700BF3B
:105614007C91002008B5074B93F8243023B1FFF7A1
:1056240079FA20B1406808BD6FF01200FBE76FF013
:105634001500F8E77C910020064B10F0800FA3F1D1
:10564400D80208BF1346182200F00F0002FB0030F6
:10565400704700BF249B00200023024A1360024AC3
:1056640013707047049C0020DFDE00204FF40062BA
:10567400114BC3F800240122C3F80025D3F80024F9
:105684001205FBD54FF40062C3F800248022C3F84E
:105694001C250122C3F8302540F2FF12074B1A6083
:1056A4000023074A1360074A1370074A1370022243
:1056B400064B1A70704700BF00600350009C002026
:1056C400FC9B0020DBDE0020DDDE0020DFDE00208E
:1056D4000022094B10B51A70084A094B094C0028DE
:1056E40008BF13463620C4F80033FEF74BFD0123F0
:1056F400C4F8043510BD00BFDEDE0020FDFFDF016D
:10570400FDFFFF0100600350034B1878012894BF8C
:1057140000200120704700BFDFDE002010B54FF0ED
:10572400FF324FF0FF33154818F0A8FCEFF3118156
:10573400202383F31288BFF36F8F114B1B7803F080
:10574400FF0483B10F4BD3F8002412F400720AD182
:105754000120C3F82C05D3F82C05D3F800048005E8
:1057640002D5C3F82C25002481F31188BFF36F8F71
:10577400024818F04FFC204610BD00BFB8030020BB
:10578400DEDE002000600350F8B51C4B1C7894BB8F
:105794001B4A40F2FF171060012226461A7064F07B
:1057A4007F0514F0080FEDB214BF39464021284696
:1057B4001BF012FF2846FFF73FFF0134092C8675C2
:1057C40006730661EBD1002440F2FF17254614F05E
:1057D400080FE6B214BF3946402130461BF0FCFEE8
:1057E4003046FFF729FF0134092C857505730561DF
:1057F400EDD10448F8BD0448FCE700BFDFDE00201B
:10580400049C00200000AD0B0500AD0B084B10F00C
:10581400800F14BFD3F81025D3F81425012300F00A
:105824000F018B40134214BF01200020704700BFBA
:105834000060035002462DE9F843EFF3118720235B
:1058440083F31288BFF36F8F030703D1194B1B78BF
:1058540083422AD1184B10461C684FF00109E443D7
:105864001BF0B2FE154EA4B2356809FA00F82C43B9
:1058740014EA08041BD11046FFF7DEFE034680F845
:105884000C9007C983E807004FF480021C619C75E3
:105894000B4B45EA08050B483560C3F8042187F330
:1058A4001188BFF36F8FBDE8F8830748F7E707480F
:1058B400F5E700BFDDDE0020009C0020FC9B0020FB
:1058C40000E100E00000AD0B0A00AD0B0B00AD0BD6
:1058D40010F0080F074B06D0D3F8C00410F4803F33
:1058E40018BF0020704700F00F0000F5947053F8C3
:1058F40020007047006003502DE9F04FAB4BAC4FD4
:10590400D3F8542185B0DAB10022C3F85421D3F876
:105914000413890214D58DF80C20D3F8202503A88C
:10592400ADF80E20D3F8C034002B14BF4FF0012281
:105934004FF480723B6813433B609E4B1B6898474F
:105944009A4BD3F8604134B10022C3F86021D3F8F4
:105954006C44C3F86C44D3F828214AB10022C3F83C
:105964002821954B18781BF02FFE012383401C43FC
:10597400DFF84882924E98F8005098F9009015F09C
:10598400080141D1B9F1000F05F00F032CDA8D4A5B
:1059940052F8230010B342F823101422534303F1A6
:1059A400A04303F55833D3F80836874A03F00103BC
:1059B40011784B401370854818F02CFB2846FFF7EC
:1059C4003BFE837D032B37D128461BF0FDFD0123CD
:1059D40003FA00F0336823EA0003336001254FF033
:1059E4000609DFF8D0A15DE0794A52F823000028C7
:1059F400F4D042F823101422534303F1A04303F5D7
:105A04005833D3F80837D0E7B9F1000F674B09DBF7
:105A1400D3F85021002AE1D00022C3F85021D3F852
:105A2400A837C2E7D3F82C21002AD7D00022C3F824
:105A34002C21D3F8A836B8E7037BDBB928461BF042
:105A4400C3FD012303FA00F03368B9F1000F23EA20
:105A54000003336001DA882DC0D106238DF80C30A1
:105A640000238DF80F30534B8DF80E501B6803A89C
:105A74009847B3E7002DB1D101224C4BDA64ADE76E
:105A840094FAA4F0B0FA80F03A6805FA00F31A43E5
:105A94000F283A6024EA0304326840F39D801342DD
:105AA40000F0AA80002CEBD1404BD3F800215AB16E
:105AB400C3F80041474B03A81C703F4B1C700123E3
:105AC40003933C4B1B689847384BD3F85821002A62
:105AD4002ED00022C3F85821D3F80044C3F8004460
