:020000040800F2
:20000000002000207525000805250008072500080000000000000000000000000000000098
:200020000000000000000000000000000925000800000000000000000B2500080D25000818
:20004000C525000800000000C5250008C5250008C5250008C5250008C5250008C525000802
:2000600000000000C5250008C5250008C5250008C5250008C5250008C525000800000000D4
:20008000C5250008C525000800000000C5250008C5250008C5250008C5250008C5250008C2
:2000A000C5250008C5250008C5250008C5250008C525000800000000000000000000000086
:2000C00010B5064C2378002B07D1054B002B02D0044800E000BF0123237010BD040000208B
:2000E0000000000034260008044B10B5002B03D00349044800E000BF10BDC0460000000082
:200100000800002034260008002243088B4274D303098B425FD3030A8B4244D3030B8B42FD
:2001200028D3030C8B420DD3FF22090212BA030C8B4202D31212090265D0030B8B4219D334
:2001400000E0090AC30B8B4201D3CB03C01A5241830B8B4201D38B03C01A5241430B8B42BD
:2001600001D34B03C01A5241030B8B4201D30B03C01A5241C30A8B4201D3CB02C01A52411E
:20018000830A8B4201D38B02C01A5241430A8B4201D34B02C01A5241030A8B4201D30B02D4
:2001A000C01A5241CDD2C3098B4201D3CB01C01A524183098B4201D38B01C01A524143091B
:2001C0008B4201D34B01C01A524103098B4201D30B01C01A5241C3088B4201D3CB00C01A8E
:2001E000524183088B4201D38B00C01A524143088B4201D34B00C01A5241411A00D2014630
:20020000524110467047FFE701B5002000F0F0F802BDC0460029F7D076E7704703460B434A
:200220007FD4002243088B4274D303098B425FD3030A8B4244D3030B8B4228D3030C8B423C
:200240000DD3FF22090212BA030C8B4202D31212090265D0030B8B4219D300E0090AC30B29
:200260008B4201D3CB03C01A5241830B8B4201D38B03C01A5241430B8B4201D34B03C01A61
:200280005241030B8B4201D30B03C01A5241C30A8B4201D3CB02C01A5241830A8B4201D3CB
:2002A0008B02C01A5241430A8B4201D34B02C01A5241030A8B4201D30B02C01A5241CDD2D5
:2002C000C3098B4201D3CB01C01A524183098B4201D38B01C01A524143098B4201D34B0119
:2002E000C01A524103098B4201D30B01C01A5241C3088B4201D3CB00C01A524183088B426F
:2003000001D38B00C01A524143088B4201D34B00C01A5241411A00D2014652411046704759
:200320005DE0CA0F00D04942031000D34042534000229C4603098B422DD3030A8B4212D3B5
:20034000FC22890112BA030A8B420CD3890192118B4208D3890192118B4204D389013AD036
:20036000921100E08909C3098B4201D3CB01C01A524183098B4201D38B01C01A5241430950
:200380008B4201D34B01C01A524103098B4201D30B01C01A5241C3088B4201D3CB00C01ACC
:2003A000524183088B4201D38B00C01A5241D9D243088B4201D34B00C01A5241411A00D20A
:2003C0000146634652415B10104601D34042002B00D54942704763465B1000D3404201B522
:2003E000002000F005F802BD0029F8D016E770477047C04670B500220C4B04000D0000F030
:2004000075FE002804D12000290000F0CBFD70BD064B00222000290000F07CFA00F0C2FD6D
:2004200080231B069C466044F1E7C0460000E041F0B55746DE464E464546E0B5834606008A
:200440000F03480087B092461D003F0B400DCC0F002800D16FE0DE4B984238D08023FF00AF
:200460001B041F43730F3B430193DA4B0027994600239B46F60081442B0369001B0B524628
:200480009846490DED0F002900D185E0D04B994200D173E04346DA0080231B0413435246A0
:2004A000CC48520F84461343524600206144D20089442100694000918C46012149448A46FF
:2004C0000F2F00D990E0C449BF00CF59BF465B463B43019300D06AE102230827002681468D
:2004E0009B46C9E732005846019B61460091022800D175E0032800D1FEE1012800D02CE196
:2005000000230027002600253F032A0D3F0BB34812053A4302401B051343009A5B00D1076F
:200520005B080B433000190007B03CBC90469946A246AB46F0BD5B463B43019300D12FE143
:20054000002F00D1A5E1380000F0DAFD03000B3B1C2B00DD96E11D22D31A5A460100DA404B
:200560005E4608398F4013008E403B4301939C4B00271B1A994600239B467DE7414653462A
:200580000B4393498C46E144002B00D01AE102220220174300228CE7134300D10DE1434671
:2005A000002B00D181E1404600F0AAFD02000B3A1C2A00DD72E10100434608398B4098468F
:2005C0001D239A1A5346D3401A004346134352468A404946081A824989468144002068E7A1
:2005E0007B4B002700268EE7140C1204120C1100370C3604350C794328008C462E006043C9
:200600006044834656432100300C80465846794340440291844506D98846802149028C460C
:20062000E044414602913604010C360C00048B4681191E0C1B041B0C0391190079438C46D9
:20064000280075436544A8465843050C45447743A94203D9802149028C466744290C8C46FD
:2006600039000004000C2D042D186144AB4405915946049101990F043F0C080C3900514384
:200680004243904602008C46090C8B4662437C4344445C44A04503D98021490288464244B8
:2006A000210C884661460904090C8C4639005943434370437E430F0CF6182404BE19644405
:2006C00042448C46B34203D980235B0298464044029B61469846049B370443449B46AB453B
:2006E000AD416B420D0405992D0C8C467F196744FD18A8465D462D19A542A441934664422B
:20070000A446C344DC448F42BF4198459B4193459241A445A4415B427F421F43360C52422F
:200720006442BF192243BF18624638184302D20D039913436A020A43501E82416146ED0D66
:200740002A434E023243D90100D4B3E00126500832400243DE0732435B08224C5444002C01
:2007600062DD510709D00F201040042805D0101D9042924152429B180200D90104D5802417
:200780001948E400034054441848844200DD27E75E075B02D2081F0B630516435B0DB2E6A1
:2007A000002399460133042700269B4664E60323019781460C279B465EE60122012017430C
:2007C000002276E6032303201F43434671E6C046FF07000001FCFFFF84260008FFFF0F80CA
:2007E0000DFCFFFFFF030000FFFFFFFEFE0700000023802700933F030026434B83E6019B98
:200800003200A446584670E6AC466EE6802701993F0339422DD03B422BD11F433F033F0B20
:2008200000951600384B6EE601252D1B382D00DD66E61F2D40DC35481C00504416008240CD
:200840008440EE40501E824134431443EB40620709D00F222240042A05D02200141D94427B
:20086000804140421B181A023ED501230027002649E68027019B3F031F433F033F0B00942C
:20088000214B40E603005A46283B9A40002601926DE6584600F034FC203057E603005246F4
:2008A000283B9A401300002293E6504600F028FC20307BE6CA4650E71F201E004042041BAD
:2008C000E640202D03D0124C5444A3401A43501E8241324307260027164009D00F20002321
:2008E000104014000428B9D122005E075B021F0BD2081643002306E680273F031F433F0301
:200900003F0B1600004BFEE5FF0700001E0400003E040000F8B557464E464546DE460C0046
:200920000903E0B5490A460F5F0031431E03DB0F760A9B46530F3343C84E6500C000E40F29
:20094000D2006D0DA24681467F0D9C469046B74200D1B9E05B46012673409B46EE1BA345A8
:2009600000D183E0002E63DD002F00D0B1E06346134300D123E1731E002B00D0BAE1861AAA
:200980006346B04280410125C91A4042091A0B0200D447E149024B0A98464346002B00D141
:2009A00089E1404600F0ACFB0300083B1F2B00DD7CE120223000D21A4146D0409940020016
:2009C0009E400A439D4200DD6AE15D1B6B1C1F2B00DD94E1202110003500C91A8E40DA40F9
:2009E0008840DD40711E8E41110007222843002506433240002A09D00F233340042B05D083
:200A0000331DB342B641764289191E000B0200D43DE26A1C914B55056D0D9A4200D119E145
:200A20008F4AF6080A40570752023743120B9BE0002E00D0C5E06E1C7605760D012E00DC9B
:200A400048E16746861ACB1BB042BF417F42B8461F004346FF1A3B00B8461B0200D55FE15D
:200A600037439AD100220024002579E0002E00DCFAE0002F00D18DE0784B9D4267D0802300
:200A800067461B041F43BC46382E00DC52E1634613435A1E93411E18864280414042091804
:200AA0000B0200D4BEE06D4B01359D4200D1D2E06B4A73080A4001210E401E435108D307E9
:200AC00007221E43324095E71E00164300D045E740E7624B9D423AD0802367461B041F439D
:200AE000BC46382E00DDEBE01F2E00DC3AE133006746203BDF403B00202E05D04027BF1BA9
:200B00006646BE40324390464646721E96413343DAE0002B00D114E26346134300D168E1B2
:200B200080234E07C008C9081B030643194208D06046C008184204D163460100D2085E0704
:200B40001643F3009946C900720F444D11434B46DE08424B4F073743CA089D4200D16EE097
:200B600012036D05120B6D0D00211203130B0A0D12051A433B4B2D0513402B435B00E407B9
:200B80005B082343380019003CBC90469946A246AB46F8BD6346134311D0731E002B00D094
:200BA00007E186188642804161444042091801250B0237D502257BE73E0061469146350025
:200BC000C5E75C46002D00D0E1E00B000343F3D0731C00D1ACE1214B9F4200D13AE1F34399
:200BE000382B00DD6FE11F2B00DD8CE120250E00ED1AAE40B0460600AA46DE40454635437C
:200C00002E005546D940A8406346451EA8415B1A9C463043161AB242924163465242991A64
:200C20003D00B4E607223240002A00D0E4E60B4BF6084F073743CA089D4200D090E73B0027
:200C4000134300D1A6E180231B031A431203120B024D89E715000022002785E7FF07000007
:200C6000FFFF7FFFFFFF0F80002E00D0C7E06B1C5E05760D012E00DCF0E0C84DAB4200D1AB
:200C8000B9E085180A00854289416244494251180722CE076D082E43490832401D00A9E696
:200CA000BF49ED1A114007223240A3E6320028388240002686E6300000F022FA203073E6E5
:200CC000634613435A1E9341C61AB04280414042091A5CE60E00674606431743002D5ED195
:200CE000002E00D0F3E0002F00D11EE15C46614691462CE7A94FBE427BD01E00F1E61000A9
:200D00001F3DE840202B03D04021CB1A9A401643731E9E410722064332400021002583E7B4
:200D2000161A6346B2428041591A40420B1A98465C4632E61F2E00DDABE02027BB1B9A46C1
:200D400063465746BB40994613004F46F3401F433B005746BA40571EBA4113436246F240C4
:200D6000891898E62027BB1B9A4663465746BB40994613004F46F3401F433B005746BA4028
:200D8000571EBA4113436246F240891A9CE7834B9F425FD080252D047342294320E7002E83
:200DA0000CD1002F00D1D0E05C46614691467B4DCDE67A4FBE421CD01E0065E6002F18D0D6
:200DC000C0084E0706438020C9080003014208D06346DC08044204D12100DA46D2085E07F6
:200DE0001643F300994601245346C900720F11431C406A4DABE61D0000220027B4E6002D9B
:200E000059D10B00034300D1D6E6731C00D1B2E0624B9F421ED0F343382B6FDC1F2B00DD51
:200E200097E020250E00ED1AAE40B0460600AA46DE40454635432E005546A840D940451EB9
:200E4000A8418C440643B61896429241514261443D0025E63D006146914678E60B0003432D
:200E6000002D00D055E6002BF5D06346134300D16DE6861886428041614440420918002296
:200E80000B0200D4D0E6464B01351940B2E5B1465DE633006746203BDF403B00202E05D012
:200EA0004027BF1B6646BE40324390464646721E96413343EFE5394B9F42CBD080252D04E9
:200EC00073422943A8E70843411E8841A2E6002F00D13CE66346861ACF1AB0429B415B42A8
:200EE000FB1A98461B024ED5161A6346B2429241591A5242891A5C4600227BE501430E00FF
:200F0000711E8E419FE71D000E00203DEE40B046202B04D04025EB1A99400843814648463F
:200F20004346411E8841184374E60022002417E6161A6346B2429241591A5242891A3D0081
:200F400025E561469146154D01E680220024120379E61D000E00203DEE40B046202B04D0BB
:200F60004025EB1A9940084381464E464346711E8E411E4367E7861896429B4161445B425E
:200F8000C9183D008CE547463743CED007224146324049E600273A00E6E5C046FF07000094
:200FA000FFFF7FFF30B5144D0A034B00120B5B0DC90F0024AB4211DD104CA34210DC8024EA
:200FC000640322430E4CE41A1F2C0CDD0D48C31ADA4013005C42002900D11C00200030BD99
:200FE000094BCC18FAE7094DE040AC4663449A4013000343EEE7C046FE0300001D04000099
:201000003304000013040000FFFFFF7FEDFBFFFF70B500282DD0C317C5185D40C40F280087
:2010200000F06EF8154B1B1A5B055B0D0A2815DD0B38854000222D032D0B002110002D03E6
:201040000A0D2D0B12052A430D4D1B052A4013435B00E4075B082343190070BD0200290003
:20106000153291400A000B21081AC5402D032D0BE3E70024002300250022DEE71E04000054
:20108000FFFF0F808446101C62468C46191C634600E0C0461FB500F0F1F8002801D40021C4
:2010A000C8421FBD10B500F049F84042013010BD10B500F0E3F8002801DB002010BD012032
:2010C00010BDC04610B500F0D9F8002801DD002010BD012010BDC04610B500F06BF8002890
:2010E00001DC002010BD012010BDC04610B500F061F8002801DA002010BD012010BDC04640
:201100001C2101231B04984201D3000C10391B0A984201D3000A08391B09984201D3000953
:20112000043902A2105C40187047C04604030202010101010000000000000000F0B54F4604
:201140004646D6468446C0B58046194E18030F034D00000B5C0082463F0B6D0DC90F91465F
:20116000640DDB0F0120B5420AD0B44203D0A54201D157450CD01CBC90469946A246F0BD06
:2011800066463E43F7D1AC42F5D154461443F2D10120C845EFD1994207D0002DEBD16346C0
:2011A0001F433800471EB841E5E70020E3E7C046FF070000F0B54F464646D6464D00C0B5D1
:2011C0000E03C90F8A462C491F035C008046360B6D0D91463F0B640DDB0F8D421ED08C42DB
:2011E00016D0002D1ED130438446002C01D13A4323D06246002A1AD09A4529D051460220F5
:201200000139084001381CBC90469946A246F0BD39001143E5D002204042F4E73043FAD1F2
:20122000AC420FD0002C0FD13A43E7D00CE00122013B934318000130E5E763460020002B77
:20124000E1D0DBE73A43E6D19A45D7D1A542D5DCA54205DBBE42D1D808D00020BE42D2D2BC
:2012600050460123013898430130CCE7C845C5D80020C845F4D3C6E7FF070000F0B54F4631
:201280004646D6464D00C0B50E03C90F8A462E491F035C008046360B6D0D91463F0B640D23
:2012A000DB0F8D4218D08C4211D0002D18D130438446002C1ED13A431CD163460020002B12
:2012C00030D0514602200139084001382AE039001143EAD0022025E03043FBD1AC4226D0FF
:2012E000002C26D13A4324D15146022001390840013817E06246002A0FD09A45E1D1A542C5
:2013000005DBBE42DDD819D00020BE420AD25046012301389843013004E00122013B93433B
:20132000180001301CBC90469946A246F0BD3A43D0D19A45C5D1A542C3DCE0E7C845C0D8BD
:201340000020C845E3D3EDE7FF0700000023C25C0133002AFBD1581E704710B5040000F07F
:2013600067FCFA218900FEF7CFFE00F069F8012000222100404200F033F8002010BD000065
:2013800010B5064A136810210B4313600020FFF7E4FF01F06BF8002010BDC0460020024029
:2013A000024A1368013313607047C04620000020014B18687047C0462000002030B583B0E1
:2013C0000190FFF7F5FF0500019C631C00D00134FFF7EEFF401BA042FAD303B030BD0000DF
:2013E00070B5002811DB8408134DC034A400625903231840C000FC331E008640B2438901A5
:201400000B4083401343635170BDC0B20F220240083A920806329200084BD3185D680324D2
:201420002040C000FF2214008440A54389010A4082402A435A60E7E700E100E000ED00E092
:2014400001380A4B98420FD8094A50600948036A1B021B0AC02109060B4303620023936081
:2014600007331360002070470120FCE7FFFFFF0010E000E000ED00E0F0B5C64600B582B0B2
:20148000002338E0032600E00026AE4035003D430234A400554EA551554C25684246D443FF
:2014A0002E0026404A68D20302D5424615432E004F4D2E606D682E0026404A68920302D57B
:2014C000424615432E004A4D6E60AD682E0026404A68D20202D5424615432E00444DAE60E6
:2014E000ED682C404A68920202D542462A4314003F4AD46001330A681400DC4071D001250B
:201500009D402A409046F5D04C68022C01D0122C0ED1DC080834A400275807261E40B60095
:201520000F22B24097430A69B24016003E43265002685F0003242600BE40F64332409446A3
:201540004A681440BC406246144304604C68621E012A03D9112C01D0122C10D1846834405E
:20156000A446CC68BC406246144384604468AC434A681209012515409D4025434560C46875
:2015800026408C68BC403443C4604A68D200B1D5184DAE6901242643AE61AD692C40019420
:2015A000019C9C08A51CAD00104EAF5903251D40AD000F26AE40B7439026F605B04200D153
:2015C00062E70D4EB04208D00C4EB04207D00C4EB04200D156E7052657E7012655E702262C
:2015E00053E702B004BC9046F0BDC046000001400004014000100240000400480008004842
:20160000000C0048002A01D1816270478161FCE7436959404161704770B582B004000368B7
:20162000DB0726D5AE4B5A680C231340042B18D0AB4B5A680C231340082B0ED06368012B37
:201640003CD0002B51D1A64B1A68A6490A401A601A68A5490A401A6036E0A14B5B68DB0334
:20166000ECD59F4B1B689B0303D56368002B00D1ECE123689B0773D5994B5B680C221A428C
:201680005DD0974B5A680C231340082B53D0E368002B00D186E0924A136801210B431360BA
:2016A000FFF786FE05008E4B1B689B0771D4FFF77FFE401B0228F6D90320CAE1884A116888
:2016C00080235B020B4313606368002B25D0FFF76FFE0500824B1B689B03CAD4FFF768FE0E
:2016E000401B6428F6D90320B3E1052B09D07C4B1A687C490A401A601A687B490A401A6098
:20170000E2E7774B19688022D2020A431A601968802252020A431A60D6E7FFF749FE050043
:201720006F4B1B689B03A4D5FFF742FE401B6428F6D903208DE16A4B5B68DB03A7D4684B54
:201740001B689B0704D5E368012B01D0012080E163490B68F82293432269D20013430B6094
:2017600023681B0744D5E369002B2ED05C4A536A01210B435362FFF71BFE0500584B5B6A2A
:201780009B0735D4FFF714FE401B0228F6D903205FE153490B68F82293432269D20013432D
:2017A0000B60DDE74E4A136801218B431360FFF7FFFD05004A4B1B689B07D1D5FFF7F8FD42
:2017C000401B0228F6D9032043E1454A536A01218B435362FFF7ECFD0500414B5B6A9B07A6
:2017E00006D5FFF7E5FD401B0228F6D9032030E123685B0700D47FE0394BDB69DB001DD4FA
:20180000374AD169802040050143D161D36903400193019B0125354B1B68DB0510D5A3680A
:20182000012B21D0002B36D12D4B1A6A01218A431A621A6A03318A431A621AE00025EAE701
:201840002A4A116880235B000B431360FFF7B0FD0600264B1B68DB05E1D4FFF7A9FD801B73
:201860006428F6D90320F4E01D4A136A01210B431362A368002B24D0FFF79AFD0600184B2D
:201880001B6A9B0736D4FFF793FD801B184B9842F5D90320DDE0052B09D0114B1A6A012100
:2018A0008A431A621A6A03318A431A62E1E70C4B1A6A04210A431A621A6A03390A431A62C4
:2018C000D7E7FFF775FD0600054B1B6A9B0711D5FFF76EFD801B064B9842F5D90320B8E0CF
:2018E00000100240FFFFFEFFFFFFFBFF0070004088130000012D33D02368DB0610D563690A
:20190000012B33D0053351D1544A536B04218B435363536BF4318B43A169C9000B435363B1
:20192000236A002B00D193E04C4A51680C220A40082A00D18FE0022B4FD0484A1368484988
:201940000B401360FFF734FD0400444B1B689B017AD5FFF72DFD001B0228F6D9032078E0F2
:201960003E4AD3693F490B40D361C5E73B4B5A6B04210A435A635A6B03390A435A63FFF775
:2019800017FD0500354B5B6B9B0706D4FFF710FD401B0228F6D903205BE030494B6BF8226E
:2019A0009343A269D20013434B63B9E72B4B5A6B04210A435A635A6B03398A435A63FFF7E5
:2019C000F7FC0500254B5B6B9B07A9D5FFF7F0FC401B0228F6D903203BE0204A13682049F7
:2019E0000B401360FFF7E4FC05001C4B1B689B0106D5FFF7DDFC401B0228F6D9032028E09F
:201A0000164BDA6A0F218A43E16A0A43DA625A6815490A40A16A606A01430A435A60196845
:201A2000802252040A431A60FFF7C2FC04000B4B1B689B0106D4FFF7BBFC001B0228F6D91F
:201A4000032006E0002004E0002002E0012000E0002002B070BD0120FBE7C046001002401C
:201A6000FFFFFFFEFFFFFFEFFFFFC2FF30B589B004AA174B180032C832C2110002680A60A7
:201A80006A46103313CB13C21B681360114B5A680C231340082B19D1910C0733194004A811
:201AA000445C0C49C96A0B406946C95CD30308D463011B1B9801C01AC0000419200209B068
:201AC00030BD0548FEF720FB6043F8E70248F6E74C2600080010024000127A0070B5050091
:201AE0000C004D4B1A68012313408B420BD24A490B680122934323430B600B681A40A2421E
:201B000001D0012070BD2B689B0706D5434A5368F0218B43A9680B4353602B68DB074BD5C8
:201B20006B68012B20D0022B24D03C4A126892076FD53A494A680320824313434B60FFF7A4
:201B400037FC06006B68012B1AD0022B26D0334B5B680C221A422FD0FFF72AFC801B304B44
:201B60009842F4D90320CDE72C4A12689203E0D40120C7E7294A12689201DAD40120C1E7E8
:201B8000264B5A680C231340042B15D0FFF710FC801B234B9842F3D90320B3E71F4B5A68E2
:201BA0000C231340082B07D0FFF702FC801B1C4B9842F3D90320A5E7174B1A6801231340F3
:201BC000A3420BD914490B680122934323430B600B681A40A24201D0012093E72B685B0790
:201BE00006D50E4A53680F490B40E9680B435360FFF73CFF094B5A6812090F2313400A4AC7
:201C0000D35CD840094B18600020FFF7A6FB002078E7012076E7C046002002400010024043
:201C200088130000FFF8FFFF6C26000800000020014B18687047C0460000002010B5FFF7F6
:201C4000F7FF044B5A68120A07231340024AD35CD84010BD001002407C26000870B582B031
:201C600004000368DB0335D53C4BDB69DB0048D43A4AD169802040050143D161D3690340B3
:201C80000193019B0125364B1B68DB053BD5334B1B6AC0229200134013D061680A409A425E
:201CA0000FD02E4B186A2F4A02401E6A8021490231431962196A2C4E314019621A62C307FD
:201CC00035D4264A136A27490B4061680B431362012D3BD02368DB0706D5204A136B03213A
:201CE0008B43A1680B43136323689B0633D51B4A136B10218B43E1680B431363002002B054
:201D000070BD0025BFE7164A116880235B000B431360FFF74DFB0600114B1B68DB05B6D4A6
:201D2000FFF746FB801B6428F6D90320E7E7FFF73FFB0600094B1B6A9B07C2D4FFF738FB15
:201D4000801B0A4B9842F5D90320D8E7D36908490B40D361BEE70020D1E7C0460010024028
:201D600000700040FFFCFFFFFFFFFEFF88130000FFFFFFEF70B504008368026913434269B8
:201D80001343C269134301680A686048024013430B60226853685E490B40E1680B43536065
:201DA000A269236A1A4321688B685A48034013438B602568584B9D4220D0584B9D4231D00A
:201DC000102380221202E16991422FD0022B00D180E000D86EE0042B00D187E0082B00D010
:201DE00092E06168480880231B029C466044FEF78BF90004000CE860002040E0484B1A6BE9
:201E000003231340012B09D0002B05D0022B07D0032B09D01023D4E70023D2E70423D0E791
:201E20000823CEE70023CCE70223CAE7022B27D00FD9042B2FD0082B39D1636858088023D1
:201E40005B029C4660446168FEF75EF983B200200CE0002B2BD1FFF7F1FE400063685B08CF
:201E6000C0186168FEF750F983B200200F22190091435B10083A13400B432268D36070BDD8
:201E800063685808274B9C4660446168FEF73CF983B20020EAE7FFF7E9FD400063685B08BC
:201EA000C0186168FEF730F983B20020DEE701200023DBE7002B27D1FFF7C0FE63685B083E
:201EC000C0186168FEF720F923680004000CD8600020D4E761684808134B9C466044FEF7B3
:201EE00013F90004000CE8600020C8E7FFF7BEFD63685B08C0186168FEF706F923680004AC
:201F0000000CD8600020BAE70120B8E7F369FFFFFFCFFFFFFFF4FFFF0038014000440040E8
:201F2000001002400024F40000127A00436ADB0706D5026853682C490B40816A0B43536070
:201F4000436A9B0706D50268536828490B40C16A0B435360436A5B0706D5026853682449CE
:201F60000B40016B0B435360436A1B0706D50268536820490B40416B0B435360436ADB06EB
:201F800006D5026893681C490B40816B0B439360436A9B0606D50268936818490B40C16BBE
:201FA0000B439360436A5B060BD50268536814490B40016C0B43536080235B03026C9A426C
:201FC0000AD0436A1B0606D5026853680D490B40816C0B4353607047026853680A490B4050
:201FE000416C0B435360ECE7FFFFFDFFFFFFFEFFFFFFFBFFFF7FFFFFFFEFFFFFFFDFFFFF2F
:020000040800F2
:20200000FFFFEFFFFFFFF7FFFFFF9FFF0023C366202269214254013142544832835400205D
:202020007047000010B5041E30D06923C35C002B22D069232422E2542268136801218B433D
:2020400013602000FFF796FE012814D0636A002B18D1226853680E490B4053602268936856
:2020600008218B4393602268136807390B4313602000FFF7CBFF10BD68330022C25400F000
:202080000DFAD6E72000FFF751FFE2E70120F2E7FFF7FFFFF0B5C64600B506000C001700D0
:2020A0009846069D3368DB6923401B1B5A425341BB421ED16B1CF5D0002D05D0FFF778F956
:2020C0004346C01AA842EDD9326813680B490B40136032689368A331FF318B439360202329
:2020E0006922B3540132B35448330022F254032000E0002004BC9046F0BDC0465FFEFFFF6A
:20210000F0B585B004000E0017001D006923C35C202B59D100295AD0002A5AD080235B01D9
:2021200082689A4213D06823E35C012B53D068230122E2540023E36669332032E254FFF773
:2021400037F903905023E7520233E7520AE00369002BE8D1CB07E6D5012036E0337822686F
:20216000138501365223E35A9BB2002B1CD05222A35A013B9BB2A3520095039B0022802195
:202180002000FFF787FF002827D180235B01A2689A42E3D12369002BE0D13388DB05DB0DFF
:2021A000226813850236DDE70095039B002240212000FFF76FFF002811D169232022E254B9
:2021C000013B0022E25400E0022005B0F0BD0120FBE70120F9E70220F7E70320F5E70320E1
:2021E000F3E7000030B589B01422002103A800F018FA144B59698020C003014359615A699E
:2022000002400192019A5A69802189020A435A615B690B400293029B80252D029024E405A5
:20222000012229002000FFF7EDF903950123049300230593069303A92000FFF71DF909B01E
:2022400030BDC0460010024010B50D480D4B036096239B01436000238360C36003610C22B1
:2022600042618361C36103623033436280235B01836380239B01C363FFF7D4FE10BDC04661
:20228000240000200038014070B5802636029025ED05002231002800FFF7B4F9064C2068DF
:2022A000FFF78CF8012231002800FFF7ABF92068FFF784F870BDC0469400002070B58026E2
:2022C00036029025ED05002231002800FFF79AF90A4C2068FEF79CFE094A0A4BFEF7A8F871
:2022E000FEF788F8FFF76AF8012231002800FFF789F92068FFF762F870BDC046940000205E
:20230000666666666666004010B5034B18684000FFF754F810BDC0469400002010B5002494
:202320000DE0802190200902C005FFF771F9054B18680321FDF772FFFFF740F80134092C3E
:20234000EFDD10BD9400002010B50400FEF7FEFF82B2034B21000348FFF7D2FE10BDC046EE
:20236000A08601002400002030B595B0282200210AA800F056F91022002104A800F051F933
:2023800010220021684600F04CF90125089509950224109480235B02119380235B03129392
:2023A00008A8FFF739F9072304930594002406940794012104A8FFF791FB00950294684669
:2023C000FFF74CFC15B030BD30B599B0FEF7D8FFFFF7CAFFFFF706FFFFF736FF592220494A
:2023E00001A800F015F901A8FEF7B0FF05001D4BFA2252001A60002300220BE001A8815CDE
:20240000C91A81540133D917090F5B180F2003405B1A0132AA42F1DBFFF776FFFFF774FFAF
:20242000FFF77CFFFFF770FFFFF76EFF002405E0FFF72AFF0C48FFF787FF0134AC42EBDA83
:2024400001AB1B5D322B07D0332B02D0312BF1D1EEE7FFF733FFEDE7FFF756FFEAE7C046E3
:202460001027000894000020C426000882B00A4B996901221143996199690A400092009A05
:20248000DA69802149050A43DA61DB690B400193019B02B07047C0460010024010B588B005
:2024A00004001422002103A800F0BBF82268134B9A4201D008B010BD114B99698020C0019A
:2024C000014399619A6902400192019A5A69802189020A435A615B690B400293029BC02330
:2024E000DB0003930223049301330693023B0793902003A9C005FEF7BFFFDBE700380140FC
:20250000001002407047FEE77047704710B5FEF747FF10BD114B1A6801210A431A605A6809
:202520000F4802405A601A680E4802401A601A680D4802401A605A680C4802405A60DA6ACB
:202540000F208243DA621A6B094802401A635A6B8A435A6300229A607047C046001002403C
:202560000CB8FF08FFFFF6FEFFFFFBFFFFFFC0FFECFEFFFF0D4885460D480E490E4A0023BA
:2025800002E0D458C4500433C4188C42F9D30B4A0B4C002301E013600432A242FBD3FFF76B
:2025A000B9FF00F011F8FFF70FFFFEE7002000200000002004000020742700080400002036
:2025C00098000020FEE7000070B500260C4D0D4C641BA410A64209D1002600F02BF80A4DDC
:2025E0000A4C641BA410A64205D170BDB300EB5898470136EEE7B300EB5898470136F2E7A1
:202600006C2700086C2700086C27000870270008002310B59A4200D110BDCC5CC454013374
:20262000F8E703001218934200D1704719700133F9E70000F8B5C046F8BC08BC9E467047CE
:20264000F8B5C046F8BC08BC9E46704702030405060708090A0B0C0D0E0F10100102030413
:2026600005060708090A0B0C0D0E0F100000000000000000010203040607080900000000B4
:2026800001020304E8050008EA040008EA04000808080008E4040008E4040008F007000858
:2026A00008080008E4040008F0070008E404000808080008FE070008FE070008FE070008E4
:2026C0000C0800080D0A576173206120676F6F6420696465612C2062757420746865206621
:2026E0006C61672069736E277420686572652E2054686973206973206120666F72656E73CD
:202700006963206368616C6C656E67652E0000003134353436363939393A3C3E3D3F3F4068
:2027200033323434353838383B3A3B3D3D403F403234353537383939393C3B3D3D3E3F416D
:20274000313335343736383A3B3C3C3E3D3E40403232353637383838393A3D3E3E3E3F404A
:20276000333434363736373800000000E9000008C100000800127A00000000000000000066
:20278000504B030433000100630038BB8D4D00000000C6C70000AAC700000A000B00706947
:2027A000636E69632E6A70670199070002004145030000179A20902012D13E1B881D4475C6
:2027C0004B57242862BD072FB2D998CC3CCD2B858AAF2923D80CA2B0C0089E36361B6158AD
:2027E000A3F7691FA4137D0F4FA1B893B0E69035F235DC2EA68195E4545704B81B4A7E467D
:2028000037F3DF5AC4A50A02CCB001C0CB0B555B7EA41DF9410FAD05E5855A913ABBBB22BC
:202820002052E00CF0A0C58C6851A5BDE57C7A74BC1D4DAA558BC9342F5ADBB9A3B1E4CB22
:20284000FB592A94703D866505B3DA908348AC76C7C7C977789E63986E59A4120C402541B1
:202860006C4DA4A41E50B8423D2C56803B5C08CE22BCA5313EBD0F2585A421FC13049A5811
:20288000739D3BD61515B8ABC235DD8EEEA632AA8D9BE2702F12ADEF94D6518C8293423A89
:2028A000B958597FC344717EC2E1907BF1E09D78FAD7BA5BC1D41EE0C3575B78FD58542472
:2028C00062F8E9AE268464F6A56526127B846FF689C9441929D9420EF1052CB4CF03ED982F
:2028E0008703BB138E49E9DDC7C713BC40721550F62C07D27DF20DB43761457B245B001756
:20290000E64043FD269C9F9F8A760D2710B5AA0345B9DDB10D8A52C8F5B83DC5DA5C6185A3
:202920006D2BB45CDD0264D9B1D967CAC8408DE40A2FC0F67BD03C07A33E6C9A82F3FD19B0
:20294000A9EC84DABDEBA75B8968C5A54F4DB0E171171429C3CCD9907BA71FE7C7B2B584BB
:202960005AD9B6B81F2C4B4ABB238FE37BFCBB078EA0217B5EB0AA2DCAB5AB5F0ED5095FCA
:20298000DA425156172E106FCE7F834DE3A9181515224C3ECA303C7ED815486DBF3464F27A
:2029A000D52E28FD5FB8BCD620C523430B95A86801F882DC18BD116F7F13397269E9599E19
:2029C0007DD92098FBCE8C7B300A7CD26E239096BBCF2DE9C70BE2922D519568DBB3ECA05F
:2029E000E5CAEB3541E298AD57CF975383E3FA3FC48AC537B406FB1CC470950D7C8C51DEC9
:202A0000EE5CA2189E08B8994FBBD98F792CFCDAB384C0BD3F84E2AE403A26CC929BD41149
:202A2000143B1502BF96D3C0301A334FC4FDCA7EE5C6C5EB08A6595AD54871EEC106BF9C19
:202A4000AEDC9BDAB141C6AE246BF3C72B4167E3C50907C372E1979A885B29F4E0BE3365C0
:202A6000475D84D568885AAFB95F19C6072421E9B0334FC9C61BA5943C94F66695D4B403D3
:202A800069F4AACC3022C685516732F114297F08FD34113CB22E82EACBBA6BEA4464CBAE62
:202AA00006F64D482B942DEDA4F3D8BE057BD3023C6B7F6DD27C61911413B3A0DA0B3E7941
:202AC000333246D9B36FE5A54C21D5467FF4D6C409EF9074CBBA1FBDD877BEC721E928DFEF
:202AE00048BABB45D73D97356CF1A855756F25D8E420198E406A5D3CFA3FEF6A34A033B37F
:202B000050A50F74B06FBC42304224FB713BC22006233A9DF385B6B23432557C239067923E
:202B20008135897904C6CA4778FD41FD026F353FE5E6790F060C00E5F84DEFD7D0B04CBE8B
:202B400006E449AC03CEC209BE6A9A2481AE3D32C8159E13CFA4A487D6CCB062BDFDBEF925
:202B600082B6300E8218936A77D8F7E0956FB2CADF4770F33CD1931F056BC5D42E62280198
:202B8000019FF9C665537C969AC75ED1C4373AF53A0F76AB8D434C78F8800B2115585605E8
:202BA000A57FB3A8357E9BC6772407D8304710A6916B28723D2615DF8B6D9A196521860433
:202BC0005D553B2FF6FF5EDCC8191C34714DD0862C54C95786C2B9DE5C4E1FEC9762E0AEAA
:202BE0004343CC3B017C923FD4D9437D7FB839EF74B55400DE6641A4B005A6DD3ED1E60358
:202C00000B589D48301FC0BD96F5A1C1846C4660BC749439E2E20E6DEA1D4D52CD85E937C9
:202C200050DFDF1A0D60861E710278D024EDC114377B59813B9DF291F9950D91A9BE252CEF
:202C4000B9F862E50BBECDFFDB89A8E2C9A11FA3B342D1478DFBDA34D05D1620CF88B68A30
:202C60005171DC5CBAB3399E11E13DB8CF7ABE47C35F99686C14CDFB51FA658926043ACC0D
:202C800048993A9A460BD45BB6DB300C2F085EF3938816C444AD4A04C0C6B1BB4CC6786298
:202CA000283F06DE4DE693A9F1F55713B48275D6CE8B018F5F3FD854B521BDC7B412C547AA
:202CC000C83A27201755F4F8D07668FDC31AAA5581A9A46D6879963A427F5B637B787AD61E
:202CE00044AEDFE8DD0582BF9D4CEF7868424A4FD44F458BEA5DD0A7532C42591FBA778FBB
:202D0000AAE4990A2542AE59C1779983C22899B85694003AF19601AFE3369653DE6A036974
:202D200012FC5FBCEA0C313D59F4A1115E7DAD1152EE1D99B1F0CA53D52053A2C9628651CE
:202D4000339E190E21642CD5ABE342D4D00AD685D0853FBBBAC72FD82A875EAFAC8BF8C197
:202D6000AC6120AE1C2F49E650BAA4957A562668335AA27C858B5CFB1F704206A7BED791A7
:202D80004E9E948B45162A74E3B842EC214FAB81D926781101F4B4362BDB4503441C22F99A
:202DA000DE6B1842B999E9154F700A0E16EC7A6A6862B004F2B01DE46698AE2C559A3FAB91
:202DC000CCAD039F46F636DA5E0E4663481052755BF8883E3ED6FEA68EEC9CFC9287371B0A
:202DE00034255C45129109EA817BC20E6B1A17A8869B8FEF14E56D734266BCC51976BF0341
:202E0000CCBACAE914A8551F1AB1C4C9320BD17701B46D75E33D35E7A0A536739C806ED34E
:202E2000962567DEAE2B094581548DE090B7E0BD4FEDFE3CADAC550079E3F83B18B253DB9A
:202E4000933BBC50BB1367EF738B1B95B53DFDD018D37D857E008FC635CC52614C9A4F2F2F
:202E600060CA209041F07E6FD3AC4A61E4261135D61621F04E926CB480D07E6DD17318F557
:202E8000DF7ED6F240EE85306F0B6A0EDC86C8C01AC8FF859F92EFD061AE9BC2A21E629BCF
:202EA0008E3B8AE94DF36B684C94D6A163EFA811D3A14F994ED911482B4C1091DB1D4ED750
:202EC000C3BFC3B486E833BFE7BEA97AB510DCF4FF1E99F8935F4E2F25AF62E76285F671B4
:202EE00067970B1A1D7885FE172F4F678839F7B9A1D36E5CD8439864538166B680CC31FB6D
:202F000011C84ADA525D2321D1B072F44182A982578EFA134DB8B66FD0488699195978248B
:202F2000FB74FFCABF8891E14BEB5B4BE5267447569AA59D2CC5522DEE5526AF36A879CA23
:202F4000D751F546A534ABA9907A0D753C396846DA2A7B120DDB74074DECEFF59EB88C5AE5
:202F60009BB0C6F9EDF3A9A314BB49BD0707FD744813A62EB4FD2B028D12157032B302DAD5
:202F800046C7DBF3B7FCDEDEA7BE5E354CD70A62862B03293EFE8628E7DBAC1863AA63079C
:202FA00054E2C8DC38B49AA980EDE97A7A9CF1BDDBB8EF6EEB8E609731C7F43878AFFD24A8
:202FC000E26CACA12B6D4325B634AD861627EE2AF1383CDE26992239B4B2E8987F2346DEDB
:202FE0009BF0167FCB416154870F57FCDAB83B67302CAB28150F1A4936FFF1FCF374D1566D
:20300000F537DCCCD629721929AEF1A5A6616D3BA195621B168C1146E1F29B89DA208AB659
:203020004F40337129B41D709B6D3772132BD1C8EB82059D4A0F9E892C235F1D24D26C426D
:203040006389C987082B9328B54A1A0407A649DA003B06B6E21313C02F3B168FCF47EC1F6A
:20306000A5AEDF4FAE0AFC2865672487DDA1F535F80750324FB00D2C3EBE06640E8E76E6BD
:203080001ACEBBB75A5671BD1A91FD261ED6B0C3E6A705E83F1A1E3F241AC868E549DDCE4C
:2030A000E5BDF3A3A8D43CDB57F4C521253C6F27CC82B0BC26A5C44AB25A035522FDF6F31E
:2030C00004EBF87CD3613BA4D92F570A68484C2D78812541711AD173F56A259314769C2657
:2030E000C38E94570EAA0B76112546F88C5D0987304736F586C24D862F0D465E8B5C711267
:20310000D1A97CA89D3ECDC71D2ED81BBB317345DDA3CE7F46D48AD67FD8A2B380C8DC4663
:20312000B54B1047EA5DCFF22BB2BFFAD0D6B36CA18FA7EC06A289006D746AF0D834BA1DC3
:203140002C6761E46595A208FADC1C2720E15FC8930CF767219DC06E9C293B3949A9CC5B77
:20316000D1F18C3A764B6786EABE4CE32CFD378CA1F43F5867704857EFB8DE06BE0B72D41A
:203180005375A0DCEC042D521E7CE01A79D390B00C8D0C640B8B6ADC741CB824EB6D70B390
:2031A00080412357000EE1A5222241471C20B41FC4F76B826F6546CD4DF6562A939A9295BF
:2031C000A4A490C1B3FE379F9C67E6C87170143B105473F04B0D11A6ABCD7D5364E4AAA33B
:2031E00046C69A77B05948906FAD55D0426314FB06A1F1048C263B9D81D45A4AA3482B9C0B
:20320000FB250162029E5B38C207E2F8072434FCB16DD802E7289FE7ECAB69A350A4C0AB6B
:20322000BA5F3E474CB6F657F8AE68B6C28FA8E30942F353CBD72630E382E886A3AD00FD58
:20324000F98D3994E9DFE747CE15137174B7B6F6E4EBCF5BCC441CF51EC6CB7CF8EBE45685
:20326000B3CF6CE95A85CCF9FDA70DA43DAA2E2649E8C74D4CAF375B0118F8D13368257659
:20328000DB5979B85744BBAE0CAB3713CF2A51BAE019FE3A6D8D749AC6D9AAAC133BFEAA9C
:2032A000E6B177A9B4F13450F196CAEA155FDBEE6906E2F5670CC5AD66AC42C1778D7DC530
:2032C000B611E085F60F0DB2AD59F5A2AEFEACED4D202395794BE00FA3CE43D2FF468A2DC2
:2032E0004C3BC1F6D83DA262E42257C1550B557AC618870D268C2ACA26C07A78C0220BF459
:20330000E941232664896727C816A9F39CEF5A4D4349EFF8F87DFBF32C1829615D4DEE6F68
:203320009A97A8F6AAF7E67CF32BBECC8E41DD1A09301B57973294F126B7C9F673CE502CFB
:20334000934582A6A76FAE74A55637F817D6E0E3E26182304C40FA9CB8F0D502212A802DCD
:203360004EF5F86B859B06ED0230C7FE84C628D969E52932DEAD7A64DBB754C4CBB9795643
:2033800080D3EADA6BC9B3AD63D442468178AA00AB6DA4F90CE9A80C8650D7995FFAB42F40
:2033A0006D32A594D2A530F380F80B7635BB0D435EB3478075E3E36166D30766EC27FD98A0
:2033C000EC313DFC6CA212B6E5DE67A43514505EEF514BE3E766D68C5A0A5671B0B7CD5B25
:2033E0003260BC5FE563C21F5EC6915D66335A9933E8A2AFB8837474472B6CB0DED1B8A62F
:203400005FF55676C88B531F3B69E3B0CDA6CACCB715203C816EFF824122911C13A44121C6
:2034200058ABCFEC5601970B22AD37B0FF82A485060F17497D1E1D006AC975A53D3B6B22F6
:203440000C7184DB2D5AE2FB26648563DA02DEF6BADE98DBF4219BDDCF9271B2F35A48D485
:20346000BDEB53D3BB5E5D3230B7001B01CFDA3D1603B6DBCCA0634357D729428D1E0610D7
:20348000B51F3EF71AEF87DAA54B146A94AB5DE067CF7942BAFC6779E360A000D3C9CD22DA
:2034A0007A40B14B05E9A3A798433ABAFADBB5B74AF0A1EDC372774A202EC31F537F6F5887
:2034C0003A214D18D2A959DC25560267794ABC441A941647C25EEFF5DF1C6AB7AD7FCCB4FE
:2034E0009A79495F06D149544A7B886F829F29EA11728B6C605D72B73072CCFD944146487F
:203500006ECD728D417CABAF9C311AB92E973688C57482B789BFB64E1F46DF79F6BBF061BA
:203520005E394E77F8E2D8BFC7E486D5C412576EF8D468B567D4140B847DB46FB9C9F0162E
:203540003E7FBB38220BCF79672424D0F81458B4037E8D90B831C3C3E25F0A9220EC2B3F4F
:20356000DE309D2B8530A76F6BA3BD31440F7990B5AEBBCE2390AE327D791D86BFE4F3ADF7
:2035800015B96EF9E4B2C5F6990EF0B9842DD615E41F38EAFB09ECCD549A21AFFF99D1A010
:2035A000EBDBD38A34B761E23CCF181D1B61A3BCCD42BAB7F94D70EDA58834DEB5D1E75D73
:2035C000AFC32DDAFEBD7D18E3A0F81B4A5B9AB392C7CCACCD73A68B82C5EE693B74C23613
:2035E00091FCCFCD46D3ED716296F5B513F8F62BB0BA2B444134BD7A35B4AF69C97CFB4255
:2036000029C7B7E9E2A8D2ACF4852C6B4544E3DF1B56E96B95E152337E0F488B349754492F
:203620006471779A70E3B6EDBD72BF24FBA0BDC3AEEAF93CC4E39533963190FCBEB61F76E9
:20364000A1E4CFE7F61168642ED00E47F28BCA85BEF6C3E9F80F1E29132A40C725AB9D5787
:20366000554C35CF6A5542EF1E15327CD386518FAA64F6908584149ED5AD7DFC88C601BE44
:2036800094DE9B81198D60EE13B0FF5864CAFDC75A3C06A88CBF12E76DDAD1C9E9C90EBFB4
:2036A000FAAA6B33624190766129222C9A2372AC2A8AC2489654B9009C84A798349A63DF9C
:2036C000593CA82672BEC0929D5B052840A93B8DA98916FF793D6B8E30EB18F65D48231731
:2036E00054D72F9AD176E0F83AB8A4B5BC639E0382019A07C7E3F8B02862E923AB90FA6CFF
:2037000060E527F31D53F715C32EF6DFC0070CD656BF5D1366DA8AE1A4C9CC9B6663F7D7C4
:20372000F3E8638A7918C2CF4F9D46B7A57814BC38DBD42F76B5D6D02AEF66C807200A75F5
:2037400067C63825FB6B606EC3376BA8239F4EC89FE8E1B167E7126902F8F3301093FEDA4C
:20376000F3D35B16B7B51A6BAE88BE41F404F7726CFD1A578164CE9CBD91114529D08856E7
:2037800069C37BDAF4BF93BB53082AAF37A4ED9ED7F0A0B1673041F7B5355A742C54D91CF9
:2037A0008E3F74928BE9FBF78BBD045B27B38959A51BE18C0ECAB7098F1DD49C4BDF8AB028
:2037C0000336CEAA04ABCA61269702B8F38544393E0A01F87CB2BE294B7DD57051678DCE7C
:2037E0000393D6DD3A3E1EFE8CE02F797A0E03C9466854659ABB0CD14CA7B8C7DDBA6992E7
:2038000095A4B1B39827F32A2E4C7A0DEB81D7DD50BCBA39371911BC47FBC4CBBC5E946B08
:20382000520B3DD173682355DA5815550A552545126E7D774306DF5CF2D9449BD8283F7F05
:20384000B7F6C2777AEFD87FFBF7A5E8FEA9976B4BE5B3E458714B748AB9DAE56BCE1CF400
:20386000CCB16B2F15C9927555DFAD35910196A4A03BF8E1CAD7F2F4A407DD2BAD9BC94922
:20388000D347072184DB1231D3976355693F1D81BF042277CEEB764A529990087D747A62B7
:2038A0008CE70B2CDB4A418F581B68A8D11C574EEA99525E3192BE1708B14A2BBBB00BC81D
:2038C000031BA1CC4B93AC0B2760FA77E5CF3649B219B82DAB21889DF6813D0AC39E8DA5AB
:2038E0006A12687C8BC086430E35A28840721F5F6A066398E158716DAED23D2C32573CEE99
:203900007D590D9D0B29C68B9A96A041DE07AABCEAE833F525ED8070EAD0380697B39984EB
:203920007CCA3D9D7DE0864FCDF97B3EF2A6BB52AB5AD93C0721AF10FC2A81E69B394A4D18
:2039400028FF288D582F3ED7BD09994CCCD3302E49BA1DF86529EA1649023E4CC6EEC43222
:203960004388113635E1831B3EDDAC40660C1B27BCF8FCDFCC44CE3485BCAA5F09C9CEC675
:2039800029AAA67ED096A902D1C5EEBE22920A0FE4A1CB9FECDC446D8330C8E8B9A1D1BE5C
:2039A0003ABE9D6C3426122797BC05923F77F75F844E5D951112978D82E6ED28378EFE92A0
:2039C0001CEEEBB008FD5E9CC538E76F2361A6CD3166A3A0189169AAAF9F3B7B904F5BAC79
:2039E000C155A2E7953E67814C3031A3B439A3806A23D3146F21C7B1D84AC532AE8CB5A2E7
:203A0000EDA75B1C328D452D11CBB61E207401716E7CAFEA57BA8CB7F4AF141329D45F9F18
:203A2000AD25A5D99817B42384022C8F45982AD289F9AD6A347AD6B600F3166FA50936A0C7
:203A4000FFC1C315A4FEBA5981DA02E8E03BE23D156556F39EB249F75389644D8D529289C0
:203A6000F3BDC0C1EBF0BABB9E7491C9098908ED4DDA83F44E4A60EFFBF89EDEC5CEC292F7
:203A8000193AE209CD48D37669E1AAD59F18BBB883CBE3BE26524E61F0EB5D7A4A8723AF2C
:203AA0004AB9421FF32CC646B827A45D99B737A8D4C7CEDFA4771CF30FC7700D159934972A
:203AC0004E04171352FF0C36281C5F6A23DAEBC68050EBBAF1A31B37DB291238758E7AD422
:203AE000D3931DD3E0D46275E5E809526DEA643BFA6CC4E7281229D9FB72051B9A91FA7C4C
:203B00009FDC9B654029DBF5B56962E30F04FF82852AB2F4FCC77F11F1078FE2CD54961F13
:203B2000C777CDF9FAA17903524D5256E694961DFF278BAB62CEB2AE044420F00387EB5AE3
:203B40008A678A5FC5D1BCA508A7338136601310B8E0DE03E263B4CB2B4BD4E28797279832
:203B60001EFD0F6F89A74E123333A20617D993973A1C70A3E7E242E7A73AB934AD17247370
:203B8000966F7F48D18F582625964E217A01FBAFB3EA683F04385AAF1478756114647EB596
:203BA000714936DD21C533367B7EF8E107F57378EA739E1A0AD073409D656D0764861FF916
:203BC000E465A81944E8E3953657E6A4A33FBEBFB805078FEB138A564C4023FFB58479929E
:203BE000918AD3C339706915C7B2968565695D81B92E87725838F652DDE45C7BA5F5456717
:203C00004B0BB1F7C23A930B4E2E9925A63D4A72195043A702954FEC410C27D7F85A31C67A
:203C20005D05E056971B049BFA338026D4765670F7F067F732C051B02B5B0ED6C264D778A1
:203C40002B88DA98781CAD161DCC0C97309D910F065E83A84B37740FAFB92A7AD171521F9C
:203C6000E1730E559599B999041DBAEF426053D3C2B032EE0434B42136CC8FF90A2D01EA30
:203C80001C3FD559014DDB65B68685B8C63048744BFACF67D30D5B3647658376EF27EF81CB
:203CA00098BDCD69ABE53D8DF4C7B7B95FA38CFB5818321427E0D379A536452C8D481950D8
:203CC000FB4B65038D025C97AFA880DCE30EAF4ABBAAF7FD822A06ED4587AB1F5D851EDDAC
:203CE00054315CC5FE1353B0E42F0CC9A5B42FEDED1633D38474EF06B0CB0D1B9E713FD9ED
:203D000006F822A0D0F0045EAEAC3DD95CF64265175E5D250C1E80132A0C904040D42DEC71
:203D20003A531A2595653AF9ED6C8DBF8DA93365331A2AB5E41761DEB52FFF3DA39DF89EBB
:203D40000409FC8CB9A58BEBB45A7803CD697C060988602C14295C78C4F7952A0149302C6B
:203D6000F9E64686BAB32F2FEA8E105C3BA67DF2F2FD729E5810E905AD10AB0D175D735494
:203D8000899EE00290DB418945A1ABAE3C6448C8BA84FAB902D83FA8FC86F9CBE670B348AD
:203DA0007507D9CCA9526603A7D4FBA45EDF5316DAE583E86ACD2D3ACEDFDFF5A9A2773C77
:203DC000577BD7E48FF2C80FC482C25E3EA6556C410963E5F060A0A4D8594141A067154DB1
:203DE000F73B33AFDF5864A7EBC51B3738901347A1CFA2146B854B0F66C2337862CA1AD6EA
:203E0000D072D146CC451607CAF7E9D7D7036CDEFD56E886D874B31B3D0374460AF5F8EEBC
:203E2000D99975C1BFC8BA60AFAFB2AAFD268CC1304CE974033FEE4256486D39F268353DB4
:203E40000E353112645828F015DB645F5038041674FA5C022F9FECBFC6B811E97F04F1A2E0
:203E6000FEF16C49B6A2A94D8160AE5696FB3C610624F846F39E37EB091F0F757B290004CE
:203E800088BEF4A0F5F0DAFDF5D59922D8F8010BE3599B40BD3326AD2CC7762147932F5767
:203EA000A8C4FAC2B12C41C512DFAA9BFF870C47BA42DCED1DA0005405A966EC24166E2941
:203EC0006B5D773A2103C3E81E27EFF748CE06F5B6ED5930A14D3E25484C89811713F48B9A
:203EE0008EA796972392DB4C8B935DB4D99F84227BCB4039F5C834B4BFEE143832EEDB8956
:203F0000261434428B2690980D6A8F5441DF9379E42C4A1FB319ABA65B10363604B968F808
:203F20006EF2B19EA8844E753476E142EDCF5D4966C5BE790D0C5C7A6630C155171C5189AA
:203F4000892B72694AB15B69572123F4B4755A68FA8B8326BC706439E282F9F5723CD95475
:203F600073DF606E995FC72CE432CA06AD6BFD2E891BCD10AFAB928A21168B120B879F977A
:203F80008C945389873B1481C8EC842F307D1EA063FF4D2D730299E03BB2962F53DDB31E7F
:203FA000D4F61F149EC84B642DF6CD2E3F99B9547E490149B9B97E37DF707EA7A83BD6A5E2
:203FC00058BDB0EE1A29131FA7BA70B02CABD0D5B5D0D2C04D5E7C27B9D8E4EE4A716628AB
:203FE000EBBF0A77CB8D969B5BFB2817C4F33839F7C86E9E1232DA72775F4B50FC6774733A
:020000040800F2
:20400000DF660A2C2454727D931A7D76D188D19727151651172AE5FE6B4D04427180F9D9D5
:20402000DC1D3FE778770ACE5583007D780AF866333E5570BB0345173622B9F7B45D1ABF23
:20404000451E4C3D4C117B423542E7C1E03E0B395A4704176FCE50E6B4355A366AEA56F592
:20406000BD08EB2FF6C3628FA7DBA81855E4F2AF2800DA97F6079B056324B01814627F0021
:20408000D0FF4C0E2431F9DB0E633F7F772B68529416BB6C2100DD51DE46463715B8B0F312
:2040A000C605B2C5AB32E0322894F0C477F5A24812A02CDBF28ABF75D5B5BBE838BA2CC194
:2040C000683EE2A54FD731FC7C49EEE02B586739F70611DACB017C26658A1B6D9A171E16F8
:2040E00002A91A90D7EB3499A9D71118F29795DAAD5A0E04CC5DE2A0CADADE8675F01718DB
:20410000102A5F83005FED9E58FCDBFC85A04B330DDC6DFE3749A6BE0871C9F159075D8B18
:204120004942A99C59FC64FE65E4EB87A8C35659FAE61EC687BDA135C3D5C2820D88932C15
:204140008CDF87C7D21DFF478A27DE9B247F903FD5CEF7CAF8EFACE617A27E09074019E177
:2041600061702981FBAE414A730FE5B6FCA11B4570ECD97FE977A7B404B093507AA74B43C1
:20418000EFEA9B5776F2AA53AA14C9551DE044DFA22560DCC3F3DBDFB3BDD6B56F8996F106
:2041A000C6D3B8CD6506FAF24D631F55189C88A9C58511F1B1D50B06BA21BBC006549DDD74
:2041C000CF5EF730839CB6CCF188C6472EAFF5B35DE0365C47CEC1FF21DB5D5C953E818DA5
:2041E0009191BA795E85EBE0EEC2D2C62C200196A2F57C0C0CCBCE0AFE9D35F24559CD8214
:20420000064DC4D139D51BB17DA58759F53E6E9DADA014A2BF6EBCB91379A5B8A4A9DDD014
:204220003950C9CA5F61D7E77E8115BD67D64BE6A85C9501584BA2168E0E5F1ABFF49456FE
:20424000918C5B946123FF3D62D5CC719B781EE849B057F4E5AFC2104D247F885B7BCE51EE
:20426000E7D50404A2C691F7F61AC421E9995067FE2C0935FA1B6C0EC708C502349E585E47
:20428000109DBB116A86165F33EF25F414A71ABB07B0DA9E4A0FFC5AC0F3456B40BC15CA59
:2042A000AE2E6A5683DE7A32FACB3227B2EB5A1945E15A7C1BF3AA9465BD573AEA5FBAC366
:2042C0002AEF66CE5298202362407212ECB19ED3BFAD3FDB43668DEF5D08D916102CE556BA
:2042E000C0A16099ACE9EC7E22522E4B1A9E1700D1FACD1995D63E1B5B6238E9805C699A77
:2043000052B30750674C381D6E1AB24AA200B470CD6B84B26F58611298A363B886CF37BFA6
:204320005C18F362577BDF10BA5F459C908197A0E7A4FA90C52B5A97CBC11382592C36E6F9
:204340005EF1B95D0035E3D5EEFE0EAD8007B00D4026C6C308511AD2F9848F3BE35C7E44A4
:20436000F3DAAFD4236F72E9042A25B8621E72E6CBB51ACE03C66C52FACE6919B239E3BA5C
:20438000E085377ED8740744FD575A7D301B9B43A2CB323460C2A8C45939759E9DBEEFF0D8
:2043A00059685D1C7F6F6F16DB37A2F5E4C430FB06C8C97AE3E946FA2A730C8F9DEE2A903A
:2043C000BA3A903073F59263411EA1C1F6B35E058D694F4B79EC37BF31CB4864AD53AB5B66
:2043E0006B868CA762E90E0237F9AB5B22A2A4B2C0009D4DA8CDC8A5111A8BE996BDAAA81E
:20440000D587635C261F3FF2EEE1EAD049FB3F3F135B24F74D149B35DBBAA85D8E1CEAD9FF
:2044200054A654B980F1EB1AA7D925690D8445A47BC7A176D472A7704AB0B96F97C01B43EA
:20444000002B0616D46522873AC1993F8B459C1435F5D4B5DE46EAC9B88BA800D1E4183569
:20446000506E53191991716DEB1BA49CA5ADE4ECA517A766D4EEA1DC0E7F8A2D646B05B74B
:20448000DDD79A6CCC7B7E8F0D0DFF19F5C1AD30C0FBFE3B547FDD47C49ECBCFAF84509649
:2044A000DFE8C751CBD3C34878080116153F61A84B3968D1AC653A6B4CBBDF141791842DBA
:2044C0002A51B502B999B0C26C4E9E6B62C18EAD604CD9A8D8A48A9F5BC237B95CB6B9F229
:2044E000936416380CD2B1907ADB546802F28E7AD42D6FE7004E71282B0F35215CDB35EB26
:20450000CE77718A4913FC14F386BD6E26C95BDDDFA356928D96FEFAB48DF747D9B1920202
:204520006DF0745D533219D5FB314BF416698C1B4FD2A6F8E69B393B585F1E500233869520
:2045400088797C3779EF25CFBAFEB30DDF77EED935B270FD409513DC3E318852D356018D9E
:20456000382EEF6F9717C2E6B11E27D08C2DD99F13660EE587ED280D5F372802E794F047A3
:20458000D91F7FDEC48B447E6F1E540173B42DE6DD7AF37180F195EDEDD24BE6895F700E95
:2045A000682EEA003E7223A6F43FD0C9C6C64903E8E2D585A916E688DD2EB654F266750625
:2045C000C2468A3A5D406338CEB42E25D78F6AA2CB823091194553D290643F41D619FD5946
:2045E0004BE5E5F53C0E4DF414200E56875597B17C6B04AFC98EF1E1F92FC40DD143AB32BD
:20460000DEA1EE55234BF8A21CB20983E1AE2A40ED6C83A869D3FD8F2637EBEFFEE3873A58
:204620002A34399BE7E5B4EFDC62D8B965220E8EEDF0AC4031F1DE25488151148620357977
:204640007EE0EF29DFDCEC8B1E978D8A5CD20F8661A0077EF551ABE301BC5520C7C64322A5
:2046600083E8EC7B17466B601A5F1DF92ED4506553BEA265B3115320669382858E4862581B
:20468000806C7F815CD8B0BD01CB344DF659ED73FCFC37A2BA1FC4212C0F573EDE943AFC8A
:2046A0008BEB9FB2AD500F56FBADE76E3EDCEE0874BFC497B5A1EDA5B757060DE4BF74A373
:2046C000CC5D9A2A5BCED0184F0CF44F81F8A15E020D2210A74F58F87622F59E166E6FDD44
:2046E000535FD1E0A202D005F6C0BC4B31E06597CC68BAB9D7E06036CDCDD77C5D4D96B53E
:20470000664381BF0DB233EE0EA8F8B7E20F56F00647933B90D6602D7BA242E7D1C57CF6D8
:204720000D8C12EBD98D4C0397FCD75238A0DC23CE779EC8C6D2A896535979523530FB0F34
:2047400012A6C6AC9FE65DD21BF83C58D5D093F5E509F8560E179C74A2A4A2B6C6359313F7
:204760004CE2E2033AF3FF00E8145C868C1B096105B6452A7A2305852C174842456493DCD5
:20478000CB5EF34E0A21C5D0A9E76728DB7B74189E2DFA518785F8D456F7F731793BFC3AA1
:2047A00059F486B3A04B0DAE55C1C6581D2E07D50A20E02438716D510E8D763A5EB0E8ABF1
:2047C0003D93BBEE2E356F80E735890A6BC1B19DC7D5EC93E660C4C3A1479E634EA3C8CB90
:2047E000DBA9104962B338BC901697A5A20727E9EF90F3091E733E1B38C8DD43467B0329C6
:2048000028E3BB5303EED41BE5A9B9AAFEA750D350EDD2B7EBE811782A837CAF937BF15D90
:204820000D769639C48611E25736A8E2F4580759B85840D3E7E81B88202AFAF6508E700009
:204840005B3479B69714240ACE150211744F70CBE06FC27FDB5AFD74063EF6666312A3409F
:2048600038C874B856CFC3BE100326721746FEA8803F9F7E17B1A666AEBA7E84758320A9DD
:204880005E99FE5E91A06F300565A6C7E651F97CBD2BB086D4F18A7B3980F102C1E80DD058
:2048A00028B8D9B27DDECE0A3CBBB3D2A62674B5AD87CF286ABB843ABB19EB5A474175ECD9
:2048C0009C20109A76684FA8240E6E64065FEFCCDB64E87E4677EA3C8DBB45C5877269B08D
:2048E0007CF1303B514356D3C28AD02ED384D9DEF01F0607FBFA8B1E1B499E74ACAB30D341
:204900009E3420F2A2CA0BD17E60B26112780ED9AAE3CFFBA04535482E0CEF5804A776B6F8
:20492000F36667CF75C5F05AE6C0F6E6F9931ED12FFB6B5915A489D44E8453888081FD13A5
:2049400042DF26593C3FEAF2E39A05CB2338C7ABB9EED464BCC1DE3A51EADC01D50A4A4D44
:2049600048423EAB3C933AD63981EDEED62B9D982E225A54BEA3E6AD8DABE6D8D791298021
:2049800026F101B833B0BE5F67F965AC067A6B39D34A1CD8528CA7987D469C75A5542B92FA
:2049A000A661B3FAB02F6DC980A56814A4DD1B086FB8E25DAFF69708D8EFABFE94AC576ACE
:2049C000A4B293AF142CEAB18932B1DA6BDEF055414EF7CA424F0EA82D8277F021C904668F
:2049E00054D9139C96C5513DC1ADD2D31B439F962B67C1C126BBF98D7B5A803EFF6B4999F2
:204A0000695BFEC0F21AECBB568B9E90068E4AE90D1438775D0568451BA8CE6561996BE76A
:204A2000FBA674E1CEB450E543FCF8DE5E45A081DE08B270B504C460D3251AD249686E3ECA
:204A4000A7551AF645D3845D144E9816C69B50C315157430365F973388109380C1C7F06518
:204A600028EC16CA7AB892E9B6BB49B8DDCCC9EC5A766BBEDEC777713D82C0B1792A3DF639
:204A8000D6CE1922D0579CB1C74F53CD4CD4C435B1F7CC482AED8CA4E20B1D04A3172B7707
:204AA000EF85C585DF3501CDE10E2A95E9DC239B2A7DBEF25940B788FF1480558E07EEBCCF
:204AC000EED2179B64990CF362677DBF336E1B138DBD863748FECAC0139C9662C481F55C80
:204AE0004BC52D55F7BC915BEE020CF3B44DA918DBA547C0B5778F2A3EE8CC3285A2F1200C
:204B000019EB6DC18A19942D0831E36580D6C5E0FE08DFB09F83B612709200A0E9BC0F3579
:204B20005153DF1AB6B06DC341A19F0993C4442F2E1B88EEBBAD8EAB2E206AF17137D1FD6F
:204B400037ACC5D2D78BDBD135DB08DC7C9CB320C93A7CD081B9F419C089A798D4C7AC3257
:204B6000DE67DC5C8E53C00FCDD56967E228EB6F8A331D7C855AC550CB019DD14FE884787B
:204B80004080960BC0FB57654FAD2C8EA70C99A13E3347533122C3D23D15160DFB96E4D5E8
:204BA0008F0BBD1A8F5439FBBC3981A6C78F1D760EC6DD52181497B6B22ADC1F2876968B56
:204BC0002C81DD14D2EEE546446E7DD2CF170729B59238C04910666F1C20D53EACF9C6B25C
:204BE000D0DA98465566259503546F6DDEBD6E59CF61618DEC5BCF9C52F22CD891FAEB3E57
:204C0000F02C601FF1B8DC58AE0EBADAFE15A8CD25478AE54B7910800ACBE2CE955348B6AA
:204C200022226691B79CBC4C1EE9D7BBF2FA60893FC9C469C91ED3AF6D3C38A5C5C9D98560
:204C4000ACE07AC743FF84E32A593A7F14760780E6B7F0DF26F73C8CE100A40E4753715D45
:204C6000440C946539664E9327D9BA66FAB6B460D85CFDBDFCFA643A80A24830ECFC8138CA
:204C80000EBF4799729B56707352E65E6ABAF96F1C6CFD5689163979F48B9145A8F7923617
:204CA00023512B0687A93329BE7DE403B6E164B3569A43231EF15349B563BF9753F2D377F5
:204CC0006CF2412567F1D64C841BCAB0FC39CB72FF87BEA9FDA19A65831545E72D8951B501
:204CE000CB14CF24584C22095302576BC37205219555843D3E1AFD7BEF00CA56864FF7A5A6
:204D000095B74104086070892C647D02EAE2444674444B33E3C87AF728CEA0EF36BC5DDE38
:204D2000732594D7FCAC7DBD987C469387D2F3E2B37DC90EB91FF94378CBCC069293C4F169
:204D4000B4DE757F8D5B548B9E519CC767EC322C5CB16F44C365F52A5952DB9DEB173CEBB0
:204D600047C897C842E4976ACDF49FE5F0A05E40D8125B90CC0790269F6E64E2DFE364B99B
:204D800010CEBD276475C5C0945F1C09A8D4479478F5C4D84E301887A4ADF187CEF0C03CDB
:204DA000D0F4279E3DDC896EDB8F8E95DE868BFDC58D0A8B793C3DB1A11F5C85A820F6CD2B
:204DC000111501A26B75A0CB401F13ED422812D435339C55C72B00C0DEBCEB4AF108E6FC5B
:204DE0005769E07FF15C9577DF1DC621658195454226B518FF892E98F080DCFE6392B46EB4
:204E0000FF4E5E73C53981C0EAB1080F3B56A77F656BFBAD94066807F939A9431A0C3C0BC0
:204E20005359AC62ED915A701046C50A38AC51ABA2C8613B592314350F68301527AD7F6F22
:204E40001D9C521D5DDF63C6092F4EF97A062EEFA22ADAD4F9E2883717B1CB5518297BFDF4
:204E6000BD6F6ABA0E73CC713239711F92925EB2F12617ECD788D8CBB6F436234C1155FB29
:204E8000A24C91F08CC1F9712599AF1040260BB0293B27110DE2387A1EF5D32E3C4767848F
:204EA0007F36EB23C06C1A799D586D99975609FD7FF60C922DE0287BB0A59BEDF6B5B43B48
:204EC0005F6641B97ABFAFB1E8ED7D261235594208E7E827F41F2EAC3045DCA2D233958325
:204EE000CCBA8F6931FCE31E2CE2480FF563D2C2AD61E97A0EFBA0A53FFAB19B0E09A9B4FD
:204F000045CE5793665E1F1ACC1C4D6487600E3911B106D8635013F7AB87007BD81BFAD108
:204F200019CC05E37C547944AED6DCAFF0AE401056A1FAA49A5B813A8BA492410C4DB3A720
:204F4000A9CFA07ED7153E476436FF302791A0943E7CDE5DB22457B7C8B733725423BC1550
:204F60002C8AE5BDB489D10F6F394FE3FC0C126E3A350A115E0622D665429D20CA405FDBCC
:204F8000A7DF99683F123BAE71BEB79AFA9E47992C289AF3901DC84765796755EAF5D84129
:204FA00028A2C3E67173745CC3F6B4B835DF6F09676CEA19855E6982E8C404B87C1F4B0027
:204FC000D4C152B52F8F552A2B348352814188AB83FC6299C2E1F3DE4063C2B0001745D49C
:204FE0006BCA66CEADDD1BFEE62E1C83352308F3C370B4B1C6F35B52A26E3509D0C7B235D5
:20500000553D4039530C9B40C1750B1F286FB63AE737C25C9C1EFC7DAE10742D5A01D888DB
:20502000F31378761072F4BB8218630D6DE0E64AF3E9541A7951F569B7073F48CB051D31EF
:20504000574398A7122EE094FC42A31C2A2DAD593F59918401FA714B1C1D01BA3470C408A1
:205060000D902457103BDA607FB3F2661259C9C7113D33995135FBC1518B38957D55E35CF8
:20508000BE37FDC7AF4267CD3F5ECA1BCC5F01E2A625EAF3582D89EFF15DB18A1B80789BC6
:2050A000AC320119A712CE883FB89E4C1664BF0E5EC523B02175CEC70809F427E894B278CE
:2050C0004699E4C94CD951FC7931827A3705C5BCDF9F8DB398391085A5C99914D15F7EBDC5
:2050E00026C1C80B073DE66778475D135797770CA5F3EB41ED9CF933D97C53D88EFDA10E92
:20510000E1C926625997106760E78C6E2F23E93F856AA375A0B59E1BDB8809C566FEFBF6A0
:20512000CB8309383109A90386F9CF0B4AD22180B4F404AD4EEB93A8784F2FB3992D2BBAC3
:20514000E5569922983767180707CF20234A950FFDDD8D11996FEF7A58F9CC453324E12B4F
:20516000ED72FB3BA90BB9F8DC3A38DA2ED35E0521EBCE59BFBE32A0C1A8C38951F71D729B
:20518000082C5FA4C12E7D26CC03177621E3FA78CC4ADD3A7291F311549701A38E7507396E
:2051A00008EBA1FBFC836877C504D6A7AB727E24E0DA419BB994F98143A5B1DFD535E8EF47
:2051C000678689B5CA7EEEBB464AA2F0EFF4BF8B4ACA12D2A36264CE35A6F19C4B59EFE951
:2051E0000D8EBCA9BF0CE3D439870B5A8694CF5B8B443ADF6D0D548754C005F78514534447
:20520000685574CCAB7CA883334C6D7CB30BE87F2CADE8904F9BB7FA36D3DF648628D9B340
:205220008102A1AB0BAE0065E6CBEEBBD98D81A77C33C76A19B2F25F5C5A50C7BC6D36A5CC
:20524000104EB62EC9AF58A97A042BF2AA242806F737F964637C0EAAE325903DF9F66FA007
:2052600008F3B91599D46C416402A1FECFDB630A48A4F3656C52479BB506EB900673914AC1
:205280007AC98EE0DC27DEE533D4CCD9827A51697BFED50DF2AF2F9D51F49A16E26CEE7FBD
:2052A000F4AA71CA10D228F5EE222EE9FB1BA553DAEE70449B947E1390DEEFCF8AEDD4A589
:2052C000ED5331579DF5C0F0DF55C9650F232C66449D81EFC6F3C3E32FE7B3BF091FBE1868
:2052E000FBB148ACC11D1E7A39B47083F548A82D4B84C4B1134D48B994E179C5E8D24B99B0
:20530000094138107D167E1D741CBBE4C1621B1EC4B96490522699E70BD8A831CAD77029E3
:2053200052F0D3DFA527A970003A0359F9ABA86580308CD1C764969D4928969A6FC2F853C5
:20534000BC212B71EC8A1EFCF7B8EB41852D2F63D421A09155D85EECE11657336ABB80D78B
:20536000AAE901FBEB9BF5E815BD31FC222955CEC05B6F92313F03682DBC2BDEB0695F9BD2
:205380007B42AA49BD2D6AF4DFBCA175F28F4F37A3FCFE774096A0E7826819F2D041F7EA05
:2053A000D5BFC53224F4C9435ED3A5F6CE7C9739E0FCFD9004F05FB6FAE3CBA4BB70C4E4C7
:2053C000EF4A3307E1F7AF174F75334324C633B8C87B261C53491247878051D892C0F06958
:2053E0009EAF8FABE23517B91694C003B4119F77ABF613BE4BF0A4146C3B8783D06BDFE4E3
:2054000090223DF48ABDEA1B6BDB101BAA2075282A172700C48313EFCD216811502ED356C6
:20542000E7A8A8E4D3498911B22BED2473DC3584C6C5584CBC03A0457EA655F856D6108D98
:20544000D9E0D0864585A5FAEDFF3BCF28C99CEAABFC6F902BB5FB593ADC02B2735B8F6DF9
:20546000C19B7593109B0AC512FBE1802133AFC057586136408985A8D28885FBFA4AF00CC7
:20548000FC0B11577DB355D6E10DE362FC6297D3E856A42BB341935A1926308C702309932F
:2054A00023498E5111156ED1B096D327C579D6251F6095BAB6B350F41826C5326839E3E0AF
:2054C000E16807C369C58C562FE04842942715EA5D9B82C466FFBEE17C098B665558053BB1
:2054E000BA201CAE6489DB8A572C2C3F78CC491F417793AFEDF5FABBD1A4506574FCCACB5C
:205500002C800A54241D7675176BCD7443C88BB768E90D5E715FE679055468A1499A394F8D
:20552000F0F94EA1D2112152387E00215857B9D034E679F9BC6FC4CD2052D7DE67430A5FAC
:20554000A2717581316DC67C31692CD705822F69AE5328DDE1DB8027BAFC7998BCFDF3D7F3
:20556000CAE8160C2A972A4C8F17CDC6EC4D91D351822C96B72DBC58B5AF92D304317669E0
:2055800005A206B71DDEF31F1D7B392BEE62B6F55C38B5671352BE314FB2902FE4D23F9357
:2055A00047597AD7A9DF86BD11C3113D6682096072B77F7D05ED33187D45C08FFAE6F85E13
:2055C000FE3E513B06D7C90A9DD41B2D109273E622800FA611C39B65B9D4DEC6F7058E5762
:2055E000F43DF774C7225645B0B5908CD0BC26ED0042E6A117D8EDA52D051CB3DC2FB3461C
:20560000803A03B96E0842A27C0EF72AF87A56F37483FEA38D86798B7852DFD05FF75A8EEE
:205620003396ECCDB6C1B089318FF3CFA6E285B6D8902F652920E1D75C87C5C1E085E877C9
:20564000B2E38C65D0A7B2C119D7D4F190011F6FB2F275EC52BF7DD5AA50C8466638ADE06B
:20566000D462398E002758453E940CECA1A54BFD6DF46F368D8762E59F2D618BAE1FE3B098
:20568000EBF9C3E5C80B6DAF234A2EACD8652C11633332B5FAADB4FD5134D80747797F1C3A
:2056A0002B8B0A2A43263B0AA8C7234FDBE4A962D9CB1DA03AA97AB26512D1CA48D5946410
:2056C0007E8181D2C9B8005D1CF251DE4BD8A8AFF954BB93CCA6340F63C5C6ED086C10BE76
:2056E00079FC8EAE30A83B080CE110E92348FBF57ACDA2D6695418EF11B79BDA381281AF63
:205700006F34028FB8BD062EA23597784F46C81AA0654567F51D035904B9C4C35C8A826C18
:205720007D80B82FFA7496B96F770AFAB751F196CFDF2476E9FD7C41398A8C2CCECD6B9350
:20574000591E094863F9FE19C695EEC4200474F551B7A71FB0745764A391DCEEAEA03BD769
:20576000B39DCA9102808619E79221D1BC4FE2B380F6BDC7FDD9575F4D4648564C7A057E52
:2057800010CA3B66C186B3FCFF9E65911761991A3B39E09E082BC116CE961529782A557ACB
:2057A000F3887A60184941F1B2A9476390225D35A4ABA4D08AAC3128CB4EC2715D3D621A04
:2057C00018EF0E4994547824B1FAC5AD118B4C1410EBFA44CE87F83CE879962B0EC960D8DB
:2057E0006D558450C5B5C63C10EF4EA264709B537A74BD8D1A6632312FA2E415C6CD151544
:205800001AF75EC05DDC66FA03FFFBB958D4D519016AD9E9CD48A1C76EF469547D76995744
:2058200007A55F3DCF40FCA14AF3519B5C1FD2AD40889F671B729B0B27469B80488C33536E
:20584000C258637E3BA78B91B90527F8458199FAC3996FF6FC9DF12DB2952023C239D0E666
:2058600078603092DB41B5F7A1DCB002C3C2F6DE01CF829F5DAB3CE14F7ADE80215B966887
:20588000D49953AE262DAA522885F584336887EA2E9901845CE41C9077D79165212A22260A
:2058A0001A406DFB722CC61C66222F67A71AB64675BB15C1824D7C7908D49BC31B8DA76414
:2058C000EE188EF153E99E39F7A2432F448C03F89D84842E1446F5E50227479FB260E20F41
:2058E000B5E8E290794487343FCAD2206F462A4D173E3A936E2AF69AAE2144F3E8CA1A0BD3
:205900006C82F667DED52E3AFFE5FF45FD7D7033FF79DDDD706C2F40401E82A66F02EE89F1
:20592000E95BD0FCE4CDDE0A74B2BC27B613099E947B29B345A779A5DCEE429EC256954AAF
:20594000C7602CFC03A6F0F288A17CDFA97AD1BA2ABF5CBCAD1284784D2EC937FEBB8B5769
:205960002B8BE08FFCA87BBD73982007A199DFF237AA9772CD74087EAC9B5DA43A2E7067B1
:205980004B13AAC58A02641ADE2B5630F17A1C3051EA4FE7CDF5AE41F315CD3BE905ACAA74
:2059A0001EE89782B51DC73B5F6AA46721FA969FA1B54E33839E8F286F28764521121AB8CA
:2059C0000541555BAEF3EC51ECCEB852875EBBEDD6F2AB9B3F009D6E42F430A795749BCBCE
:2059E000C870824B33370A8DA95A372978A11AEAC2F3F656D0D7943666D525E6E4C310BFF3
:205A0000B0A307AA46B4C3A2FA3C046FD0E901AB8FE7E081318A8D4494D85411D1CB1A30FB
:205A20006A810B7B982C2EB77A54596EBFCA7F21416EC843662152BE8E22C783F76AF7E605
:205A400071A760654D85804E1BA03648DEB48CE1F45E56DB743875922D77A50F68A57DB7C2
:205A6000F915764498239ADD16EDA18D941EB9D17316B51D22F43758F468FC2AD79183D979
:205A8000E7FFE8711FF4EC10C59937DD2501290087F9D00949B2544C8FA380627FEBDED0D7
:205AA0003A6645ECD0902F50E66089F173B3814125CD9B328040CC8F85A70EE4E9C99FAD98
:205AC000E79F07DBE4B34A4140529D6800B0A5B31E956111669C8783B4991C1ADF5FF06754
:205AE000686C6B48C4C88A1B289F743BA7555D86667046E659FEE2356219FF7595F1527EE4
:205B00000F7AE9C1A3AB58996B3E22E23345B949E23475C1412D103D8F2B65531AE6AC7750
:205B20009B788022180091195DF409C7F6C4B16FBB6C8D03BBFDAD7A5DC9510B88E4E6D6B3
:205B400086839AE08FA24D50C6CEC235B00264D58DB5E3C95230DA96195E4120E3C06D4571
:205B600031A240678184CF88B5E692B12C87E5FDE49EC8DD7A6ED12ED5632399C3C68EAB18
:205B8000A10DF71FF78B5020C0073BD30826458D554B49B0D6F7060B00D711752D0E0A8CD5
:205BA000385EAD0FC8043ABCE80B79498BB3125A04C61F6034A88BC6212610F6C0763E62D9
:205BC000FC8CCCC62CBC7A4E62691ADB7B2031960C82759D525FE8761CEF1A28A5CD18460D
:205BE0001F5A1FF9E32A582ECDED01953B8E012E09F65E706551A37A6399FF6EA9F5AB5A8D
:205C0000EDFD2E0EC14DDCE107415F584F7EE3047AED2FFE6008AA19E907078B956CA2F10B
:205C20004DC367C8E48B8C410AE42027E0565B320D4152C4EB1A5A8ED73B65A78493025A0F
:205C4000A13F3F428E3AFDEB0231C5CEF86106D6EFCFB094EECF369F2DC8E75060E68D465F
:205C60001F0EE4F8F85E416221B93D39C279798081C772866A8D4474F55E6E593DEA385ADC
:205C80005F399E48515FC957D92D134DE78EAD86584191D85D261068C4654E2FA10D57F10F
:205CA0007F2D724A48968E6DB2CA7D5BDFCE16668DD8DD8BD2FC335E0529C3D934758CD625
:205CC00082089419296996F2804B2067DD29EB6288CD68ABD5DA7EAD6B0290A13AB2C86CCE
:205CE00043326502AB9385E5096A658A2F01242E66A5B262F7B097C0A342394A277C360BD3
:205D0000FEE4A8CCC9C0A376011E86752CC3E83F99932B6B3D77D5118FFD039B2332B39439
:205D2000CCE024F15F6F9C04BCAD01BD0990EF3FE5FA34372DAC3B3A6A571C0CC5F73CA825
:205D40005B27EFA0B0F352CB34AC39FD7870660AE7ADC47F93D7133F7C6C7781DDD08BF960
:205D6000CEB8ECB54EF1516920398AE755EE144CDB12AD7EF68AFC19EA663A88236CE02246
:205D8000A278730CAE2A3C4A01EBC332561B69C77F2413386022B1E423CE70106313462F29
:205DA000BFB498D4CD30A12A9796DB0B60BC63E4EF243E7195422F4D6ADFA4E600DE34F7D5
:205DC00021931F15D2ACF0D76012B07D6E25291CE33E6C8C0970BE15389C580C6A27F29768
:205DE000AAE51EAC70301117655BA57CEA16509A78934E0FF39DD0F6A8A55322D699AB8598
:205E00003E6F85CAE7F6CA0CDB30D80CBF348C63615CA850E4B50EB048811A219F493B7D52
:205E20003806FAED7199092FD67479C2A574B000A78030A95B44481B0F4FCF64A431CB6713
:205E4000E66236436F322D00579B4BA0B6C8F991102529D9B3ED04286AEE7343530D8A27AC
:205E6000C0617732352359506175E57558F39E5097106DA237E54EAB98060211F0826B8015
:205E8000832F92AB961C510C0C5EB699A5F7885FF2CF5E4A71553EB7AFCD072842B2D7FF2F
:205EA0000A9CDB3E6FC861C13D44358A8036618652091085152F34E2E56D76C954F56DCB91
:205EC000E11F44A1670FFD3281C1A22AD92C10755F76DF8470031B65975E737BD2AA46F0E0
:205EE000BEFBC6AE7E8A3DEC00B8165A4BC480C8C3C0BB9F5273C82577D951A391B3F6E9CF
:205F00009BD6862B85CEC99C4BDA64CCEAF83FF3DED9819E276D2F0202C797921B9424DC02
:205F2000C663BDE1CCF70484E425A2ED286A67B34D20B0DD96CD9AB280AC10A67A16BC45EF
:205F400010783F7F591F4FF6D9712E2DDDEEB976846E78C674C87B7DA57C3BE9804E59D7F8
:205F6000DA291ED0B97D477E99042D76B6BED3729E49505CF22A2617D39E5E4952A6BD6023
:205F80007082ABFF577D8396235B21AA76FFC4C453EC9B2E30EC8FD9B5D5F314DE50DB5CB0
:205FA000A4796D7BCE4B0EC4F94916FDDFC290F4F1795BB29843867873BE0C6C91C37AE2CE
:205FC000A0E5E98E66EAF578A6FD874F3EE81F319DFCC4BFFB186EBFBB0A7C310FFDC03A45
:205FE0005DFBE70FF5330441F4FA18776C6CEBCC976B262F6C6701C790A93B6FA8E2F16129
:020000040800F2
:2060000088BFAA9437036ED19B237E6D567943461AE89F6D81405764ED70ABD2EEBFF8CFA9
:206020009A9A4E7216AAF5330D4ACBC9A510C5F18F79CCF18B50A6294EA1C6CB62D01E0EE1
:20604000B875B24844EB6610693BEDA6A08906ED8612AFE6B2E37960527157A5B97D4F2C16
:20606000B15117DE95B70ADA9F2F0F350E989C4677CF06F63875A4D8D7889A1CBCAC7E04F5
:20608000CCA354E3350C85339B01300931AD677F1FE3C3084BA6AEB395FE37254FE384E51F
:2060A000D662F88537317B503C95D0FB48CBFC4F3F09B252439E6A64021397B2F2F1140AA4
:2060C0005B711FCEFFF22DC7400CF8DB70CE28A8D27A2794CFE331BE7C071D6E7DC6141DCB
:2060E000183A4E2103BA4F5E29750CBBA7D3B6641D6444573FCA2B7A34D019E051250863D4
:206100000CA7D6F0524D4FE7157A97600FDCFE25D25272EEDBE19DE0805A8EF57EBF8FE7D0
:20612000BF287C9A7A2709EF351C5991EE39C33D89F3D0E8929F0179A6FA8E257CFB59B2B3
:20614000AA69975249790FA03123E21A424306A61A8BE40238C1B51273540D8D29140DC695
:206160000A1D0F2E26C0ECFFA891583E14E534C27B91D3FB1FE09E088E7F25B6B3422FF2AF
:20618000FF9B336D8AB76CA634163D0B6DD4961D15CBA4610B3D151B2B8DE2CE1FA42CDA5E
:2061A000C7DD1B9309B52904D1DCB42FA0BA0CD748785B1AA53FB1BCA88AE338282D7B58DA
:2061C0005B4106D54931ABA33BF248C78CEDA91CCCFD54117459D0A2E35ED8A2C69206BFC1
:2061E0002FCA0E472EE1F2106D7EBDC164EFB39FC92876D91CF8524DEF2EA02C7C4DEA2B78
:20620000A120B66EADB8458AB94C1678E3ECE3E74F2FDBBEB382F706F04676BE9DC8161DEE
:20622000032488CD9EE7350D02A734196710A37525EF54DCBDADCABBDFAC4AEFC3770AA2B9
:20624000BD43503BBFAD49CBD9259F6531C10832490A6A285E608790698374031C59D7613B
:20626000E5885B4328D7AF70684E59AD4C9C32A28EBB966DD877D972A72FEDAA8C2B46E24B
:20628000BBF879174AE0F31AA323D64CD2E239D28DC86A0F00099E4F59FF67A453E423DA82
:2062A0006173C93291152456A4EFAE1FD81471BDFD5491241CA7D76CCCF69950255B50717D
:2062C000A6F335D212E1540734B45DF9B4F419938F4DFFCFC6595B246E32EA29794F14B6B1
:2062E00031B9198CB8DA7B2717150AA71F47EC26DA1C25C425F5349420AA4EEFD359A14FA2
:20630000B356C56530B7A89FF309C19A7854560B79F8C260A07E269B3C6E2AC35291374134
:20632000F96EE42597D1C1AAB058B54DFF6E6814E20FF849D6EE82AA72E06F5D2E97BC3531
:20634000FF5E4EA6E26B50D59625171FF0878306E327850ACFFDE2A2F7F1AA43CE8C8BB630
:206360000E4215B6F76840AF2DBDC7359C091B276E2B2A31DADF8839C33A94A7CA05D3138C
:206380009B52424AEB9EFD92565EAC282EC8A7D4B768C5289B6AFABBD2E78D00DB1A7E3FB5
:2063A0007605FACCBD3DD96377E87AE80C5BE822A4524E00688869AA1F3F7EB182F43CAB03
:2063C0008B432B900687D8F1D1CC2C6496126B8716C1A3D06AE65DA7B84B36DE6DA87C656C
:2063E000A8C3066E258133CD1F7476AFC2D653E1A2F8CF1538D19921EB5D3A8163BAC5511D
:20640000B40B55B13E5CB29052E91D929864ED198C692C84F3E64F4FD38201C86A20E40A3D
:2064200096C072FD7280086CB6EC5B837BA15A463D93B032DD3E3C5CCFC11D458C72EBECC9
:206440008103D9F02A7EAB85F2EA0B68D3ED7E313F4D2AE461C05EB2EB1969D0416BDC3891
:20646000C351CC44181728048EE61801ACBEA7BD7CD270D1F4BFA3CE7288A0DDF0B448D557
:20648000DD8FBF1A559767B4290C428FEFD953F1D04D75D2583FD7612469DA42707997CE74
:2064A0009C3515900581A75F6EEFCBB982635528204C361F6C00DE1EAB95F9BFEE643B8A5F
:2064C0005A5ABD1D3CB56BE7B655EEB42D9A9D5E5986E2164ED7E44DBCACAA1004C70A5DFB
:2064E0008EF879ADC4D76215282F2BFC2F8BC6D87E5AF23264387B81276625355E63571D58
:206500001F81F2439BDC394F93B24445D84D48E066544BCE47A7C5E48718AA2B8CF2335CA1
:20652000DA1E802825CBB9F92C7FF44E83C9B25FAAD44527DFAEC19F8FCECC56BFAD71DEBE
:20654000EFA40EF50C474A604E9CC1C1454962A66EBA965DAA822CB5D6E0BAF2C3B1A73EC3
:206560001AEBA6FE34C6026E88B36750746C503BFA3B9B6DE6429082078668906F770F7F3B
:20658000D32A15576F137B8C3BBE103FF4EF6A9E145BFFA1526C47103111DE25D0487E8F48
:2065A00000FB4CCD7F427F584308126384ABDCC8832F8CE781B1CF45B531BE761AD6E14CFA
:2065C000D22880FE250FA57618A2B75B3C69C290C84C619B454DAA7F96A05B32F6DFDCF002
:2065E000A003EBC2A568256F59EACFE9852C178E4E38B0370142210419A1B2DC64CF1F2EBC
:206600005B1E1AF7490E4B1129C73F82E6937D57EE9710C44C12A1AC1F8ED1B1D46FE212D5
:20662000221FC888B20C0542BCFC4592DC0EC1E377B1CA22E01EB4B8C14F562E54DFC0D9C9
:20664000365C321F1CC4C042CC7C01E6ED44E625584C928074C1B40BF7C7F61609CAD97971
:2066600070AD17A56D66250B893742BE3E7BEB8F876DDFA783BD56EB6F097A33628EA20792
:2066800036C8E4888C6D277546C1FFEAB1341D7F503C92F2DD1998A6299DD3C07FFB3FB97B
:2066A0008D4D42B4D0CADB4C404A061A3AEC8CE82CEBB209EE565131A3AFB2EE6B967F8D6E
:2066C0007B8AEB1508870F7100A7342237053AA46B8C08C49DDA6B06EF361ADC68DEF97812
:2066E000BD03FECC06E040C0FDE940B5028E7F6759CDDF766C67CA2FC4BB2ACB88C0DFFCFB
:2067000030195501AAD5F72FDCE31E087D28D56D2453E00D839873D8993F4F5D48D2A1B7A9
:2067200023728DD55CCF8E116BABC237E258A82EEAAE6DE7CA4F371BD5ABBB7D3C233A6D64
:20674000BF5D9F7B3C20B5C5D618EE6A6F9C086AD3D2A0D4763D12FA1CD1E4D1982281BBFA
:206760003CA66FA942B15A2E6BE8F3ABC113B158BF315927D2E4FDFAC78AE728EF7015B92C
:206780009B0A16B08CAAF0130AAB90D1B21288E80E6DC42E60A60881AC0CC330F1D034036C
:2067A000DA199BCD4B281C55D7442E30CB3666288A27A03148C5353AE8578EF72D213A74D4
:2067C0008C4C8D28CC29357AF21E43026CF45D40EA646840C66985EFBEC411C58050E6058A
:2067E000B203F5C3AA62F08475A2781B8689FD9FBF9F17B35FA20C403E2F4DEFACE37252E6
:2068000082D681D47B84BC425FDD01B2EEA9EA8759422C48853424A361522805EF840FEBFB
:2068200067C87C9CF1FE091ED653742061276F7C71DE3EC88558BA114734C670F7B681D51A
:2068400097DB12E85C1A6F0F30B9C8EE067675FB9C569B1131505BAADE0A00605B6BA7F282
:20686000FC398A010CAC5B998103C7F44341BE19D749074CBE77EC3AA0B1855607F64BA030
:20688000F6C3FB452D0A96D64B8F98CDFE8AC1B9481B996D3D28D96ECB1B3090CE64EAA4A0
:2068A00078F7014997627E2A2028638EE4447B73A347CE928706B10030ABCA8698AF80A80D
:2068C0005032D4EEEF7B2023C7EFDD0F86F1DF2DA674443BCA1D411C10DD9A5881CB8F8B80
:2068E0004E33632BC886AD3E929F167B119793DB5CA05B0F0A75D2735BC154D29CDF0CA3E2
:20690000E63B66C4F8477868306692DAC9E7A9744E565D0AB5743B81273CC016F7F6B11067
