:100000000C9489110C94BA110C94BA110C94BA1175
:100010000C94BA110C94BA110C94BA110C94BA1134
:100020000C94BA110C94BA110C94BA110C94BA1124
:100030000C94BA110C94BA110C94BA110C94BA1114
:100040000C94BA110C9414B60C94BA110C94BA1105
:100050000C94BA110C94BA110C9481AE0C945DAD51
:100060000C94BA110C94033A0C94BA110C94BA1172
:100070000C94BA110C94BA110C94BA110C94BA11D4
:100080000C9429BE0C94BA110C94BA110C94BA11A8
:100090000C94BA110C94BA110C94BA110C94BA11B4
:1000A0000C94BA110C94BA110C94FBBD0C94BA11B7
:1000B0000C94BA110C94BA110C94BA110C94CDBDD5
:1000C0000C94BA110C94BA110C94BA110C94D1ADD1
:1000D0000C94A7AD0C94BA110C94BA110C94BA11EB
:1000E0000C94BA11084AD73B3BCE016E84BCBFFDCD
:1000F000C12F3D6C74319ABD56833DDA3D00C77FF8
:1001000011BED9E4BB4C3E916BAAAABE0000008090
:100110003F05A84CCDB2D44EB93836A9020C50B91F
:10012000918688083CA6AAAA2ABE000000803F004B
:100130000C94268A0C943AA70C94387B0C94427B3E
:100140000C94076F0C94EF890C94017B0C944C7BFE
:100150000C948F930C94B7910C940B7B0C94C76EFA
:100160000C944D9E0C94D37A0C94DCA60C94EF99CD
:100170000C9413A30C94CD6E0C94A4A30C94E66E73
:100180000C94F06E0C94BA130C94157B0C941F7B9A
:100190000C941C9B0C94086F0C9418A70C942E7B49
:1001A0000C94CD9E0C94E77A0C94F78D0C94DC6E35
:1001B0000C94058C0C94FA6E0C94F17A0C94C09605
:1001C0000C9431940C94D6DC0C94CE7A0C94BFA78A
:1001D0000C94EE8D0C9409A70C942CA70C945791B9
:1001E0000C940C6F0C9472A70C94C67A0C948BDE52
:1001F0000C94607B0C94F46E0C94567B0C94026F00
:100200000C94C01F0C949F130C949E130C94E26EDC
:100210000C94F97A0C943BA10C94DD7A0C94D96E71
:100220000C94EC6E0C948F970C94D56E0C94FE6E1F
:100230000C94D16E4E414E494E495459494E46CDCB
:10024000CCCC3D0AD7233C17B7D13877CC2B32958D
:1002500095E6241FB14F0A000020410000C842006B
:10026000401C4620BCBE4CCA1B0E5AAEC59D740035
:10027000407A10F35A00A0724E18090010A5D4E875
:100280000000E87648170000E40B54020000CA9A08
:100290003B000000E1F5050000809698000000405A
:1002A000420F000000A0860100000010270000009F
:1002B00000E803000000006400000000000A0000E5
:1002C0000000000100000000002C76D888DC674F99
:1002D0000823DFC1DFAE59E1B1B796E5E3E453C6C9
:1002E0003AE651997696E8E6C28426EB898C9B62C1
:1002F000ED407C6FFCEFBC9C9F40F2BAA56FA5F46B
:1003000090055A2AF75C936B6CF9676DC11BFCE092
:10031000E40D47FEF520E6B500D0ED902E030094E5
:100320003577050080841E080000204E0A0000007A
:10033000C80C333333330F986E12831141EF8D2184
:1003400014893BE65516CFFEE6DB18D1844B381BEB
:10035000F77C1D901DA4BBE424203284725E2281B0
:1003600000C9F124ECA1E53D27434F4D4D554E49C1
:10037000434154494F4E0044525952554E00455244
:10038000524F525300494E464F004543484F0014C8
:100390002D272B64222D2A2037642D30642E3137EF
:1003A0003064362D232C306564022D2A2064302CD5
:1003B0002164373421272D25286427253425262D2F
:1003C000282D303D64252A206431372164302C21CA
:1003D000642531302C2B362D3E253E2D2B2A6427CB
:1003E0002B20217E646976747672747470760A00AC
:1003F000142D272B64222D2A2037642D3064302BB6
:100400002B642C2B300A00142D272B64222D2A203C
:1004100037642D3064272B28200A004732382058B3
:1004200030205930005072696E7465722073746F99
:10043000707065642064756520746F206572726FDA
:1004400072732E2046697820746865206572726F19
:100450007220616E6420757365204D3939392074BE
:100460006F20726573746172742E202854656D70EC
:100470006572617475726520697320726573657445
:100480002E20536574206974206166746572207231
:10049000657374617274696E67290A004E6F204C2F
:1004A000696E65204E756D6265722077697468208B
:1004B000636865636B73756D2C204C617374204C9D
:1004C000696E653A20004E6F20436865636B7375F3
:1004D0006D2077697468206C696E65206E756D6239
:1004E00065722C204C617374204C696E653A200053
:1004F000636865636B73756D206D69736D6174639B
:10050000682C204C617374204C696E653A20004C55
:10051000696E65204E756D626572206973206E6F1D
:1005200074204C617374204C696E65204E756D6249
:1005300065722B312C204C617374204C696E653AC6
:1005400020004D313130004D3331004D38342058CA
:100550002059205A2045005344207265616420656B
:1005600072726F720A00446F6E65207072696E74E9
:10057000696E672066696C650A0020496E76616C59
:1005800069642065787472756465722000000000EB
:1005900000000000000000000000009B4300009BE2
:1005A000430000C9434730204633363030205831AD
:1005B000353520593135350042696C696E65617297
:1005C000204C6576656C696E6720477269643A0AEB
:1005D0000020706F736974696F6E206F7574206F7F
:1005E000662072616E67652E0A003F50726F626509
:1005F00020002066697273740A005A00590058007E
:10060000486F6D65200052756E6E696E6720696E69
:10061000204452592D52554E206D6F64650A004793
:100620003239204175746F20426564204C657665CF
:100630006C696E670A0028422961636B00284629AD
:10064000726F6E74002852296967687400284C29FB
:10065000656674003F2856296572626F7365206C69
:100660006576656C20697320696D706C617573695E
:10067000626C652028302D34292E0A0042616420E6
:100680005A2076616C75650A004E6F2062696C694C
:100690006E65617220677269640A0044656C6574F6
:1006A000696F6E206661696C65642C2046696C65B3
:1006B0003A200046696C652064656C657465643A2F
:1006C000006F70656E206661696C65642C204669F8
:1006D0006C653A2000202F002042403A0020403A2A
:1006E000004732382058302059300020573A004710
:1006F00032382058302059300020573A00205A3ADA
:100700000020593A0020436F756E7420583A00203B
:10071000453A00205A3A0020593A00583A004361BD
:10072000703A454D455247454E43595F50415253EB
:1007300045523A300A004361703A434153455F4C99
:10074000494748545F4252494748544E4553533AEB
:10075000300A004361703A544F47474C455F4C495B
:10076000474854533A300A004361703A534F465455
:10077000574152455F504F5745523A300A00436146
:10078000703A4C4556454C494E475F444154413AB6
:10079000310A004361703A5A5F50524F42453A3134
:1007A0000A004361703A4155544F4C4556454C3A06
:1007B000310A000725347E140C74130A7E03707608
:1007C00070764E0A004361703A5052494E545F4A67
:1007D0004F423A310A004361703A50524F475245F6
:1007E00053533A300A004361703A4155544F5245D1
:1007F000504F52545F54454D503A310A0043617096
:100800003A454550524F4D3A310A004649524D57EC
:100810004152455F4E414D453A4D61726C696E20C3
:1008200056657220312E37302E3020424C2028431E
:100830007265616C69747933442920534F55524372
:10084000455F434F44455F55524C3A68747470732A
:100850003A2F2F6769746875622E636F6D2F4D6133
:10086000726C696E4669726D776172652F4D617247
:100870006C696E2050524F544F434F4C5F56455257
:1008800053494F4E3A312E30204D414348494E4551
:100890005F545950453A3344205072696E74657202
:1008A0002045585452554445525F434F554E543A93
:1008B0003120555549443A63656465326132662D8D
:1008C000343161322D343734382D396231322D6371
:1008D00035356336326633363766660A0020643A49
:1008E0000020693A0020703A0023646566696E65ED
:1008F000202044454641554C545F4B6420002364FE
:100900006566696E65202044454641554C545F4BF1
:1009100069200023646566696E6520204445464170
:10092000554C545F4B702000504944204175746F02
:1009300074756E652066696E697368656421205000
:10094000757420746865206C617374204B702C2062
:100950004B6920616E64204B6420636F6E73746119
:100960006E74732066726F6D2062656C6F7720699C
:100970006E746F20436F6E66696775726174696F1C
:100980006E2E680A00504944204175746F74756E6C
:1009900065206661696C6564212074696D656F7599
:1009A000740A00504944204175746F74756E652057
:1009B0006661696C6564212054656D70657261744F
:1009C00075726520746F6F20686967680A00204B34
:1009D000643A2000204B693A2000204B703A2000F6
:1009E0000A20436C617373696320504944200A00F4
:1009F0002054753A2000204B753A2000206D617814
:100A00003A2000206D696E3A200020643A200020D0
:100A1000626961733A20004F66660A004661646548
:100A2000204865696768742000426564204C6576DB
:100A3000656C696E6720004661696C656420746F3F
:100A400020656E61626C6520426564204C65766548
:100A50006C696E670A000D2A3225282D2064253125
:100A6000302C2B362D3E25302D2B2A64272B202190
:100A70000A00342C74332A3F23272B20211B2D37C7
:100A80001B2A2B301B362B272F21301B37272D21DC
:100A90002A27211B2E3137301B30213C30390A00E8
:100AA00014282125372164232D322164302C216420
:100AB0002531302C2B362D3E25302D2B2A64272B2B
:100AC000202164252230213664302C2164146434C2
:100AD00025362529213021360A00142536252921DD
:100AE0003021366414642D3764292D37372D2A239D
:100AF0000A0047322F4733206261642070617261BF
:100B00006D65746572730A00205A3A200020593AC4
:100B1000200042656420583A20004D6573682070BB
:100B20006F696E742063616E6E6F742062652072EF
:100B300065736F6C7665640A00456E642066696C47
:100B400065206C6973740A00426567696E20666986
:100B50006C65206C6973740A002E0A0044656C652C
:100B600074696F6E2862696E29206661696C6564BC
:100B70000046696C652862696E292064656C65743D
:100B80006564005344207072696E74696E672062F8
:100B900079746520004E6F74205344207072696E22
:100BA00074696E670A002569730025696D202569DF
:100BB00073002569682025696D2025697300256902
:100BC00064202569682025696D20256973002569E1
:100BD0007920256964202569682025696D202569AB
:100BE00073005072696E742074696D653A2000500C
:100BF000726F7465637465642050696E0A006F6675
:100C000066008A0385037E037703690344454255E2
:100C1000473A004D3131332053006F6B002F2F20A6
:100C20000053657474696E672054726176656C2038
:100C3000416363656C65726174696F6E3A2000533D
:100C4000657474696E6720526574726163742041C3
:100C50006363656C65726174696F6E3A20005365F9
:100C60007474696E67205072696E742041636365A5
:100C70006C65726174696F6E3A20005365747469B3
:100C80006E67205072696E7420616E6420547261C8
:100C900076656C20416363656C65726174696F6E23
:100CA0003A2000205A00205900580020204D617839
:100CB0003A2000205A00205900580020204D696E2B
:100CC0003A20004F6E20004F666600536F66742016
:100CD000656E6473746F70733A20000001363726B6
:100CE00003FF3C3D380EFF2E303E13FFFF0C08097A
:100CF000FFFFFF1A1C18FFFF08440AFF43FFFFFF16
:100D0000FFFFFF3A200020536572766F2000206FAE
:100D10007574206F662072616E67650A0053657294
:100D2000766F200043290A0061626C656420286D9B
:100D3000696E2074656D702000436F6C6420657867
:100D40007472756465732061726520004D65736807
:100D500020706F696E742063616E6E6F74206265BF
:100D6000207265736F6C7665640A004D34323120F1
:100D7000696E636F727265637420706172616D6514
:100D80007465722075736167650A00546F6F206621
:100D900061722066726F6D207265666572656E6342
:100DA0006520706F696E740A00207A70726F6265D8
:100DB0005F7A6F66667365743D20007A5F6D696E59
:100DC0003A20202D3230207A5F6D61783A2020322F
:100DD00030005A204F666673657420004E6F2063A2
:100DE000617365206C696768740A00416374697691
:100DF000652045787472756465723A2000556E6B93
:100E00006E6F776E20636F6D6D616E643A202200A5
:100E1000526573656E643A20006F6B0020746F6FCB
:100E2000206C6F6E6720657874727573696F6E20C1
:100E300070726576656E7465640A0020636F6C6419
:100E400020657874727573696F6E2070726576654F
:100E50006E7465640A00627573793A207061757307
:100E6000656420666F7220696E7075740A00627521
:100E700073793A2070617573656420666F722075AE
:100E80007365720A00627573793A2070726F6365D8
:100E90007373696E670A004B494C4C20636175732C
:100EA0006564206279204B494C4C20627574746FE4
:100EB0006E2F70696E0A004B494C4C20636175734C
:100EC000656420627920746F6F206D756368206996
:100ED0006E6163746976652074696D65202D206389
:100EE000757272656E7420636F6D6D616E643A2009
:100EF00000000000000000000000000000000048AA
:100F0000420000484200008040000000005761722B
:100F10006E696E673A20486F6D696E672042756D25
:100F2000702044697669736F72203C20310A000298
:100F300002040000A0400000A040000000400000AB
:100F40009B4300009B430000C943FFFFFF62696EA3
:100F5000004D31313720494E56414C4944204441DF
:100F600054412E00473932205A25732045257300FD
:100F700062696E007C3C3E5E2B3D3F2F5B5D3B2CEF
:100F80002A225C004572726F722077726974696EF2
:100F90006720746F20454550524F4D210A000000D4
:100FA0002100240027002A002D0030003300010119
:100FB0000000040107010A010000220025002800AA
:100FC0002B002E0031003400020100000501080151
:100FD0000B01000020002300260029002C002F0018
:100FE00032000001000003010601090105050505A5
:100FF000070508080808020202020A0A0808040491
:1010000004040101010101010101030303030303BE
:101010000303040707070C0C0C0C0C0C0C0C02024D
:10102000020206060606060606060B0B0B0B0B0B4A
:101030000B0B0102102020080810204010204080D7
:10104000020102010804020101020408102040808C
:10105000804020100804020180040201804020101A
:101060000804020108040201010204081020408063
:10107000010204081020408000000A0B02090C0D38
:101080000E0807030401000000000000000000003B
:101090000000000000000000000000000000000050
:1010A000000000001211100000000000000000000D
:1010B00000000000000000000000000000005A20B6
:1010C00070726F6265206F75742E206265640A000D
:1010D000473238205A20466F7262696464656E0A2E
:1010E000004732390050726F62696E67206661692D
:1010F0006C65640A00205A3A200020593A200042C8
:10110000656420583A20005072696E7465722073CD
:10111000746F707065642064756520746F206572EB
:10112000726F72732E20466978207468652065722C
:10113000726F7220616E6420757365204D39393984
:1011400020746F20726573746172742E2028546548
:101150006D70657261747572652069732072657354
:1011600065742E20536574206974206166746572FD
:101170002072657374617274696E67290A00535432
:101180004F502063616C6C656420626563617573A8
:1011900065206F6620424C546F75636820657272DB
:1011A0006F72202D20726573746172742077697478
:1011B00068204D3939390A004D3234004D32332020
:1011C0002573004D3130362053323535004D3130E6
:1011D0003920532569004D313930205325690047A6
:1011E000393220452573004730205A2573004D3190
:1011F000303920532569004D31393020532569009D
:101200004D323400473238004D34323020533000F4
:101210004D343230205331004732390047393000E5
:1012200047323800473238205A3000473238004DB4
:1012300038340047312046323030205A302E3000CA
:101240004732380047393220452573004730205A4D
:101250002573004D31303920532569004D31393027
:101260002053256900473238205830205930005724
:10127000726974696E6720746F2066696C653A20C4
:10128000006F70656E206661696C65642C2046692C
:101290006C653A20006F70656E206661696C6564EC
:1012A0002C2046696C653A200046696C65207365A0
:1012B0006C65637465640A002053697A653A20009E
:1012C00046696C65206F70656E65643A20006F70CA
:1012D000656E206661696C65642C2046696C653AB0
:1012E00020002066696C653A20004E6F772000224E
:1012F00020706F73002220706172656E743A220054
:10130000535542524F5554494E452043414C4C2071
:101310007461726765743A2200747279696E67202D
:10132000746F2063616C6C207375622D67636F64EA
:10133000652066696C6573207769746820746F6FC7
:10134000206D616E79206C6576656C732E204D4141
:1013500058206C6576656C2069733A0043616E6E47
:101360006F74206F70656E207375626469722000FF
:101370002E0A006F70656E206661696C65642C20B2
:1013800046696C653A200057726974696E6720740B
:101390006F2066696C653A20005344206361726473
:1013A000206F6B0A006F70656E526F6F74206661FC
:1013B000696C65640A00766F6C756D652E696E697F
:1013C00074206661696C65640A00534420696E6923
:1013D00074206661696C0A004D3234004D3233204E
:1013E0002573006175746F25692E6700656E7175D0
:1013F000657565696E672022006563686F3A005005
:1014000072696E7465722068616C7465642E205018
:101410006C656173652072657374617274206974A0
:101420002E0A004572726F723A00290A0020627912
:101430007465733B20637263200053657474696E36
:1014400067732053746F72656420280020286361DD
:101450006C63756C6174656429210A0020213D204C
:1014600000454550524F4D20435243206D69736DE6
:1014700061746368202D202873746F72656429205D
:1014800000290A002062797465733B20637263202F
:10149000002073746F7265642073657474696E677D
:1014A0007320726574726965766564202800204D2A
:1014B00061726C696E3D563431290A0028454550E9
:1014C000524F4D3D00454550524F4D207665727349
:1014D000696F6E206D69736D617463682000486187
:1014E0007264636F6465642044656661756C742022
:1014F00053657474696E6773204C6F616465640A28
:1015000000F4010000F401000064000000E80300A2
:101510000000009643000096430000A0400000C871
:10152000410000A0420000A0420000C84300000C9F
:101530004320204D383531205A005A2D50726F62A9
:1015400065204F666673657420286D6D293A0A0020
:1015500020440020490020204D33303120500050DD
:1015600049442073657474696E67733A0A00205A9F
:101570000020204D3432302053004175746F2042DA
:101580006564204C6576656C696E673A0A00205A7E
:101590000020590020204D323036205800486F6D11
:1015A00065206F66667365743A0A00204500205A0C
:1015B0000020590020580020420020540020204DD7
:1015C000323035205300416476616E6365643A20A1
:1015D000533C6D696E5F66656564726174653E203B
:1015E000543C6D696E5F74726176656C5F666565AB
:1015F00064726174653E20423C6D696E5F7365671D
:101600006D656E745F74696D655F6D733E20583CE7
:101610006D61785F78795F6A65726B3E205A3C6DC8
:1016200061785F7A5F6A65726B3E20453C6D6178D8
:101630005F655F6A65726B3E0A00205400205200AD
:1016400020204D323034205000416363656C657258
:101650006174696F6E2028756E6974732F733229F7
:101660003A20503C7072696E745F616363656C3ED2
:1016700020523C726574726163745F616363656C70
:101680003E20543C74726176656C5F616363656C87
:101690003E0A00204500205A0020590020204D32EB
:1016A00030312058004D6178696D756D204163635C
:1016B000656C65726174696F6E2028756E697473EC
:1016C0002F7332293A0A00204500205A0020590081
:1016D00020204D3230332058004D6178696D756D92
:1016E000206665656472617465732028756E69741F
:1016F000732F73293A0A00204500205A0020590010
:1017000020204D3932205800537465707320706565
:101710007220756E69743A0A0020204D32303020F4
:1017200044300A0020204D323030204400204469EB
:101730007361626C65640A0046696C616D656E7404
:101740002073657474696E67733A0020204D3134DC
:10175000392043203B20556E69747320696E204305
:10176000656C736975730A00202047323120202090
:10177000203B20556E69747320696E206D6D0A00E0
:101780007A5F6D696E3A2000795F6D696E3A20006C
:10179000785F6D696E3A20005265706F7274696E81
:1017A0006720656E6473746F7020737461747573F1
:1017B0000A0020746F6F206C6F6E672065787472FA
:1017C0007573696F6E2070726576656E7465640AF4
:1017D0000020636F6C6420657874727573696F6E36
:1017E0002070726576656E7465640A0024F4D430E6
:1017F00050C38E20C2A24017828B7011127A910DB5
:10180000816CD90AA861E108C7586607615143068F
:101810001E4B5D05C145A7041A411104093D9803FB
:10182000713931034036DB0265339102D430540202
:10183000802E1D02632CEE01752AC501B028A0017F
:10184000102781018F2564012B244B01E0223401F4
:10185000AC211F018D200D01801FFC00841EED00B6
:10186000971DDF00B81CD200E61BC600201BBC0081
:10187000641AB200B219A8000A19A0006A189900E7
:10188000D117910040178B00B516840031167E00E9
:10189000B31579003A157300C7146F0058146A0025
:1018A000EE1366008813630025135E00C7125B0009
:1018B0006C12570015125400C111510070114F00E5
:1018C00021114B00D61049008D10470046104400EE
:1018D00002104200C00F4000800F3E00420F3C004B
:1018E000060F3B00CB0E3800930E37005C0E350020
:1018F000270E3400F30D3200C10D3100900D300081
:10190000600D2E00320D2D00050D2C00D90C2B0082
:10191000AE0C2900850C29005C0C2700350C270033
:101920000E0C2600E80B2400C40B2400A00B23009F
:101930007D0B23005A0B2100390B2100180B2000CE
:10194000F80A1F00D90A1E00BB0A1E009D0A1D00CE
:10195000800A1D00630A1C00470A1B002C0A1B009A
:10196000110A1A00F7091A00DD091900C409190043
:10197000AB091900920917007B09180063091700C9
:101980004C09160036091600200916000A09150030
:10199000F5081500E0081400CC081400B80814007D
:1019A000A4081400900813007D0812006B081300AF
:1019B00058081200460812003408110023081100CC
:1019C0001208110001081100F0071000E0071000D4
:1019D000D0071000C0071000B0070F00A1071000CB
:1019E00091070E0083070F0074070F0065070E00B4
:1019F00057070E0049070E003B070D002E070E008B
:101A000020070D0013070D0006070D00F9060C0056
:101A1000ED060D00E0060C00D4060C00C8060C0014
:101A2000BC060C00B0060C00A4060B0099060C00C6
:101A30008D060B0082060B0077060B006C060B0070
:101A400061060A0057060B004C060A0042060A000F
:101A500038060A002E060A0024060A001A060A00A2
:101A60001006090007060A00FD050900F405090033
:101A7000EB050900E2050900D9050900D0050900B8
:101A8000C7050900BE050900B5050800AD05080039
:101A9000A50509009C050800940508008C050800B0
:101AA000840508007C050800740508006C05070023
:101AB000650508005D050700560508004E0507008E
:101AC00047050700400508003805070031050700F5
:101AD0002A050700230507001C0506001605070058
:101AE0000F0507000805060002050700FB040600B5
:101AF000F5040700EE040600E8040600E20407000F
:101B0000DB040600D5040600CF040600C904060065
:101B1000C3040600BD040600B7040600B1040500B6
:101B2000AC040600A6040600A00405009B04060001
:101B300095040500900406008A040500850405004C
:101B4000800406007A040500750405007004050091
:101B50006B04050066040500610405005C040500D3
:101B600057040500520405004D0405004804050013
:101B7000430405003E0404003A0405003504050052
:101B8000300404002C04050027040400230405008D
:101B90001E0404001A0404001604050011040400C5
:101BA0000D040400090405000404040000040400FA
:101BB000FC030400F8030400F4030400F003040031
:101BC000EC030400E8030400E4030400E003040061
:101BD000DC030400D8030400D4030400D003040091
:101BE000CC030400C8030300C503030024F404D994
:101BF000201BC40C5C0E9804C4095F0265077101C8
:101C0000F405F900FB04B30048048700C103690030
:101C10005803550003034500BE023A008402310018
:101C200053022A002902250004022000E4011C00BE
:101C3000C8011900AF0117009801140084011300B6
:101C4000710110006101100051010E0043010D00EF
:101C500036010B002B010B0020010B0015010900C0
:101C60000C01090003010800FB000800F300080054
:101C7000EB000700E4000600DE000600D8000600C6
:101C8000D2000600CC000500C7000500C200050018
:101C9000BD000400B9000400B5000400B100040058
:101CA000AD000400A9000400A5000300A200030089
:101CB0009F0004009B0003009800030095000200B1
:101CC00093000300900003008D0002008B000300CE
:101CD00088000200860002008400030081000200E8
:101CE0007F0002007D0002007B00020079000200FC
:101CF000770001007600020074000200720001000B
:101D0000710002006F0002006D0001006C00020013
:101D10006A0001006900020067000100660001001E
:101D20006500010064000200620001006100010022
:101D3000600001005F0002005D0001005C00010026
:101D40005B0001005A000100590001005800010029
:101D50005700010056000100550001005400010029
:101D60005300000053000100520001005100010027
:101D7000500001004F0001004E0000004E00010025
:101D80004D0001004C0001004B0000004B00010021
:101D90004A0001004900010048000000480001001D
:101DA0004700010046000000460001004500000019
:101DB0004500010044000100430000004300010011
:101DC000420000004200010041000000410001000B
:101DD000400001003F0000003F0001003E00000005
:101DE0003E0001003D0000003D0001003C000000FD
:101DF0003C0000003C0001003B0000003B000100F3
:101E00003A0000003A0001003900000039000100EA
:101E100038000000380000003800010037000000E2
:101E200037000100360000003600000036000100D7
:101E300035000000350000003500010034000000CE
:101E400034000000340001003300000033000000C3
:101E500033000100320000003200000032000100B7
:101E600031000000310000003100010030000000AE
:101E700030000000300001002F0000002F000000A3
:101E80002F0000002F0001002E0000002E00000097
:101E90002E0001002D0000002D0000002D0000008C
:101EA0002D0001002C0000002C0000002C00000080
:101EB0002C0001002B0000002B0000002B00000074
:101EC0002B0001002A0000002A0000002A00000068
:101ED0002A0001002900000029000000290000005C
:101EE000290000002900010028000000280000004F
:101EF0002800000028000000280001002700000042
:101F00002700000027000000270000002700010034
:101F10002600000026000000260000002600000029
:101F2000260001002500000025000000250000001B
:101F3000250000002500000025000100240000000D
:101F40002400000024000000240000002400010000
:101F500023000000230000002300000023000000F5
:101F600023000000230000002300010022000000E5
:101F700022000000220000002200000022000000D9
:101F800022000100210000002100000021000000CB
:101F900021000000210000002100000021000100BC
:101FA00020000000200000002000000020000000B1
:101FB00020000000200000002000000020000100A0
:101FC0001F0000001F0000001F0000001F00000095
:101FD0001F0000001F0000001F0001001E00000085
:101FE0001E0000001E0000001E0000004D383420BE
:101FF000582059205A2045006265640A002C20733D
:10200000797374656D2073746F70706564212048F6
:1020100065617465725F49443A200048656174697E
:102020006E67206661696C65640048656174696EFD
:1020300067206661696C65640048656174696E67F4
:10204000206661696C65640048656174696E67202B
:102050006661696C65640070012C0190012701B014
:10206000012201C0011D01F001180110021301300D
:10207000020E016002090190020401C002FF00008B
:1020800003FA004003F5008003F000D003EB0020CA
:1020900004E6007004E100E004DC004005D700C065
:1020A00005D2004006CD00D006C8008007C300302E
:1020B00008BE00F008B900C009B400B00AAF00B013
:1020C0000BAA00D00CA500000EA000500F9B00C072
:1020D0001096005012910000148C00C0158700B0BB
:1020E000178200B0197D00D01B7800001E730040DD
:1020F000206E0090226900F024640040275F009069
:10210000295A00E02B5500102E500020304B0010B3
:10211000324600E033410090353C00103737007004
:10212000383200A0392D00B03A2800A03B230060CF
:102130003C1E00103D1900903D1400103E0F007031
:102140003E0A00C03E0500003F0000403FFBFF800C
:102150003FF6FFC03FF1FF544845524D414C2052DD
:10216000554E4157415900546865726D616C20525B
:10217000756E61776179004572723A204D494E540F
:10218000454D5020424544004572723A204D494E1B
:1021900054454D50004D494E54454D502074726980
:1021A000676765726564004572723A204D41585404
:1021B000454D5020424544004572723A204D4158E9
:1021C00054454D50004D415854454D50207472694E
:1021D000676765726564004D343230205331004DBD
:1021E000343230205330002020506C616E6E6572A6
:1021F00042756666657242797465733A20002046BE
:10220000726565204D656D6F72793A2000436F6D80
:1022100070696C65643A2041707220203120323040
:1022200032350A00207C20417574686F723A204371
:10223000522D3130532050726F2056320A00323006
:1022400031392D30382D323800204C6173742055CF
:102250007064617465643A200056657220312E37CF
:10226000302E3020424C0A004D61726C696E0020A5
:10227000536F6674776172652052657365740A00E6
:10228000205761746368646F672052657365740AD0
:10229000002042726F776E206F75742052657365EF
:1022A000740A002045787465726E616C2052657303
:1022B00065740A00506F77657255700A0073746117
:1022C00072740A006572726F722077726974696E37
:1022D0006720746F2066696C650A00205A3A0020F6
:1022E000593A0020583A00656E6473746F70732019
:1022F0006869743A2000446F6E6520736176696E78
:10230000672066696C652E0A004D323900008BDE4D
:10231000D6DC11241FBECFEFD1E2DEBFCDBF00E07F
:102320000CBF15E0A0E0B2E0ECE3F0EF01E00BBF82
:1023300002C007900D92A236B107D9F72CE1A2E6B0
:10234000B5E001C01D92A934B207E1F711E1C8E878
:10235000D1E100E006C021970109802FFE010E9413
:1023600059F7C738D10780E00807A9F70E94F3DFC3
:102370000C940CF80C940000CF92DF92EF92FF9235
:10238000CF93DF93EC01C090D606D090D706E090B3
:10239000D806F090D906A7019601688179818A81D3
:1023A0009B810E946BED87FF04C0C882D982EA82BC
:1023B000FB82C090DA06D090DB06E090DC06F0905D
:1023C000DD06A70196016C817D818E819F810E942F
:1023D0006BED87FF04C0CC82DD82EE82FF82C0906D
:1023E000DE06D090DF06E090E006F090E106A7015F
:1023F0009601688579858A859B850E946BED87FFAC
:1024000004C0C886D986EA86FB86C0901102D090A7
:102410001202E0901302F0901402A7019601688165
:1024200079818A819B810E9473F6181624F4C882F0
:10243000D982EA82FB82C0901502D0901602E09009
:102440001702F0901802A70196016C817D818E81A0
:102450009F810E9473F6181624F4CC82DD82EE82EE
:10246000FF82C0901902D0901A02E0901B02F090F7
:102470001C02A7019601688579858A859B850E9443
:1024800073F6181624F4C886D986EA86FB86DF918F
:10249000CF91FF90EF90DF90CF900895CF92DF9291
:1024A000EF92FF92C0900916D0900A16E0900B169A
:1024B000F0900C1680910D16882381F120E030E019
:1024C000A901C701B6010E946BED882339F120E014
:1024D00030E040E05FE3C701B6010E94D1ED9B010F
:1024E000AC010E94D1ED2BED3FE049E450E40E94A5
:1024F000D1ED9B01AC0160E070E080E89FE30E94B9
:102500000DF560934F16709350168093511690936B
:102510005216FF90EF90DF90CF90089560E070E04A
:1025200080E89FE3EECFCF92DF92EF92FF9260912F
:10253000051670910616072E000C880B990B0E9449
:1025400072ED6B017C012DEB37E346E855EB0E9401
:1025500073F687FD0BC02DEB37E346E855E3C70163
:10256000B6010E946BED18160CF043C0A70196014E
:1025700060E070E080E89FE30E940DF56093B7068D
:102580007093B8068093B9069093BA0660910716C7
:1025900070910816072E000C880B990B0E9472EDA3
:1025A0006B017C012DEB37E346E855EB0E9473F697
:1025B00087FD0AC02DEB37E346E855E3C701B601B6
:1025C0000E946BED1816CCF4A701960160E070E054
:1025D00080E89FE30E940DF56093BB067093BC06F4
:1025E0008093BD069093BE06FF90EF90DF90CF9052
:1025F000089560E070E0CB01C1CF60E070E0CB01F6
:10260000EBCF80E1E6E1F7E0A4EDB7E001900D92B9
:102610008A95E1F70895CF92DF92EF92FF920F93A0
:102620001F93CF93DF93EC01CC0FDD1FCC0FDD1F89
:10263000FE01E457F44E20E030E0A9016081718191
:10264000828193810E9413F4FE01EE51F94F2081A3
:102650003181428153810E9413F46B017C01FE01A0
:10266000E95DF84FC082D182E282F382FE01E35736
:10267000FA4F25913591459154918E010A52194F87
:102680000E9413F4F8016083718382839383FE01B7
:10269000E756FA4F2591359145915491CF5EDD4F24
:1026A000C701B6010E9413F4688379838A839B83F0
:1026B000DF91CF911F910F91FF90EF90DF90CF901E
:1026C00008958F929F92AF92BF92EF92FF920F93D5
:1026D0001F93CF93DF938C014A015B01EC01CC0F78
:1026E000DD1FCC0FDD1FCE018C52984F7C01C457EB
:1026F000D44E288139814A815B81CB01B4010E948B
:1027000012F4F70120813181428153810E9413F438
:10271000F701608371838283938388829982AA827E
:10272000BB82C801DF91CF911F910F91FF90EF9075
:10273000BF90AF909F908F900C940B13089590E0F2
:1027400080E008958FB7F8949091860620918506D1
:10275000291769F0E92FF0E0EB5FF94F208130E0B5
:102760009F5F9F77909386068FBFC90108952FEFD3
:102770003FEFFACF0F931F93CF93DF93EC010E94AB
:1027800051AD0E811F81288539850115110521055F
:10279000310579F52C85222339F1EA8521502C87E2
:1027A00021E02E0F2A873D85231301C01A86F0E011
:1027B0003196EE0FFF1FEE0FFF1FEC0FFD1F02857E
:1027C0001385248535850A831B832C833D83600F05
:1027D000711F811D911D6E837F83888799878C81EE
:1027E0009D81892B09F0409ADF91CF911F910F9124
:1027F0000895601B710B820B930B97FDF5CF4098EA
:102800001E821F8218861986EFCF8091A1079091B2
:10281000A207019759F40E9447747093A20760932E
:10282000A1071092F5061092F60608951092A207DD
:102830001092A107F6CFCF93DF93EC0190E080E0F8
:102840000E94DEB56093AB067093AC068093AD0634
:102850009093AE0681E090E00E94DEB56093AF06F3
:102860007093B0068093B1069093B20682E090E038
:102870000E94DEB56093B3067093B4068093B506EC
:102880009093B6068BEA96E00E94D4CCC436D1056C
:1028900061F48CE0EBEAF6E0A4EDB7E001900D9274
:1028A0008A95E1F7DF91CF910895CC0FDD1FCC0F12
:1028B000DD1FFE01EC52F84FC555D94F8881998133
:1028C000AA81BB8180839183A283B383EBCFCF9214
:1028D000DF92EF92FF92CF936B017C01C0911616AD
:1028E000C0921216D0921316E0921416F09215169A
:1028F0002DEB37E346E855EB0E9473F687FD0AC0DF
:102900002DEB37E346E855E3C701B6010E946BEDB6
:102910001816DCF4A701960160E070E080E89FE300
:102920000E940DF560930E1670930F16809310168B
:1029300090931116CC2369F082E090E0CF91FF9044
:10294000EF90DF90CF900C941B1460E070E0CB010F
:10295000E9CFCF91FF90EF90DF90CF9008958F92C5
:102960009F92AF92BF92CF92EF92FF920F931F93DD
:10297000CF93DF93CDB7DEB72C970FB6F894DEBFB9
:102980000FBECDBF4B015C01C090A70780911E0711
:1029900090911F07A0912007B091210740911A073D
:1029A00050911B0760911C0770911D07009116073D
:1029B00010911707209118073091190709831A837E
:1029C0002B833C834D835E836F83788789879A87C7
:1029D000AB87BC878091B40781110AC0AE01475F05
:1029E0005F4FBE016B5F7F4FCE0101960E9453CDBA
:1029F0008501740122E237E0AE01475F5F4FBE01FF
:102A00006B5F7F4FCE0101960E9432C02C960FB6AD
:102A1000F894DEBF0FBECDBFDF91CF911F910F9114
:102A2000FF90EF90CF90BF90AF909F908F900895C0
:102A30002F923F924F925F926F927F928F929F92CE
:102A4000AF92BF92CF92DF92EF92FF920F931F93BC
:102A5000CF93DF93CDB7DEB7EC970FB6F894DEBF18
:102A60000FBECDBF69AF7AAF8BAF9CAF5A8F498F86
:102A70003C8F2B8F8090D4079090D507A090D607DD
:102A8000B090D7078091270790912807A091290738
:102A9000B0912A078D8F9E8FAF8FB8A3A09101169A
:102AA000B0910216BEA3ADA3BD01BB0F880B990B5D
:102AB0000E9472ED6FA378A789A79AA78091B706A5
:102AC0009091B806A091B906B091BA068BA79CA7C1
:102AD000ADA7BEA74090D8075090D9076090DA07FD
:102AE0007090DB0780912B0790912C07A0912D0708
:102AF000B0912E0789A39AA3ABA3BCA3A091031600
:102B0000B0910416B8ABAFA7BD01BB0F880B990BF2
:102B10000E9472ED69AB7AAB8BAB9CAB8091BB062C
:102B20009091BC06A091BD06B091BE068DAB9EAB48
:102B3000AFABB8AF8091160790911707A091180717
:102B4000B0911907898B9A8BAB8BBC8B80911A073C
:102B500090911B07A0911C07B0911D078D8B9E8B38
:102B6000AF8BB88F2D8D3E8D4F8D58A1C501B4010F
:102B70000E9412F42FA138A549A55AA50E9412F46B
:102B80002BA53CA54DA55EA50E94D1ED0E947FF529
:102B90007B0194E0E916F1041CF093E0E92EF12C9E
:102BA000F7FE02C0F12CE12C29A13AA14BA15CA1B6
:102BB000C301B2010E9412F429A93AA94BA95CA948
:102BC0000E9412F42DA93EA94FA958AD0E94D1ED43
:102BD0000E947FF51B01643071051CF083E0282EF4
:102BE000312C37FE02C0312C212C2D8D3E8D4F8D86
:102BF00058A169897A898B899C890E9412F42FA136
:102C000038A549A55AA50E9412F42BA53CA54DA5AF
:102C10005EA50E94D1ED0E947FF58B0164307105A5
:102C200014F003E010E017FF02C010E000E029A15B
:102C30003AA14BA15CA16D897E898F89988D0E94F4
:102C400012F429A93AA94BA95CA90E9412F42DA952
:102C50003EA94FA958AD0E94D1ED0E947FF5643086
:102C6000710514F063E070E077FF02C070E060E08F
:102C7000E016F10621F56215730509F0A6C069ADED
:102C80007AAD8BAD9CAD0E94AF14EC960FB6F89464
:102C9000DEBF0FBECDBFDF91CF911F910F91FF908F
:102CA000EF90DF90CF90BF90AF909F908F907F90EC
:102CB0006F905F904F903F902F900C9401130E15E2
:102CC0001F050CF082C03E2D621573050CF467C120
:102CD000262FE016F10609F082C06215730579F21D
:102CE000822F022E000C990B01E010E002C0000FB1
:102CF000111F2A95E2F72B8D3C8D20233123232BA6
:102D000009F4BDCF20E1E6E1F7E0DE011196019084
:102D10000D922A95E1F72091071630910816829FAF
:102D2000B001839F700D929F700D1124AFA5B8A9BB
:102D30006A0F7B1F072E000C880B990B0E9472ED07
:102D400029A13AA14BA15CA10E9413F460931A0738
:102D500070931B0780931C0790931D07A30192019A
:102D60000E9412F46B017C01A30192016D897E899E
:102D70008F89988D0E9412F49B01AC01C701B601A6
:102D80000E940DF56B017C01A501940169897A8986
:102D90008B899C890E9412F4A70196010E94D1EDB3
:102DA000A50194010E9413F460931607709317070E
:102DB0008093180790931907009510952B8D3C8DE3
:102DC000202331233C8F2B8F7EC0302F621573055B
:102DD0000CF07ECF222DE016F10609F481CF832F6F
:102DE000032E000C990B01E010E002C0000F111F30
:102DF0003A95E2F7498D5A8D40235123452B09F42A
:102E00006CCF20E1E6E1F7E0DE01119601900D9232
:102E10002A95E1F72091051630910616829FB001A0
:102E2000839F700D929F700D11242DA13EA1620F02
:102E3000731F072E000C880B990B0E9472ED2D8DCD
:102E40003E8D4F8D58A10E9413F460931607709326
:102E500017078093180790931907A50194010E9402
:102E600012F46B017C01A501940169897A898B892F
:102E70009C890E9412F49B01AC01C701B6010E941B
:102E80000DF56B017C01A30192016D897E898F890B
:102E9000988D0E9412F4A70196010E94D1EDA30122
:102EA00092010E9413F460931A0770931B0780939A
:102EB0001C0790931D0700951095898D9A8D80238E
:102EC00091239A8F898F8090DC079090DD07A090E6
:102ED000DE07B090DF07A501940160911E07709195
:102EE0001F0780912007909121070E9412F4A701EB
:102EF00096010E94D1EDA50194010E9413F4609304
:102F00001E0770931F0780932007909321078090DE
:102F1000E0079090E107A090E207B090E307A501D9
:102F2000940160912207709123078091240790916A
:102F300025070E9412F4A70196010E94D1EDA50178
:102F400094010E9413F460932207709323078093E7
:102F50002407909325072B8D3C8D498D5A8D69ADA3
:102F60007AAD8BAD9CAD0E94181589899A89AB8981
:102F7000BC8989839A83AB83BC838D899E89AF8901
:102F8000B88D8D839E83AF83B88780E1FE01319633
:102F9000A6E1B7E001900D928A95E1F76BCD222D65
:102FA0001ECFCF92EF92FF920F931F93CF93DF9399
:102FB000CDB7DEB72C970FB6F894DEBF0FBECDBFEE
:102FC000C090A7078091DC079091DD07A091DE07F4
:102FD000B091DF074091D8075091D9076091DA0787
:102FE0007091DB070091D4071091D5072091D60787
:102FF0003091D70709831A832B833C834D835E83EB
:103000006F83788789879A87AB87BC878091B4075D
:1030100081110AC0AE01475F5F4FBE016B5F7F4FFA
:10302000CE0101960E9453CDE0902202F09023023F
:10303000009124021091250220EE37E0AE01475F97
:103040005F4FBE016B5F7F4FCE0101960E9432C081
:103050002C960FB6F894DEBF0FBECDBFDF91CF9197
:103060001F910F91FF90EF90CF9008958091FA05F6
:103070009091FB05009731F04AE050E070E060E08D
:103080000C94C0EA60E070E0CB0108950E9436180D
:1030900097FD0CC00E9436186F3F710581059105A0
:1030A00009F034F40E943618862F089580E00895C0
:1030B0008FEF08958091FA059091FB05892B41F0DF
:1030C0000E94461891E0811101C090E0892F089577
:1030D00091E0FCCFAF92BF92CF92DF92EF92FF923E
:1030E0000F931F93CF93DF931F92CDB7DEB76C0181
:1030F0008B0159018091001681111BC07B01E40EE8
:10310000F51EF601808191810E9489F38983F8017F
:1031100081938F01BE016F5F7F4FC5010E944C7587
:10312000F60180819181019691838083E016F106FA
:1031300041F70F90DF91CF911F910F91FF90EF908A
:10314000DF90CF90BF90AF9008950E9414BF0E946F
:1031500027CE0E944E1290E080E00E940B1381E087
:1031600090E00E940B1382E090E00E940B136091AC
:1031700012167091131680911416909115160E94D4
:1031800067140E947C750C949312FC0120E03EE2CF
:10319000DB014D91BD01403249F0283011F43083FC
:1031A0003196DB0111974C91408331962F5F2B3084
:1031B00079F71082089561E0FC0180810C947178A8
:1031C0008EBD0DB407FEFDCF08958FEF8EBD0DB4FB
:1031D00007FEFDCF8EB508958F929F92AF92BF925A
:1031E000EF92FF920F931F93CF937C01C62F49015B
:1031F0005A01FC019281892F806A86958CBD90FDD1
:1032000003C081E0963009F480E08DBD60E0F701F5
:1032100080810E9471788CE291E00E94E8718C2F8D
:1032200080640E94E01808E110E0D501C401002E7E
:1032300004C0B695A795979587950A94D2F70E94F2
:10324000E01808501109083FFFEF1F0771F785E9E3
:10325000CC2321F087E8C83009F08FEF0E94E018F6
:10326000CC3011F40E94E518C0E00E94E518F70187
:10327000838387FF04C0CF3F11F0CF5FF6CFCF919C
:103280001F910F91FF90EF90BF90AF909F908F9004
:1032900008950F931F93CF93DF93EC0189018C81E5
:1032A000833039F089E0440F551F661F771F8A95D8
:1032B000D1F79A01AB0168E1CE010E94EC18882396
:1032C00019F086E089833AC08EEF8EBDF801C801FF
:1032D0009E5F0DB407FEFDCF20812EBD0DB407FE0D
:1032E000FDCF21812EBD3296E817F90791F70DB475
:1032F00007FEFDCF8FEF0E94E0188FEF0E94E018CD
:103300000E94E5188B838F71853099F488E592E0EF
:103310000E94E871182F87E11123A1F220E030E02C
:10332000A9016DE0CE010E94EC18882361F086E1CE
:10333000C9CF83E18983CE010E94DB18CE010E94B0
:10334000DB1810E007C00E94E5188111F0CFCE0114
:103350000E94DB18812FDF91CF911F910F9108956B
:10336000CF9380916A0FC1E08823A1F04091620F52
:103370005091630F6091640F7091650F22E63DE0FC
:1033800080916B0F90916C0F0E944919C82F811189
:1033900004C0C0E08C2FCF9108954091660F5091EA
:1033A000670F6091680F7091690F411551056105B4
:1033B000710591F022E63DE080916B0F90916C0FCA
:1033C0000E944919882329F31092660F1092670F03
:1033D0001092680F1092690F10926A0FDBCFEF9274
:1033E000FF920F931F93CF93DF93EC0179018C81B0
:1033F000833039F089E0440F551F661F771F8A9587
:10340000D1F79A01AB0161E1CE010E94EC1888234B
:1034100039F084E08983CE010E94DB1880E03BC054
:103420000E9451AD8B010E94E5188B838F3F81F480
:103430000E9451AD601B710B6D327140A0F381E1B0
:103440008983CE010E94DB188FEF0E94E018E6CF3F
:103450008E3F11F08FE0F4CF8FEF8EBDF701D701D3
:10346000A150BE4F0DB407FEFDCF9EB591938EBD0A
:10347000AE17BF07B9F70DB407FEFDCF8EB58C931D
:103480000E94E5180E94E518CE010E94DB188FEF1C
:103490000E94E01881E0DF91CF911F910F91FF9082
:1034A000EF900895CF92DF92EF92FF92CF936B014E
:1034B0007C01C42F8091620F9091630FA091640FE3
:1034C000B091650F8C159D05AE05BF0501F10E94F9
:1034D000B019811108C0C0E08C2FCF91FF90EF9000
:1034E000DF90CF90089522E63DE0B701A6018091DC
:1034F0006B0F90916C0F0E94EF19882361F3C092BB
:10350000620FD092630FE092640FF092650FCC23AC
:1035100021F081E080936A0FDFCFC1E0DDCF4F92D1
:103520005F926F927F928F929F92AF92BF92CF9253
:10353000DF92EF92FF920F931F93CF93DF93EC01F3
:10354000423051056105710590F480E0DF91CF9123
:103550001F910F91FF90EF90DF90CF90BF90AF90B1
:103560009F908F907F906F905F904F900895898586
:103570009A85AB85BC850196A11DB11D8417950761
:10358000A607B70710F38F898031C9F5852E962ECF
:10359000A72EBB248B899C89AD89BE89880E991E74
:1035A000AA1EBB1E280139016A017B0141E0C50149
:1035B000B4010E94521A882341F29F89903181F50B
:1035C000DD24EE24FF24F601EE0FFF1FEE59F24F2B
:1035D000118300839A89923008F4B8CF4D815E81BF
:1035E0006F817885840E951EA61EB71E8092660F89
:1035F0009092670FA092680FB092690FA7CF8032A8
:1036000009F0A3CF8B899C89AD89BE894A015B01F2
:10361000E7E0B694A79497948794EA95D1F7BECF44
:10362000E894C7F8DD24EE24FF24F601EE0FFF1F17
:10363000EE0FFF1FEE59F24F408251826282738279
:10364000C9CFCF92DF92EF92FF920F931F93CF9348
:10365000DF93FC0181859285A385B4850196A11D28
:10366000B11D84179507A607B70750F480E0DF91D6
:10367000CF911F910F91FF90EF90DF90CF90089521
:1036800087898031A9F5BB27A72F962F852FC3885F
:10369000D488E588F6888C0D9D1DAE1DBF1DE901FF
:1036A0006A017B018F014091620F5091630F60911D
:1036B000640F7091650F84179507A607B70749F542
:1036C000F8018789803169F5B701A601552766277A
:1036D0007727440F551F4E59524FFA01808191812F
:1036E000B0E0A0E088839983AA83BB8381E0BFCF49
:1036F000803209F0BBCFC388D488E588F688DB0127
:10370000CA01C7E0B695A79597958795CA95D1F751
:10371000C2CF40E0BC01CD010E94521A8111D0CF2E
:10372000A5CFB701A6014F77552766277727440F06
:10373000551F440F551F4E59524FFA0180819181F8
:10374000A281B381BF70CECF4F925F926F927F9272
:10375000AF92BF92CF92DF92EF92FF920F931F939F
:10376000CF93DF9300D01F92CDB7DEB78C01498392
:103770005A836B837C835901C12CD12C7601412C57
:1037800082E0582E612C712C49815A816B817C8199
:103790009E012F5F3F4FC8010E94211B882319F112
:1037A000F8018585A301920104C0220F331F441F35
:1037B000551F8A95D2F7DA01C901C80ED91EEA1E33
:1037C000FB1E49815A816B817C8187898031F1F4AC
:1037D00081E0483F5F4F61057105B0F2F501C0829D
:1037E000D182E282F3820F900F900F900F90DF91C1
:1037F000CF911F910F91FF90EF90DF90CF90BF90EE
:10380000AF907F906F905F904F90089581E0483F18
:103810005F4F6F4F7F4008F4B7CFE0CF0F931F93F8
:10382000CF93DF93FC012381222331F080E0DF91ED
:10383000CF911F910F9108958B01EC01FB018789B6
:10384000803139F582E08B831D8A1E8A1F8A188E8B
:10385000808D918DB0E0A0E025E0880F991FAA1F10
:10386000BB1F2A95D1F7898B9A8BAB8BBC8B1A8F98
:10387000098F81E089831C821D821E821F82188627
:1038800019861A861B861C861D861E861F86188A28
:10389000CECF803259F683E08B83428D538D648D79
:1038A000758D4D8B5E8B6F8B788F9E012F5E3F4F9A
:1038B000C8010E94A41B8111DACFB8CF8F929F92CA
:1038C000AF92BF92CF92DF92EF92FF920F931F932E
:1038D000CF93DF93EC018B8181110EC080E0DF91EB
:1038E000CF911F910F91FF90EF90DF90CF90BF90FD
:1038F000AF909F908F90089509891A892B893C89F0
:10390000041715072607370748F34A015B01823081
:1039100031F488869986AA86BB8681E0E0CF81143F
:103920009104A104B10449F41C821D821E821F82ED
:10393000188619861A861B86F0CF088519852A8570
:103940003B85E98DFA8D858590E00996B901A8013E
:103950004150510961097109082E04C07695679597
:10396000579547950A94D2F775016401E1E0CE1AA4
:10397000D108E108F10804C0F694E794D794C794FD
:103980008A95D2F7C416D506E606F70620F0012B75
:10399000022B032B11F58D899E89AF89B88D8C83FD
:1039A0009D83AE83BF838E010C5F1F4FC114D10472
:1039B000E104F10409F4ADCF4C815D816E817F811A
:1039C0009801898D9A8D0E94211B91E0C91AD10816
:1039D000E108F1088111EACF81CFC41AD50AE60ABD
:1039E000F70AE1CF40E050E0BA010C945E1C3F9230
:1039F0004F925F926F927F928F929F92AF92BF92FF
:103A0000CF92DF92EF92FF920F931F93CF93DF93AA
:103A1000CDB7DEB72C970FB6F894DEBF0FBECDBF83
:103A20005C01DC0159968D909C90F4018185928512
:103A3000A385B4859C01AD012F5F3F4F4F4F5F4F72
:103A400029873A874B875C87D50114964D905D9006
:103A50006D907C901797411451046104710409F42E
:103A600059C0BFEF4B1A5B0A6B0A7B0A312C7301FA
:103A700062011D821E821F821886F4018185928553
:103A8000A385B4852D813E814F815885281739073C
:103A90004A075B0708F056C089859A85AB85BC85C7
:103AA0008C159D05AE05BF0550F482E0C82ED12CC3
:103AB000E12CF12C92E0492E512C612C712C9E01AD
:103AC0002F5F3F4FB701A601C4010E94211B88232D
:103AD000C9F189819A81AB81BC81892B8A2B8B2B7F
:103AE00001F1260137019FEF491A590A690A790A3B
:103AF0002D813E814F8158852F5F3F4F4F4F5F4F44
:103B00002D833E834F8358873FEFC31AD30AE30ABE
:103B1000F30AB3CF408051806280738033243394A2
:103B2000A6CFC414D504E604F70411F70FEF1FEF76
:103B30002FEF3FE0B701A601C4010E948F1A782E33
:103B400081111AC0712C872D2C960FB6F894DEBF08
:103B50000FBECDBFDF91CF911F910F91FF90EF90DE
:103B6000DF90CF90BF90AF909F908F907F906F909D
:103B70005F904F903F900895F50144815581668193
:103B80007781411551056105710539F0970186016D
:103B9000C4010E948F1A8823A9F2D5011496CD92F0
:103BA000DD92ED92FC921797332051F0D701C601B8
:103BB0000196A11DB11DF40180839183A283B3837B
:103BC000F50185899689A789B08D892B8A2B8B2B46
:103BD00009F0B9CFC58AD68AE78AF08E81818068DC
:103BE0008183B1CFCF93DF93EC01462F41706C8579
:103BF0007D858E859F850E94521A882351F0888981
:103C000020E2829FC00111248E59924FDF91CF9103
:103C1000089590E080E0FACFCF93DF93EC018B81A1
:103C2000882349F1898187FF22C061E0CE010E948B
:103C3000F21DFC01892BF9F08081853EE1F08B813A
:103C4000823040F489899A89AB89BC89848F958FA9
:103C5000A68FB78F8D899E89938F828F8D899E893C
:103C6000AF89B88DB58BA48B89818F778983DF91DC
:103C7000CF910C94B01981E0888380E0DF91CF91DF
:103C800008952F923F924F925F926F927F928F9200
:103C90009F92AF92BF92CF92DF92EF92FF920F93DB
:103CA0001F93CF93DF9300D01F92CDB7DEB78C0167
:103CB0004B011A01DC0113968C911397813009F0A6
:103CC000CAC011968C9181FFC6C082FDB0C061014F
:103CD000D80118964D915D916D917C911B97C114FF
:103CE000D10409F41AC159968D919C915A97FC01FF
:103CF00074802FEF270D2A013B0139E076946794F9
:103D0000579447943A95D1F7722E74207A01F1E0D6
:103D1000FF22711020C0E114F104E9F414964D91D2
:103D20005D916D917C911797411551056105710564
:103D300009F097C055968D919D910D90BC91A02D45
:103D40000097A105B10509F0A5C0C8010E94F71CA4
:103D5000882309F480C080E092E08E199F09560103
:103D60008C159D0508F45C01D80159964D915C9124
:103D70005A9714968D919D910D90BC91A02D02970C
:103D8000A109B109FA01258504C0880F991FAA1F4E
:103D9000BB1F2A95D2F74685578560897189840FA4
:103DA000951FA61FB71F9C01AD01270D311D411D99
:103DB000511D29013A01A11432E0B30609F078C07F
:103DC0008091620F9091630FA091640FB091650F85
:103DD000481659066A067B0669F410926A0F8FEF3F
:103DE0009FEFDC018093620F9093630FA093640FA9
:103DF000B093650F9401B301A20180916B0F909174
:103E00006C0F0E944919882331F1F8018085918552
:103E1000A285B3858A0D9B1DA11DB11D8087918749
:103E2000A287B3878A0C9B1CCA18DB0851CFF80104
:103E3000418952896389748980859185A285B3857A
:103E4000481759076A077B0709F441CFC8010E9448
:103E50005E1C81113CCF81E0D8018C938FEF9FEFE6
:103E600072C09E012F5F3F4F0E94211B882399F350
:103E700089819A81AB81BC81F801218D328DF90154
:103E80002789203169F4883FFFEF9F07A105B1051D
:103E900008F05BCFF80184839583A683B7835BCF5B
:103EA000883F2FEF9207A2072FE0B20798F34DCF7C
:103EB000E114F10451F5D80118964D915D916D9181
:103EC0007C911B9751968D919D910D90BC91A02D49
:103ED000481759076A077B07C0F00E94B01988236A
:103EE00009F4B9CF81E080936A0F4092620F50923B
:103EF000630F6092640F7092650FA501B401C70152
:103F00008E59924F0E947DF780CF41E0C301B201EC
:103F10000E94521A8111F1CF9ECFF80181899289B6
:103F2000A389B48984179507A607B70738F4818158
:103F3000418B528B638B748B80688183F801818104
:103F400083FD18C0C1010F900F900F900F90DF916B
:103F5000CF911F910F91FF90EF90DF90CF90BF9086
:103F6000AF909F908F907F906F905F904F903F9019
:103F70002F900895C8010E940C1E8111E3CF6BCFD2
:103F8000CF93DF931F92CDB7DEB7698341E050E056
:103F9000BE016F5F7F4F04960E94411E0F90DF911C
:103FA000CF910895CF93DF93EC010E940C1E1B82EA
:103FB000DF91CF910895FC01238121110C94D21F30
:103FC0000895CF93DF93EB01FC012381211104C0FD
:103FD00080E0DF91CF9108952250223028F48FE2C3
:103FE0008883198281E0F5CF60E00E94F21D00977E
:103FF00079F3DC0160E080E09EE22D91203299F0BF
:10400000883031F49E01260F311DF90190836F5FD6
:104010009E01260F311DAD0141505109FA01408129
:10402000F90140836F5F8F5F8B3039F7FE01E60F38
:10403000F11D1082D7CF2F923F924F925F926F92D5
:104040007F928F929F92AF92BF92CF92DF92EF9228
:10405000FF920F931F93CF93DF9300D01F92CDB7A2
:10406000DEB79C838B834B017A01DC0113968C9124
:10407000811119C08FEF9FEF0F900F900F900F904D
:10408000DF91CF911F910F91FF90EF90DF90CF9034
:10409000BF90AF909F908F907F906F905F904F9068
:1040A0003F902F900895EB81FC81818180FFE2CFCA
:1040B00001891289238934894085518562857385F8
:1040C000C701B0E0A0E028013901441A550A660A88
:1040D000770A481659066A067B0618F47801E41A2E
:1040E000F50A67018B819C8104969A838983612CF0
:1040F00032E0732EC114D10409F4B7C0AB81BC8186
:1041000018964D915D916D917C911B975A01B1E08C
:10411000BB22EB81FC81818D928D1A012B0129E05C
:1041200056944794379427942A95D1F723812230C7
:1041300091F5DC015A966D917D918D919C915D97E1
:10414000620D731D841D951D83010A191B09C0167C
:10415000D10608F486010115B2E01B0771F4209125
:10416000620F3091630F4091640F5091650F621799
:1041700073078407950709F059C040E00E94521A5E
:10418000882309F477CFB5016E59724FA801C40195
:104190000E947DF757C0FC01148111501221A11417
:1041A000B10481F411110EC0452B462B472B79F534
:1041B000EB81FC8185899689A789B08D848395835D
:1041C000A683B783AB81BC815996ED91FC915A9738
:1041D00014966D917D918D919C9117976250710904
:1041E00081099109258504C0660F771F881F991FD3
:1041F0002A95D2F72685378540895189620F731F2A
:10420000841F951F610F711D811D911D9DCFAB8175
:10421000BC8114964D915D916D917C911797298188
:104220003A810E94211B8111CDCF24CF9401AB0193
:10423000BC0180916B0F90916C0F0E94EF19882345
:1042400009F418CF800E911EEB81FC818085918549
:10425000A285B385800F911FA11DB11D8087918715
:10426000A287B387C01AD10A45CFC70105CFDF9215
:10427000EF92FF920F931F93CF93DF938C01EB018B
:104280007A018DE0D82E40E250E0BE01C8010E94C4
:104290001B208032910571F021E0892B09F420E088
:1042A000822F8195DF91CF911F910F91FF90EF9019
:1042B000DF90089528812223C1F1253E21F32E327B
:1042C00011F3E114F10439F13B853F733F3019F5E7
:1042D0004A8D5B8D452BF9F42F713FEF320F323051
:1042E000D0F42150330BD29EC001D39E900D1124E7
:1042F000D701A80FB91FFE0120E0AD01253078F4E9
:1043000031813D932F5F32962D30C1F7288126FFF2
:1043100002C0FA0115862B8523FDB5CFC3CF2B3004
:1043200010F43481EECF3681ECCF80E0BBCF4F92DA
:104330005F926F927F92AF92BF92CF92DF92EF9295
:10434000FF920F931F93CF93DF931F92CDB7DEB7EA
:104350008C017B015A01C22EDB0159968D919C91F3
:10436000F801928F818FCB010E94F21C712CF70112
:1043700080859185A285B385418952896389748935
:1043800084179507A607B70708F052C055E0B69501
:10439000A795979587955A95D1F7F82FFF70DF2E3F
:1043A000D70113968C91823010F480E0DBC041E09D
:1043B00050E0BE016F5F7F4FC7010E941B20019735
:1043C000A1F7F70180859185A285B3854F96A11D40
:1043D000B11D80879187A287B387F0E2DF9EB0018D
:1043E00011246E59724F61157105F9F2DB018C9140
:1043F000882341F0853E09F04CC0772029F07724CE
:104400007394B5CF71100EC08091620F9091630FBD
:10441000A091640FB091650FF80184879587A687F6
:10442000B787D08ADB018C918111E9CF772473940F
:104430008C2D8274823409F0B8CF772009F4A2C0A1
:10444000F801D08861E0C8010E94F21D009709F4CC
:10445000ACCF20E2DC011D922A95E9F72BE0F501B3
:10446000DC0101900D922A95E1F721E238E2FC018E
:10447000318B208B40E058E057874687338B228B67
:10448000318F208F578B468B0E94B019811109C044
:104490008CCF4BE050E0C5010E9470F7892B09F0EA
:1044A00066CFF0E2DF9ED00111249D012E59324FDC
:1044B000F9018385817121F08C2D827109F0FCC096
:1044C000F801818D928D4091620F5091630F609140
:1044D000640F7091650F4487558766877787D08A08
:1044E000FD01EE59F24F44885588712C612C320140
:1044F00055244424D80155964D925D926D927C923C
:104500005897428D538D70E060E044295529662903
:10451000772955964D935D936D937C935897D90168
:104520001B962C91287109F0B9C0848D958DA68DAC
:10453000B78DF801818B928BA38BB48B81E0838341
:104540008C2D8F70F8018183148215821682178258
:10455000108611861286138681E0C4FE03C0C8014E
:104560000E9451730F90DF91CF911F910F91FF9097
:10457000EF90DF90CF90BF90AF907F906F905F9063
:104580004F900895D70113968C911397823009F4B8
:104590000CCF51968D919D910D90BC91A02D803E98
:1045A0009F4FAF41B10508F000CFC7010E94F71C33
:1045B000882309F4FACE0E94B019882309F4F5CEB5
:1045C000D7015996ED91FC915A9714964D905D90B4
:1045D0006D907C901797B2E04B1A510861087108F2
:1045E000858504C0440C551C661C771C8A95D2F73F
:1045F00086859785A089B189480E591E6A1E7B1E43
:1046000081E080936A0F4092620F5092630F609234
:10461000640F7092650FE2E6FDE080E092E0DF015A
:104620009C011D9221503040E1F7DD24D394D70145
:104630005996ED91FC918481D81698F422E63DE0DC
:10464000B301A2014D0D511D611D711D80916B0FB4
:1046500090916C0F0E944919882309F4A6CED39437
:10466000E6CF258580E092E0A0E0B0E004C0880FAE
:10467000991FAA1FBB1F2A95D2F7F70141895289BA
:1046800063897489840F951FA61FB71F818B928B36
:10469000A38BB48B82E69DE0D12CDBCE203161F47C
:1046A00098012F5E3F4F0E94A41B882329F084E0CD
:1046B000D80113968C9344CFD80113961C9275CED3
:1046C0002F923F924F925F926F927F928F929F9222
:1046D000AF92BF92CF92DF92EF92FF920F931F9310
:1046E000CF93DF93CDB7DEB7C254D1090FB6F8949C
:1046F000DEBF0FBECDBF4C015B016A01322E1982B5
:104700001C821C8E1F8E672B21F510E0CE014C966B
:104710000E94DB1FCE0101960E94DB1F812FCE5B22
:10472000DF4F0FB6F894DEBF0FBECDBFDF91CF9144
:104730001F910F91FF90EF90DF90CF90BF90AF90BF
:104740009F908F907F906F905F904F903F902F90B1
:104750000895FC0183818111D8CFFA0180818F32C5
:10476000C1F4CA016C010196F60120812F32D1F308
:10477000F50183818250823060F0618D728DCE01AF
:104780004C960E940E1C8E01045E1F4F811102C0C8
:10479000BCCF8501CE0101967C013C012E019CE13C
:1047A000490E511C2396EFAE23972F2CFE01F7964E
:1047B000CF010B96AF0120E22193E817F907D9F753
:1047C000960190E067E0D9018D91882351F18F32F5
:1047D00041F1282F8E3239F46A3009F496CF98E0EF
:1047E0006AE09D01F0CFE4E7FFE03491332321F04C
:1047F00031968313FACF89CF691708F486CF8132B7
:1048000008F483CF8F3709F480CF3FE9380F3A316E
:1048100010F420EE280FFA01E90FF11D20839F5FAD
:10482000E0CF8FA9803209F470CF6901F90180814E
:104830002F5F3F4F8F32C9F38823D9F021E0B801B1
:10484000C7010E949721882309F45FCF0A151B0531
:1048500019F0C8010E94D21F942D852D6E147F047B
:1048600021F023969FAD2397822D8701E92EF82E04
:104870009DCF232DB801C4010E949721182F46CF48
:104880001F93CF93DF93CDB7DEB76B970FB6F89436
:10489000DEBF0FBECDBFAB0119821C8222E0BC017E
:1048A000CE0101960E946023811110C010E0CE015C
:1048B00001960E94DB1F812F6B960FB6F894DEBF26
:1048C0000FBECDBFDF91CF911F910895CE0101960C
:1048D0000E945173882351F361E0CE0101960E943A
:1048E000F21D009719F325EEFC0120831C820E9423
:1048F000B019182FDCCF29E033E0FC01318320838D
:1049000004960C94DB1F5F9AE8EAF7E010828A9A1B
:1049100011829FB7F894A8E0B1E08C9181608C93EC
:104920009FBF1282129A08954F925F926F927F9268
:104930008F929F92AF92BF92CF92DF92EF92FF92AF
:104940000F931F93CF93DF93EC01209127073091B2
:1049500028074091290750912A07688179818A8127
:104960009B810E9412F46B017C0160910116709191
:104970000216072E000C880B990B0E9472ED9B010A
:10498000AC01C701B6010E9412F46B017C012091B9
:104990002B0730912C0740912D0750912E076C81E9
:1049A0007D818E819F810E9412F44B015C01609198
:1049B000031670910416072E000C880B990B0E94A9
:1049C00072ED9B01AC01C501B4010E9412F44B01D0
:1049D0005C01A70196016091080270910902809123
:1049E0000A0290910B020E946BED882309F44AC0E1
:1049F000C0920802D0920902E0920A02F0920B02E1
:104A00002091B7063091B8064091B9065091BA0688
:104A1000C701B6010E94D1ED2B013C010E94B5F502
:104A20006B017C0120E030E0A9010E946BED87FD65
:104A30006AC020E030E040E450E4C701B6010E94C3
:104A400073F618162CF4C12CD12CC0E4EC2EFE2CDD
:104A5000A7019601C301B2010E9412F46093A70658
:104A60007093A8068093A9069093AA06C701B60181
:104A70000E947FF56093A60663300CF048C06F5F1C
:104A80006093A506D09103021091A606A50194019A
:104A900060910402709105028091060290910702D4
:104AA0000E946BED811135C0D1137DC02091870626
:104AB000309188064091890650918A066091A70638
:104AC0007091A8068091A9069091AA060E94D1ED46
:104AD00020918B0630918C0640918D0650918E0668
:104AE0000E9413F4DF91CF911F910F91FF90EF90EF
:104AF000DF90CF90BF90AF909F908F907F906F90FE
:104B00005F904F900895C12CD12C7601A1CF64E025
:104B1000B7CF8092040290920502A0920602B09252
:104B200007022091BB063091BC064091BD06509112
:104B3000BE06C501B4010E94D1ED4B015C010E948B
:104B4000B5F56B017C0120E030E0A9010E946BED1E
:104B500087FDE9C020E030E040E450E4C701B60141
:104B60000E9473F618162CF4C12CD12CB0E4EB2E55
:104B7000FE2CA7019601C501B4010E9412F46093B6
:104B8000A1067093A2068093A3069093A406C70182
:104B9000B6010E947FF56093A00663300CF0C7C099
:104BA0006F5F60939F06C091A006D11305C08091EE
:104BB00002028C1709F46CC010930302C093020226
:104BC0000C2E000CDD0B25E01203C0011124FC01AA
:104BD000EC0FFD1FEE0FFF1FEE0FFF1FE95CF84FFC
:104BE000208131814281538120939B0630939C0622
:104BF00040939D0650939E0600919F06002E000C48
:104C0000110BFC01E00FF11FEE0FFF1FEE0FFF1F56
:104C1000E95CF84F60817181828193810E9412F476
:104C200060939706709398068093990690939A06DE
:104C30002091A50635E02303F0011124CE0FDF1FDC
:104C4000CC0FDD1FCC0FDD1FC95CD84F2881398107
:104C50004A815B8120939306309394064093950696
:104C600050939606E00FF11FEE0FFF1FEE0FFF1F90
:104C7000E95CF84F60817181828193810E9412F416
:104C800060938F067093900680939106909392069E
:104C90008090A1069090A206A090A306B090A406D2
:104CA00020919706309198064091990650919A0666
:104CB000C501B4010E94D1ED20919B0630919C0664
:104CC00040919D0650919E060E9413F46B017C0159
:104CD000C0928B06D0928C06E0928D06F0928E06E2
:104CE00020918F0630919006409191065091920646
:104CF000C501B4010E94D1ED209193063091940634
:104D000040919506509196060E9413F4A7019601D2
:104D10000E9412F460938706709388068093890638
:104D200090938A06C3CEC12CD12C760122CF64E0A9
:104D300038CF1F93CF93DF93CDB7DEB72C970FB645
:104D4000F894DEBF0FBECDBF882331F02091051649
:104D500030910616232BD1F0909116168917B1F0D9
:104D6000182F8CE0E5E6F2E0DE01119601900D923D
:104D70008A95E1F7CE0101960E94942410931616AD
:104D800011110EC082E090E00E941B142C960FB609
:104D9000F894DEBF0FBECDBFDF91CF911F91089574
:104DA00084ED97E00E94D4CCF1CF80E00E94992658
:104DB00010920816109207161092061610920516F9
:104DC00010920416109203161092021610920116F9
:104DD000E7E3F7E02BE937E080E090E0A0ECBFE705
:104DE00080839183A283B38384839583A683B783CF
:104DF00080879187A287B38784879587A687B7879F
:104E0000808B918BA28BB38B74962E173F0741F743
:104E10000895BC018DE292E10E9428BD67E771E030
:104E200080E090E00C94BBB54F925F926F927F92BE
:104E30008F929F92AF92BF92CF92DF92EF92FF92AA
:104E40000F931F93CF93DF935C014B018A01E9011C
:104E5000409022025090230260902402709025021C
:104E6000FA0120813181428153816091DC07709188
:104E7000DD078091DE079091DF070E946BED87FFD1
:104E80002EC0C880D980EA80FB8020E030E0A901F4
:104E9000B601C7010E946BED811108C0E5E0FFE09B
:104EA00085919591A591B4916C017D01C601D701C1
:104EB0008093220290932302A0932402B0932502B0
:104EC000F80180819181A281B3818093DC07909366
:104ED000DD07A093DE07B093DF070E94D117C880DB
:104EE000D980EA80FB8020E030E0A901C701B6014B
:104EF0000E946BED811108C0C0901D02D0901E026F
:104F0000E0901F02F0902002C0922202D092230271
:104F1000E0922402F0922502F50180819181A28124
:104F2000B3818093D4079093D507A093D607B0930D
:104F3000D707F40180819181A281B3818093D80742
:104F40009093D907A093DA07B093DB070E94D1179B
:104F5000F80120813181428153816091DC07709199
:104F6000DD078091DE079091DF070E9473F6181627
:104F7000A4F5D880E980FA80CB8120E030E0A90157
:104F80006D2D7E2D8F2D9C2F0E946BED81110AC0FF
:104F9000E5E0FFE085919591A591B491D82EE92E99
:104FA000FA2ECB2F8D2D9E2DAF2DBC2F809322025C
:104FB00090932302A0932402B0932502F8018081EC
:104FC0009181A281B3818093DC079093DD07A09348
:104FD000DE07B093DF070E94D1170E94FDB5409213
:104FE0002202509223026092240270922502DF91E5
:104FF000CF911F910F91FF90EF90DF90CF90BF90D6
:10500000AF909F908F907F906F905F904F9008959A
:105010009B01AC0168ED77E084ED97E00C941427D8
:10502000CF92DF92EF92FF921F93CF93DF93CDB792
:10503000DEB72C970FB6F894DEBF0FBECDBF9091B0
:105040008B1B981709F46BC0182F80E090E0A0E24A
:10505000B1E48D839E83AF83B887C090B907D090A9
:10506000BA07E090BB07F090BC0720E030E0A90150
:10507000C701B6010E946BED87FF0CC0A701960126
:1050800060E070E080E291E40E9412F46D837E8320
:105090008F8398872D813E814F8158856091DC07F1
:1050A0007091DD078091DE079091DF070E946BED24
:1050B00087FF0BC019821A821B821C82BE016F5FA0
:1050C0007F4FCE0105960E9408288091D4079091C9
:1050D000D507A091D607B091D70789879A87AB8764
:1050E000BC878091D8079091D907A091DA07B09139
:1050F000DB078D839E83AF83B88719821A821B8258
:105100001C829E012F5F3F4F4CED57E0BE016B5F4D
:105110007F4FCE0109960E94142710938B1B80E0CD
:105120002C960FB6F894DEBF0FBECDBFDF91CF91A6
:105130001F91FF90EF90DF90CF90089580E1E4ED14
:10514000F7E0A6E1B7E001900D928A95E1F70895A6
:105150009091EF10E92FF0E0E856F44E80839F5FC6
:10516000943040F49093EF108091F0108F5F809313
:10517000F01008951092EF10F7CFDF92EF92FF92A8
:105180000F931F93CF93DF93CDB7DEB76E970FB614
:10519000F894DEBF0FBECDBF60916D0F70916E0FA2
:1051A0006115710569F14DE150E08E010F5F1F4FF0
:1051B000C8010E9412ED1E8EF8017F01E01AF10A6B
:1051C000D190DD2019F08AE0D812F7CFF801EE0D6A
:1051D000FF1D1082C8010E940372882389F090E0AD
:1051E00080E0DD2049F08FEFE81AF80A80916D0F1A
:1051F00090916E0F8E0D9F1D90936E0F80936D0F8B
:1052000081E020916D0F30916E0F232B09F480E027
:105210006E960FB6F894DEBF0FBECDBFDF91CF9173
:105220001F910F91FF90EF90DF9008950F931F93C0
:10523000CF93DF93CDB7DEB72C970FB6F894DEBFD0
:105240000FBECDBFE4EDF7E080859185A285B385E3
:10525000448155816681778100811181228133816A
:1052600009831A832B833C834D835E836F83788706
:1052700089879A87AB87BC87AE01475F5F4FBE01C6
:105280006B5F7F4FCE0101960E9453CD20EE37E039
:10529000AE01475F5F4FBE016B5F7F4FCE0101964E
:1052A0000E946FBF2C960FB6F894DEBF0FBECDBF25
:1052B000DF91CF911F910F91089588E893E190932A
:1052C0005A1B8093591B80916F008D7F80936F00D4
:1052D0009091BE118091BF11981719F00E9407B6E6
:1052E000F7CF10925C1B10925B1B80916F00826065
:1052F00080936F008FB7F8941092851610928616DF
:1053000010928716109288168FBF0E94FDB584E612
:1053100090E00E941B140C9416292F923F924F92FA
:105320005F926F927F928F929F92AF92BF92CF9235
:10533000DF92EF92FF920F931F93CF93DF93CDB73E
:10534000DEB72C970FB6F894DEBF0FBECDBF7C0141
:105350002A013B011801590182E0E816F10409F025
:1053600098C020E030E0A901CB01B2010E946BEDB2
:1053700087FF8FC00E94F775DD24D3948701000F4B
:10538000111F000F111FF801EC52F84F4F0110824E
:105390001182128213820E941629F40140825182E6
:1053A00062827382C090A70720E030E0A901B101BA
:1053B000C5010E946BED811109C0F801E350F14F66
:1053C00085919591A591B4911C015D018091DC07B7
:1053D0009091DD07A091DE07B091DF074091D807DB
:1053E0005091D9076091DA077091DB074090D4079C
:1053F0005090D5076090D6077090D70749825A829F
:105400006B827C824D835E836F83788789879A87DE
:10541000AB87BC878091B40781110AC0AE01475F9A
:105420005F4FBE016B5F7F4FCE0101960E9453CD4F
:105430007101850120EE37E0AE01475F5F4FBE018D
:105440006B5F7F4FCE0101960E9432C00E94FDB576
:10545000DD2021F08AE590E00E94092710929C1B34
:105460002C960FB6F894DEBF0FBECDBFDF91CF9163
:105470001F910F91FF90EF90DF90CF90BF90AF9072
:105480009F908F907F906F905F904F903F902F9064
:105490000895D12C73CFCF92DF92EF92FF921F939A
:1054A000CF93DF9300D000D01F921F92CDB7DEB70D
:1054B0006D837E838F83988769017A010E94F775D7
:1054C000811128C020E030E040E752E4C701B60176
:1054D0000E940DF569837A838B839C83BE016F5F85
:1054E0007F4FCE0105960E94082880919C1B182FA3
:1054F000147082FF04C08AE590E00E940927109290
:105500009C1B82E090E00E941B140E94162981E0FF
:10551000111180E028960FB6F894DEBF0FBECDBF04
:10552000DF91CF911F91FF90EF90DF90CF90089582
:105530000F931F93CF938091FA059091FB050097ED
:10554000E9F0FC018F01C1912C2F2F7D81F0C53432
:1055500011F0C536B9F7F801108270E060E00E94E2
:1055600062E9F801C083CF911F910F91089570E017
:1055700060E0CF911F910F910C9462E960E070E0C0
:10558000CB01F1CF2FEB280F2A3168F5422F50E0E5
:10559000FA0183E0F595E7958A95E1F7EC50FA4F2B
:1055A0009081892F90E0277002C0959587952A9564
:1055B000E2F780FD02C08170089546525A4FFA0109
:1055C0008081882369F02091D0063091D106820F26
:1055D000932F911D9093FB058093FA0581E0089528
:1055E00090E080E0F7CF80E008950E94C22A8823EF
:1055F00041F081E02091FA053091FB05232B09F45D
:1056000080E00895CF92DF92EF92FF920F931F9365
:10561000CF93DF9381E8C82E82E0D82E96E1E92E61
:1056200097E0F92E04ED17E0D0E0C0E0F60181919B
:105630006F010E94C22A882309F44EC00E94982A52
:105640009B01AC01FE01E350FA4F8081811104C03F
:10565000809101068823E1F1F801608171818281E6
:1056600093810E9413F4F701608371838283938393
:105670002196F4E0EF0EF11C0C5F1F4FC430D105F2
:10568000A9F686E40E94F52A8823C9F00E94982A88
:1056900020E030E0A9010E9473F6181684F40E94FD
:1056A000982A20E030E040E752E40E940DF5609334
:1056B0002202709323028093240290932502DF91AB
:1056C000CF911F910F91FF90EF90DF90CF900895B1
:1056D00060E070E0CB01C5CFF80180819181A281AB
:1056E000B381F70180839183A283B383C1CF0E94EA
:1056F00051AD6093F1067093F2068093F306909398
:10570000F40608958091D4059091D505A091D60511
:10571000B091D7058093220290932302A093240294
:10572000B09325028091D2059091D30590933402D5
:10573000809333020C94772B809122029091230264
:10574000A0912402B09125028093D4059093D505B1
:10575000A093D605B093D70580913302909134027F
:105760009093D3058093D20584E690E09093340221
:10577000809333020C94772B9091C00095FFFCCF5F
:105780008093C60008957F928F929F92AF92BF92AE
:10579000CF92DF92EF92FF920F931F93CF93DF93FD
:1057A0001F92CDB7DEB7E0910016E11138C0590164
:1057B0007C018B016B01C40ED51E0C151D0579F102
:1057C000F70180809180F80171908F017982C40186
:1057D0000E9489F3781691F1672DC4010E9491F31C
:1057E000C4010E9489F39981891741F109EF13E1FE
:1057F000F80184910F5F1F4F81110BC004E81FE077
:10580000F80184910F5F1F4F882331F00E94BC2B59
:10581000F7CF0E94BC2BECCF81E0809300160F9055
:10582000DF91CF911F910F91FF90EF90DF90CF907C
:10583000BF90AF909F908F907F900895BE016F5F53
:105840007F4FC5010E944C75F701808191810196BF
:1058500091838083B2CF4F925F926F927F928F92AB
:105860009F92AF92BF92EF92FF920F931F93CF93AD
:10587000DF93EC01FC01E65BF04F1491029709F411
:1058800044C07E01EE0CFF1CEE0CFF1CF701E25C35
:10589000F04F4590559065907490612F110F770BE4
:1058A000880B990B0E9472ED4B015C0120E030E007
:1058B00040EC5FE3C301B2010E94D1EDA501940168
:1058C0000E94D1EDAB01BC0100E010E09801CE01D7
:1058D0000E948D29F701EE5CF04FC230D10551F5E1
:1058E0000AE31FE0F801659175918591949120E09C
:1058F00030E040EA50E40E946BEDF80187FF1AC0E7
:10590000E0E070E060EA80E41DC081E00E941028C1
:10591000882309F4B6CFDF91CF911F910F91FF90AB
:10592000EF90BF90AF909F908F907F906F905F901F
:105930004F90089585919591A591B491E82F792F75
:105940006A2F8B2F2E2F372F462F582FC501B401CA
:105950000E94D1ED4B015C0120E030E0A9010E94E2
:105960006BED882309F447C000E010E09801B50111
:10597000A4017058CE010E948D29FE01E15DF04F17
:105980006491611117C009EF13E1F80184910F5F71
:105990001F4F81110BC00DE01FE0F80184910F5FD4
:1059A0001F4F882331F00E94BC2BF7CF0E94BC2BE5
:1059B000ECCF6AE0F701E350F14F459055906590C8
:1059C000749070E090E080E00E9472ED9B01AC0169
:1059D000C301B2010E940DF52B013C01A501940108
:1059E000C501B4010E9413F4AB01BC019301820113
:1059F000CE010E948D2981E0FE01E251F94F8083A2
:105A0000FE01E855F84F8083F701EE51F94F1082FF
:105A1000118212821382CE010E940B13F701EF5004
:105A2000F14F259135914591549187010C52184FB2
:105A3000F701E95DF84F60817181828193810E9455
:105A400013F4F8016083718382839383C230D1059C
:105A5000D1F42091B9073091BA074091BB0750911A
:105A6000BC076091DC077091DD078091DE079091A3
:105A7000DF070E9412F46093DC077093DD078093C8
:105A8000DE079093DF070E941629D701AA5EB84F60
:105A9000F701EC52F84F40815181628173814D933F
:105AA0005D936D937C931397229709F034CF80E038
:105AB000DF91CF911F910F91FF90EF90BF90AF902A
:105AC0009F908F907F906F905F904F900C941028D4
:105AD000CF92DF92EF92FF92CF93DF9380912102DA
